{
  "contractName": "AutonomousCarRental",
  "abi": [
    {
      "inputs": [
        {
          "internalType": "address",
          "name": "_autonomousCarManagerAddress",
          "type": "address"
        }
      ],
      "stateMutability": "nonpayable",
      "type": "constructor"
    },
    {
      "anonymous": false,
      "inputs": [
        {
          "indexed": false,
          "internalType": "uint256",
          "name": "id",
          "type": "uint256"
        },
        {
          "indexed": false,
          "internalType": "address",
          "name": "renter",
          "type": "address"
        },
        {
          "indexed": false,
          "internalType": "uint256",
          "name": "rentalStart",
          "type": "uint256"
        },
        {
          "indexed": false,
          "internalType": "uint256",
          "name": "rentalEnd",
          "type": "uint256"
        }
      ],
      "name": "CarRented",
      "type": "event"
    },
    {
      "anonymous": false,
      "inputs": [
        {
          "indexed": false,
          "internalType": "uint256",
          "name": "id",
          "type": "uint256"
        }
      ],
      "name": "CarReturned",
      "type": "event"
    },
    {
      "inputs": [],
      "name": "autonomousCarManager",
      "outputs": [
        {
          "internalType": "contract AutonomousCarManager",
          "name": "",
          "type": "address"
        }
      ],
      "stateMutability": "view",
      "type": "function",
      "constant": true
    },
    {
      "inputs": [
        {
          "internalType": "uint256",
          "name": "",
          "type": "uint256"
        }
      ],
      "name": "rentals",
      "outputs": [
        {
          "internalType": "address",
          "name": "renter",
          "type": "address"
        },
        {
          "internalType": "uint256",
          "name": "rentalStart",
          "type": "uint256"
        },
        {
          "internalType": "uint256",
          "name": "rentalEnd",
          "type": "uint256"
        }
      ],
      "stateMutability": "view",
      "type": "function",
      "constant": true
    },
    {
      "inputs": [
        {
          "internalType": "uint256",
          "name": "_id",
          "type": "uint256"
        }
      ],
      "name": "rentCar",
      "outputs": [],
      "stateMutability": "nonpayable",
      "type": "function"
    },
    {
      "inputs": [
        {
          "internalType": "uint256",
          "name": "_id",
          "type": "uint256"
        }
      ],
      "name": "returnCar",
      "outputs": [],
      "stateMutability": "nonpayable",
      "type": "function"
    },
    {
      "inputs": [
        {
          "internalType": "uint256",
          "name": "_id",
          "type": "uint256"
        }
      ],
      "name": "getRentalDetails",
      "outputs": [
        {
          "internalType": "address",
          "name": "",
          "type": "address"
        },
        {
          "internalType": "uint256",
          "name": "",
          "type": "uint256"
        },
        {
          "internalType": "uint256",
          "name": "",
          "type": "uint256"
        }
      ],
      "stateMutability": "view",
      "type": "function",
      "constant": true
    }
  ],
  "bytecode": "0x608060405234801561001057600080fd5b50604051610f3f380380610f3f833981810160405281019061003291906100db565b806000806101000a81548173ffffffffffffffffffffffffffffffffffffffff021916908373ffffffffffffffffffffffffffffffffffffffff16021790555050610108565b600080fd5b600073ffffffffffffffffffffffffffffffffffffffff82169050919050565b60006100a88261007d565b9050919050565b6100b88161009d565b81146100c357600080fd5b50565b6000815190506100d5816100af565b92915050565b6000602082840312156100f1576100f0610078565b5b60006100ff848285016100c6565b91505092915050565b610e28806101176000396000f3fe608060405234801561001057600080fd5b50600436106100575760003560e01c806317088b341461005c57806317f956e01461008e57806382f46514146100aa578063af94a1d1146100c8578063e1e8aab7146100fa575b600080fd5b610076600480360381019061007191906106e6565b610116565b60405161008593929190610763565b60405180910390f35b6100a860048036038101906100a391906106e6565b61016e565b005b6100b2610371565b6040516100bf91906107f9565b60405180910390f35b6100e260048036038101906100dd91906106e6565b610395565b6040516100f193929190610763565b60405180910390f35b610114600480360381019061010f91906106e6565b6103df565b005b6000806000806001600086815260200190815260200160002090508060000160009054906101000a900473ffffffffffffffffffffffffffffffffffffffff1681600101548260020154935093509350509193909250565b60006001600083815260200190815260200160002090503373ffffffffffffffffffffffffffffffffffffffff168160000160009054906101000a900473ffffffffffffffffffffffffffffffffffffffff1673ffffffffffffffffffffffffffffffffffffffff1614610217576040517f08c379a000000000000000000000000000000000000000000000000000000000815260040161020e90610871565b60405180910390fd5b806002015442101561025e576040517f08c379a000000000000000000000000000000000000000000000000000000000815260040161025590610903565b60405180910390fd5b60016000838152602001908152602001600020600080820160006101000a81549073ffffffffffffffffffffffffffffffffffffffff021916905560018201600090556002820160009055505060008054906101000a900473ffffffffffffffffffffffffffffffffffffffff1673ffffffffffffffffffffffffffffffffffffffff16635245dc4a836040518263ffffffff1660e01b81526004016103049190610923565b600060405180830381600087803b15801561031e57600080fd5b505af1158015610332573d6000803e3d6000fd5b505050507fd9188e305dee9c23fa1cc9b07058ae9500862da7079cc5ba9df28045ae2f1d1e826040516103659190610923565b60405180910390a15050565b60008054906101000a900473ffffffffffffffffffffffffffffffffffffffff1681565b60016020528060005260406000206000915090508060000160009054906101000a900473ffffffffffffffffffffffffffffffffffffffff16908060010154908060020154905083565b60008060008054906101000a900473ffffffffffffffffffffffffffffffffffffffff1673ffffffffffffffffffffffffffffffffffffffff1663ee5c038c846040518263ffffffff1660e01b815260040161043b9190610923565b600060405180830381865afa158015610458573d6000803e3d6000fd5b505050506040513d6000823e3d601f19601f820116820180604052508101906104819190610b51565b509850509750505050505050816104cd576040517f08c379a00000000000000000000000000000000000000000000000000000000081526004016104c490610cbe565b60405180910390fd5b80421015610510576040517f08c379a000000000000000000000000000000000000000000000000000000000815260040161050790610d2a565b60405180910390fd5b600042905062015180816105249190610d79565b915060405180606001604052803373ffffffffffffffffffffffffffffffffffffffff168152602001828152602001838152506001600086815260200190815260200160002060008201518160000160006101000a81548173ffffffffffffffffffffffffffffffffffffffff021916908373ffffffffffffffffffffffffffffffffffffffff160217905550602082015181600101556040820151816002015590505060008054906101000a900473ffffffffffffffffffffffffffffffffffffffff1673ffffffffffffffffffffffffffffffffffffffff1663d1e1deac853384866040518563ffffffff1660e01b81526004016106279493929190610dad565b600060405180830381600087803b15801561064157600080fd5b505af1158015610655573d6000803e3d6000fd5b505050507f3639b3e5763bc2cd5a8b9d299191268e74f601a485259f0209708df7b28be8498433838560405161068e9493929190610dad565b60405180910390a150505050565b6000604051905090565b600080fd5b600080fd5b6000819050919050565b6106c3816106b0565b81146106ce57600080fd5b50565b6000813590506106e0816106ba565b92915050565b6000602082840312156106fc576106fb6106a6565b5b600061070a848285016106d1565b91505092915050565b600073ffffffffffffffffffffffffffffffffffffffff82169050919050565b600061073e82610713565b9050919050565b61074e81610733565b82525050565b61075d816106b0565b82525050565b60006060820190506107786000830186610745565b6107856020830185610754565b6107926040830184610754565b949350505050565b6000819050919050565b60006107bf6107ba6107b584610713565b61079a565b610713565b9050919050565b60006107d1826107a4565b9050919050565b60006107e3826107c6565b9050919050565b6107f3816107d8565b82525050565b600060208201905061080e60008301846107ea565b92915050565b600082825260208201905092915050565b7f4e6f2068617320616c7175696c61646f206573746520636f6368652e00000000600082015250565b600061085b601c83610814565b915061086682610825565b602082019050919050565b6000602082019050818103600083015261088a8161084e565b9050919050565b7f456c20706572696f646f20646520616c7175696c6572206e6f2068612066696e60008201527f616c697a61646f2e000000000000000000000000000000000000000000000000602082015250565b60006108ed602883610814565b91506108f882610891565b604082019050919050565b6000602082019050818103600083015261091c816108e0565b9050919050565b60006020820190506109386000830184610754565b92915050565b60008151905061094d816106ba565b92915050565b61095c81610733565b811461096757600080fd5b50565b60008151905061097981610953565b92915050565b600080fd5b600080fd5b6000601f19601f8301169050919050565b7f4e487b7100000000000000000000000000000000000000000000000000000000600052604160045260246000fd5b6109d282610989565b810181811067ffffffffffffffff821117156109f1576109f061099a565b5b80604052505050565b6000610a0461069c565b9050610a1082826109c9565b919050565b600067ffffffffffffffff821115610a3057610a2f61099a565b5b610a3982610989565b9050602081019050919050565b60005b83811015610a64578082015181840152602081019050610a49565b60008484015250505050565b6000610a83610a7e84610a15565b6109fa565b905082815260208101848484011115610a9f57610a9e610984565b5b610aaa848285610a46565b509392505050565b600082601f830112610ac757610ac661097f565b5b8151610ad7848260208601610a70565b91505092915050565b600060ff82169050919050565b610af681610ae0565b8114610b0157600080fd5b50565b600081519050610b1381610aed565b92915050565b60008115159050919050565b610b2e81610b19565b8114610b3957600080fd5b50565b600081519050610b4b81610b25565b92915050565b6000806000806000806000806000806101408b8d031215610b7557610b746106a6565b5b6000610b838d828e0161093e565b9a50506020610b948d828e0161096a565b99505060408b015167ffffffffffffffff811115610bb557610bb46106ab565b5b610bc18d828e01610ab2565b9850506060610bd28d828e0161093e565b9750506080610be38d828e01610b04565b96505060a0610bf48d828e0161093e565b95505060c0610c058d828e01610b3c565b94505060e0610c168d828e0161096a565b935050610100610c288d828e0161093e565b925050610120610c3a8d828e0161093e565b9150509295989b9194979a5092959850565b7f456c20636f636865206e6f206573746120646973706f6e69626c6520656e206560008201527f737465206d6f6d656e746f2e0000000000000000000000000000000000000000602082015250565b6000610ca8602c83610814565b9150610cb382610c4c565b604082019050919050565b60006020820190508181036000830152610cd781610c9b565b9050919050565b7f456c20636f636865207961206573746120616c7175696c61646f2e0000000000600082015250565b6000610d14601b83610814565b9150610d1f82610cde565b602082019050919050565b60006020820190508181036000830152610d4381610d07565b9050919050565b7f4e487b7100000000000000000000000000000000000000000000000000000000600052601160045260246000fd5b6000610d84826106b0565b9150610d8f836106b0565b9250828201905080821115610da757610da6610d4a565b5b92915050565b6000608082019050610dc26000830187610754565b610dcf6020830186610745565b610ddc6040830185610754565b610de96060830184610754565b9594505050505056fea2646970667358221220105c10aa65375af8ca396423888e559c935ba143d713abd454d7b0fdfc2fba1a64736f6c63430008130033",
  "immutableReferences": {},
  "source": "// SPDX-License-Identifier: MIT\npragma solidity ^0.8.19;\n\nimport \"./AutonomousCarManager.sol\";\n\ncontract AutonomousCarRental {\n    AutonomousCarManager public autonomousCarManager;\n\n    struct Rental {\n        address renter;\n        uint256 rentalStart;\n        uint256 rentalEnd;\n    }\n\n    mapping(uint => Rental) public rentals;\n\n    event CarRented(uint id, address renter, uint256 rentalStart, uint256 rentalEnd);\n    event CarReturned(uint id);\n\n    constructor(address _autonomousCarManagerAddress) {\n        autonomousCarManager = AutonomousCarManager(_autonomousCarManagerAddress);\n    }\n\n    function rentCar(uint _id) external {\n        (\n            , \n            , \n            , \n            , \n            , \n            , \n            bool isAvailable, \n            , \n            uint256 rentalEnd, \n            \n        ) = autonomousCarManager.getAutonomousCar(_id);\n        require(isAvailable, \"El coche no esta disponible en este momento.\");\n        require(block.timestamp >= rentalEnd, \"El coche ya esta alquilado.\");\n\n        uint256 rentalStart = block.timestamp;\n        rentalEnd = rentalStart + 86400; // 1 da de alquiler\n\n        rentals[_id] = Rental({\n            renter: msg.sender,\n            rentalStart: rentalStart,\n            rentalEnd: rentalEnd\n        });\n\n        autonomousCarManager.setRentalDetails(_id, msg.sender, rentalStart, rentalEnd);\n\n        emit CarRented(_id, msg.sender, rentalStart, rentalEnd);\n    }\n\n    function returnCar(uint _id) external {\n        Rental storage rental = rentals[_id];\n        require(rental.renter == msg.sender, \"No has alquilado este coche.\");\n        require(block.timestamp >= rental.rentalEnd, \"El periodo de alquiler no ha finalizado.\");\n\n        delete rentals[_id];\n\n        autonomousCarManager.clearRentalDetails(_id);\n\n        emit CarReturned(_id);\n    }\n\n    function getRentalDetails(uint _id) external view returns (address, uint256, uint256) {\n        Rental storage rental = rentals[_id];\n        return (rental.renter, rental.rentalStart, rental.rentalEnd);\n    }\n}\n",
  "sourcePath": "/home/tote/master/tfm/contracts/AutonomousCarRental.sol",
  "compiler": {
    "name": "solc",
    "version": "0.8.19+commit.7dd6d404.Emscripten.clang"
  },
  "schemaVersion": "3.4.16",
  "updatedAt": "2024-05-19T01:24:54.034Z",
  "networkType": "ethereum",
  "devdoc": {
    "kind": "dev",
    "methods": {},
    "version": 1
  },
  "userdoc": {
    "kind": "user",
    "methods": {},
    "version": 1
  }
}