{
  "contractName": "AutonomousCarManager",
  "abi": [
    {
      "anonymous": false,
      "inputs": [
        {
          "indexed": false,
          "internalType": "uint256",
          "name": "id",
          "type": "uint256"
        },
        {
          "indexed": false,
          "internalType": "address",
          "name": "owner",
          "type": "address"
        },
        {
          "indexed": false,
          "internalType": "string",
          "name": "model",
          "type": "string"
        },
        {
          "indexed": false,
          "internalType": "uint256",
          "name": "rentalPrice",
          "type": "uint256"
        },
        {
          "indexed": false,
          "internalType": "uint8",
          "name": "seats",
          "type": "uint8"
        },
        {
          "indexed": false,
          "internalType": "uint256",
          "name": "autonomy",
          "type": "uint256"
        }
      ],
      "name": "AutonomousCarAdded",
      "type": "event"
    },
    {
      "anonymous": false,
      "inputs": [
        {
          "indexed": false,
          "internalType": "uint256",
          "name": "id",
          "type": "uint256"
        },
        {
          "indexed": false,
          "internalType": "bool",
          "name": "isAvailable",
          "type": "bool"
        }
      ],
      "name": "AutonomousCarAvailabilityChanged",
      "type": "event"
    },
    {
      "anonymous": false,
      "inputs": [
        {
          "indexed": false,
          "internalType": "uint256",
          "name": "id",
          "type": "uint256"
        },
        {
          "indexed": false,
          "internalType": "address",
          "name": "owner",
          "type": "address"
        },
        {
          "indexed": false,
          "internalType": "string",
          "name": "model",
          "type": "string"
        },
        {
          "indexed": false,
          "internalType": "uint256",
          "name": "rentalPrice",
          "type": "uint256"
        },
        {
          "indexed": false,
          "internalType": "uint8",
          "name": "seats",
          "type": "uint8"
        },
        {
          "indexed": false,
          "internalType": "uint256",
          "name": "autonomy",
          "type": "uint256"
        }
      ],
      "name": "AutonomousCarUpdated",
      "type": "event"
    },
    {
      "inputs": [],
      "name": "autonomousCarCount",
      "outputs": [
        {
          "internalType": "uint256",
          "name": "",
          "type": "uint256"
        }
      ],
      "stateMutability": "view",
      "type": "function",
      "constant": true
    },
    {
      "inputs": [
        {
          "internalType": "uint256",
          "name": "",
          "type": "uint256"
        }
      ],
      "name": "autonomousCars",
      "outputs": [
        {
          "internalType": "uint256",
          "name": "id",
          "type": "uint256"
        },
        {
          "internalType": "address",
          "name": "owner",
          "type": "address"
        },
        {
          "internalType": "string",
          "name": "model",
          "type": "string"
        },
        {
          "internalType": "uint256",
          "name": "rentalPrice",
          "type": "uint256"
        },
        {
          "internalType": "uint8",
          "name": "seats",
          "type": "uint8"
        },
        {
          "internalType": "uint256",
          "name": "autonomy",
          "type": "uint256"
        },
        {
          "internalType": "bool",
          "name": "isAvailable",
          "type": "bool"
        },
        {
          "internalType": "address",
          "name": "renter",
          "type": "address"
        },
        {
          "internalType": "uint256",
          "name": "rentalStart",
          "type": "uint256"
        },
        {
          "internalType": "uint256",
          "name": "rentalEnd",
          "type": "uint256"
        }
      ],
      "stateMutability": "view",
      "type": "function",
      "constant": true
    },
    {
      "inputs": [
        {
          "internalType": "string",
          "name": "_model",
          "type": "string"
        },
        {
          "internalType": "uint256",
          "name": "_rentalPrice",
          "type": "uint256"
        },
        {
          "internalType": "uint8",
          "name": "_seats",
          "type": "uint8"
        },
        {
          "internalType": "uint256",
          "name": "_autonomy",
          "type": "uint256"
        }
      ],
      "name": "addAutonomousCar",
      "outputs": [],
      "stateMutability": "nonpayable",
      "type": "function"
    },
    {
      "inputs": [
        {
          "internalType": "uint256",
          "name": "_id",
          "type": "uint256"
        }
      ],
      "name": "getAutonomousCar",
      "outputs": [
        {
          "internalType": "uint256",
          "name": "",
          "type": "uint256"
        },
        {
          "internalType": "address",
          "name": "",
          "type": "address"
        },
        {
          "internalType": "string",
          "name": "",
          "type": "string"
        },
        {
          "internalType": "uint256",
          "name": "",
          "type": "uint256"
        },
        {
          "internalType": "uint8",
          "name": "",
          "type": "uint8"
        },
        {
          "internalType": "uint256",
          "name": "",
          "type": "uint256"
        },
        {
          "internalType": "bool",
          "name": "",
          "type": "bool"
        },
        {
          "internalType": "address",
          "name": "",
          "type": "address"
        },
        {
          "internalType": "uint256",
          "name": "",
          "type": "uint256"
        },
        {
          "internalType": "uint256",
          "name": "",
          "type": "uint256"
        }
      ],
      "stateMutability": "view",
      "type": "function",
      "constant": true
    },
    {
      "inputs": [
        {
          "internalType": "uint256",
          "name": "_id",
          "type": "uint256"
        },
        {
          "internalType": "string",
          "name": "_model",
          "type": "string"
        },
        {
          "internalType": "uint256",
          "name": "_rentalPrice",
          "type": "uint256"
        },
        {
          "internalType": "uint8",
          "name": "_seats",
          "type": "uint8"
        },
        {
          "internalType": "uint256",
          "name": "_autonomy",
          "type": "uint256"
        }
      ],
      "name": "updateAutonomousCar",
      "outputs": [],
      "stateMutability": "nonpayable",
      "type": "function"
    },
    {
      "inputs": [
        {
          "internalType": "uint256",
          "name": "_id",
          "type": "uint256"
        },
        {
          "internalType": "bool",
          "name": "_isAvailable",
          "type": "bool"
        }
      ],
      "name": "setAvailability",
      "outputs": [],
      "stateMutability": "nonpayable",
      "type": "function"
    },
    {
      "inputs": [
        {
          "internalType": "uint256",
          "name": "_id",
          "type": "uint256"
        },
        {
          "internalType": "address",
          "name": "_renter",
          "type": "address"
        },
        {
          "internalType": "uint256",
          "name": "_rentalStart",
          "type": "uint256"
        },
        {
          "internalType": "uint256",
          "name": "_rentalEnd",
          "type": "uint256"
        }
      ],
      "name": "setRentalDetails",
      "outputs": [],
      "stateMutability": "nonpayable",
      "type": "function"
    },
    {
      "inputs": [
        {
          "internalType": "uint256",
          "name": "_id",
          "type": "uint256"
        }
      ],
      "name": "clearRentalDetails",
      "outputs": [],
      "stateMutability": "nonpayable",
      "type": "function"
    }
  ],
  "bytecode": "0x60806040526000805534801561001457600080fd5b5061176b806100246000396000f3fe608060405234801561001057600080fd5b50600436106100885760003560e01c8063a865bf801161005b578063a865bf80146100ff578063cfd022381461011b578063d1e1deac14610154578063ee5c038c1461017057610088565b80633550d78c1461008d5780635245dc4a146100a9578063807700be146100c55780639a36c1f6146100e1575b600080fd5b6100a760048036038101906100a29190610c44565b6101a9565b005b6100c360048036038101906100be9190610cdb565b61031c565b005b6100df60048036038101906100da9190610d08565b6103ac565b005b6100e96105fc565b6040516100f69190610d9a565b60405180910390f35b61011960048036038101906101149190610ded565b610602565b005b61013560048036038101906101309190610cdb565b610705565b60405161014b9a99989796959493929190610f0b565b60405180910390f35b61016e60048036038101906101699190610fda565b61083b565b005b61018a60048036038101906101859190610cdb565b61091c565b6040516101a09a99989796959493929190610f0b565b60405180910390f35b60006001600087815260200190815260200160002090503373ffffffffffffffffffffffffffffffffffffffff168160010160009054906101000a900473ffffffffffffffffffffffffffffffffffffffff1673ffffffffffffffffffffffffffffffffffffffff1614610252576040517f08c379a0000000000000000000000000000000000000000000000000000000008152600401610249906110b3565b60405180910390fd5b8481600201908161026391906112df565b50838160030181905550828160040160006101000a81548160ff021916908360ff1602179055508181600501819055507f11647ee4ca946211ef121381b40fcddef5bdabc1bdc1e6850d01621cd1800394868260010160009054906101000a900473ffffffffffffffffffffffffffffffffffffffff168360020184600301548560040160009054906101000a900460ff16866005015460405161030c96959493929190611435565b60405180910390a1505050505050565b600060016000838152602001908152602001600020905060008160060160016101000a81548173ffffffffffffffffffffffffffffffffffffffff021916908373ffffffffffffffffffffffffffffffffffffffff160217905550600081600701819055506000816008018190555060018160060160006101000a81548160ff0219169083151502179055505050565b600081116103ef576040517f08c379a00000000000000000000000000000000000000000000000000000000081526004016103e6906114e9565b60405180910390fd5b60008081548092919061040190611538565b919050555060405180610140016040528060005481526020013373ffffffffffffffffffffffffffffffffffffffff1681526020018581526020018481526020018360ff168152602001828152602001600115158152602001600073ffffffffffffffffffffffffffffffffffffffff16815260200160008152602001600081525060016000805481526020019081526020016000206000820151816000015560208201518160010160006101000a81548173ffffffffffffffffffffffffffffffffffffffff021916908373ffffffffffffffffffffffffffffffffffffffff16021790555060408201518160020190816104fd91906112df565b506060820151816003015560808201518160040160006101000a81548160ff021916908360ff16021790555060a0820151816005015560c08201518160060160006101000a81548160ff02191690831515021790555060e08201518160060160016101000a81548173ffffffffffffffffffffffffffffffffffffffff021916908373ffffffffffffffffffffffffffffffffffffffff160217905550610100820151816007015561012082015181600801559050507fe285835cc6742909fe4954ac0cad533e0108307371bd4ba156aae75403107d3c60005433868686866040516105ee96959493929190611580565b60405180910390a150505050565b60005481565b60006001600084815260200190815260200160002090503373ffffffffffffffffffffffffffffffffffffffff168160010160009054906101000a900473ffffffffffffffffffffffffffffffffffffffff1673ffffffffffffffffffffffffffffffffffffffff16146106ab576040517f08c379a00000000000000000000000000000000000000000000000000000000081526004016106a290611680565b60405180910390fd5b818160060160006101000a81548160ff0219169083151502179055507ff0eb65e91b37dd99feccc66e417252ef65c93a7b1f47cf41e09d0cd07cc0d61f83836040516106f89291906116a0565b60405180910390a1505050565b60016020528060005260406000206000915090508060000154908060010160009054906101000a900473ffffffffffffffffffffffffffffffffffffffff169080600201805461075490611102565b80601f016020809104026020016040519081016040528092919081815260200182805461078090611102565b80156107cd5780601f106107a2576101008083540402835291602001916107cd565b820191906000526020600020905b8154815290600101906020018083116107b057829003601f168201915b5050505050908060030154908060040160009054906101000a900460ff16908060050154908060060160009054906101000a900460ff16908060060160019054906101000a900473ffffffffffffffffffffffffffffffffffffffff1690806007015490806008015490508a565b60006001600086815260200190815260200160002090508060060160009054906101000a900460ff166108a3576040517f08c379a000000000000000000000000000000000000000000000000000000000815260040161089a90611715565b60405180910390fd5b838160060160016101000a81548173ffffffffffffffffffffffffffffffffffffffff021916908373ffffffffffffffffffffffffffffffffffffffff16021790555082816007018190555081816008018190555060008160060160006101000a81548160ff0219169083151502179055505050505050565b6000806060600080600080600080600080600160008d8152602001908152602001600020905080600001548160010160009054906101000a900473ffffffffffffffffffffffffffffffffffffffff168260020183600301548460040160009054906101000a900460ff1685600501548660060160009054906101000a900460ff168760060160019054906101000a900473ffffffffffffffffffffffffffffffffffffffff16886007015489600801548780546109d990611102565b80601f0160208091040260200160405190810160405280929190818152602001828054610a0590611102565b8015610a525780601f10610a2757610100808354040283529160200191610a52565b820191906000526020600020905b815481529060010190602001808311610a3557829003601f168201915b505050505097509a509a509a509a509a509a509a509a509a509a50509193959799509193959799565b6000604051905090565b600080fd5b600080fd5b6000819050919050565b610aa281610a8f565b8114610aad57600080fd5b50565b600081359050610abf81610a99565b92915050565b600080fd5b600080fd5b6000601f19601f8301169050919050565b7f4e487b7100000000000000000000000000000000000000000000000000000000600052604160045260246000fd5b610b1882610acf565b810181811067ffffffffffffffff82111715610b3757610b36610ae0565b5b80604052505050565b6000610b4a610a7b565b9050610b568282610b0f565b919050565b600067ffffffffffffffff821115610b7657610b75610ae0565b5b610b7f82610acf565b9050602081019050919050565b82818337600083830152505050565b6000610bae610ba984610b5b565b610b40565b905082815260208101848484011115610bca57610bc9610aca565b5b610bd5848285610b8c565b509392505050565b600082601f830112610bf257610bf1610ac5565b5b8135610c02848260208601610b9b565b91505092915050565b600060ff82169050919050565b610c2181610c0b565b8114610c2c57600080fd5b50565b600081359050610c3e81610c18565b92915050565b600080600080600060a08688031215610c6057610c5f610a85565b5b6000610c6e88828901610ab0565b955050602086013567ffffffffffffffff811115610c8f57610c8e610a8a565b5b610c9b88828901610bdd565b9450506040610cac88828901610ab0565b9350506060610cbd88828901610c2f565b9250506080610cce88828901610ab0565b9150509295509295909350565b600060208284031215610cf157610cf0610a85565b5b6000610cff84828501610ab0565b91505092915050565b60008060008060808587031215610d2257610d21610a85565b5b600085013567ffffffffffffffff811115610d4057610d3f610a8a565b5b610d4c87828801610bdd565b9450506020610d5d87828801610ab0565b9350506040610d6e87828801610c2f565b9250506060610d7f87828801610ab0565b91505092959194509250565b610d9481610a8f565b82525050565b6000602082019050610daf6000830184610d8b565b92915050565b60008115159050919050565b610dca81610db5565b8114610dd557600080fd5b50565b600081359050610de781610dc1565b92915050565b60008060408385031215610e0457610e03610a85565b5b6000610e1285828601610ab0565b9250506020610e2385828601610dd8565b9150509250929050565b600073ffffffffffffffffffffffffffffffffffffffff82169050919050565b6000610e5882610e2d565b9050919050565b610e6881610e4d565b82525050565b600081519050919050565b600082825260208201905092915050565b60005b83811015610ea8578082015181840152602081019050610e8d565b60008484015250505050565b6000610ebf82610e6e565b610ec98185610e79565b9350610ed9818560208601610e8a565b610ee281610acf565b840191505092915050565b610ef681610c0b565b82525050565b610f0581610db5565b82525050565b600061014082019050610f21600083018d610d8b565b610f2e602083018c610e5f565b8181036040830152610f40818b610eb4565b9050610f4f606083018a610d8b565b610f5c6080830189610eed565b610f6960a0830188610d8b565b610f7660c0830187610efc565b610f8360e0830186610e5f565b610f91610100830185610d8b565b610f9f610120830184610d8b565b9b9a5050505050505050505050565b610fb781610e4d565b8114610fc257600080fd5b50565b600081359050610fd481610fae565b92915050565b60008060008060808587031215610ff457610ff3610a85565b5b600061100287828801610ab0565b945050602061101387828801610fc5565b935050604061102487828801610ab0565b925050606061103587828801610ab0565b91505092959194509250565b7f4e6f207469656e6573207065726d69736f732070617261206d6f64696669636160008201527f72206c6f73206461746f732064656c207665686963756c6f2e00000000000000602082015250565b600061109d603983610e79565b91506110a882611041565b604082019050919050565b600060208201905081810360008301526110cc81611090565b9050919050565b7f4e487b7100000000000000000000000000000000000000000000000000000000600052602260045260246000fd5b6000600282049050600182168061111a57607f821691505b60208210810361112d5761112c6110d3565b5b50919050565b60008190508160005260206000209050919050565b60006020601f8301049050919050565b600082821b905092915050565b6000600883026111957fffffffffffffffffffffffffffffffffffffffffffffffffffffffffffffffff82611158565b61119f8683611158565b95508019841693508086168417925050509392505050565b6000819050919050565b60006111dc6111d76111d284610a8f565b6111b7565b610a8f565b9050919050565b6000819050919050565b6111f6836111c1565b61120a611202826111e3565b848454611165565b825550505050565b600090565b61121f611212565b61122a8184846111ed565b505050565b5b8181101561124e57611243600082611217565b600181019050611230565b5050565b601f8211156112935761126481611133565b61126d84611148565b8101602085101561127c578190505b61129061128885611148565b83018261122f565b50505b505050565b600082821c905092915050565b60006112b660001984600802611298565b1980831691505092915050565b60006112cf83836112a5565b9150826002028217905092915050565b6112e882610e6e565b67ffffffffffffffff81111561130157611300610ae0565b5b61130b8254611102565b611316828285611252565b600060209050601f8311600181146113495760008415611337578287015190505b61134185826112c3565b8655506113a9565b601f19841661135786611133565b60005b8281101561137f5784890151825560018201915060208501945060208101905061135a565b8683101561139c5784890151611398601f8916826112a5565b8355505b6001600288020188555050505b505050505050565b600081546113be81611102565b6113c88186610e79565b945060018216600081146113e357600181146113f95761142c565b60ff19831686528115156020028601935061142c565b61140285611133565b60005b8381101561142457815481890152600182019150602081019050611405565b808801955050505b50505092915050565b600060c08201905061144a6000830189610d8b565b6114576020830188610e5f565b818103604083015261146981876113b1565b90506114786060830186610d8b565b6114856080830185610eed565b61149260a0830184610d8b565b979650505050505050565b7f4c61206175746f6e6f6d6961206465626520736572206d61796f72206120302e600082015250565b60006114d3602083610e79565b91506114de8261149d565b602082019050919050565b60006020820190508181036000830152611502816114c6565b9050919050565b7f4e487b7100000000000000000000000000000000000000000000000000000000600052601160045260246000fd5b600061154382610a8f565b91507fffffffffffffffffffffffffffffffffffffffffffffffffffffffffffffffff820361157557611574611509565b5b600182019050919050565b600060c0820190506115956000830189610d8b565b6115a26020830188610e5f565b81810360408301526115b48187610eb4565b90506115c36060830186610d8b565b6115d06080830185610eed565b6115dd60a0830184610d8b565b979650505050505050565b7f4e6f207469656e6573207065726d69736f732070617261206d6f64696669636160008201527f72206c6120646973706f6e6962696c696461642064656c207665686963756c6f60208201527f2e00000000000000000000000000000000000000000000000000000000000000604082015250565b600061166a604183610e79565b9150611675826115e8565b606082019050919050565b600060208201905081810360008301526116998161165d565b9050919050565b60006040820190506116b56000830185610d8b565b6116c26020830184610efc565b9392505050565b7f456c20636f636865206e6f206573746120646973706f6e69626c652e00000000600082015250565b60006116ff601c83610e79565b915061170a826116c9565b602082019050919050565b6000602082019050818103600083015261172e816116f2565b905091905056fea2646970667358221220cfadce6f320e9eeddff8b0d9e7d70485aa4362df27d8610bd3eeca15af226d3b64736f6c63430008130033",
  "immutableReferences": {},
  "source": "// SPDX-License-Identifier: MIT\npragma solidity ^0.8.19;\n\ncontract AutonomousCarManager {\n    struct AutonomousCar {\n        uint id;\n        address owner;\n        string model;\n        uint256 rentalPrice;\n        uint8 seats;\n        uint256 autonomy;\n        bool isAvailable;\n        address renter;\n        uint256 rentalStart;\n        uint256 rentalEnd;\n    }\n\n    uint public autonomousCarCount = 0;\n    mapping(uint => AutonomousCar) public autonomousCars;\n\n    event AutonomousCarAdded(uint id, address owner, string model, uint256 rentalPrice, uint8 seats, uint256 autonomy);\n    event AutonomousCarUpdated(uint id, address owner, string model, uint256 rentalPrice, uint8 seats, uint256 autonomy);\n    event AutonomousCarAvailabilityChanged(uint id, bool isAvailable);\n\n    function addAutonomousCar(string memory _model, uint256 _rentalPrice, uint8 _seats, uint256 _autonomy) public {\n        require(_autonomy > 0, \"La autonomia debe ser mayor a 0.\"); // Verificamos que se trata de un coche autonomo\n        autonomousCarCount++;\n        autonomousCars[autonomousCarCount] = AutonomousCar({\n            id: autonomousCarCount,\n            owner: msg.sender,\n            model: _model,\n            rentalPrice: _rentalPrice,\n            seats: _seats,\n            autonomy: _autonomy,\n            isAvailable: true,\n            renter: address(0),\n            rentalStart: 0,\n            rentalEnd: 0\n        });\n        emit AutonomousCarAdded(autonomousCarCount, msg.sender, _model, _rentalPrice, _seats, _autonomy);\n    }\n\n    function getAutonomousCar(uint _id) public view returns (uint, address, string memory, uint256, uint8, uint256, bool, address, uint256, uint256) {\n        AutonomousCar storage car = autonomousCars[_id];\n        return (\n            car.id, \n            car.owner, \n            car.model, \n            car.rentalPrice, \n            car.seats, \n            car.autonomy, \n            car.isAvailable, \n            car.renter, \n            car.rentalStart, \n            car.rentalEnd\n        );\n    }\n\n    function updateAutonomousCar(uint _id, string memory _model, uint256 _rentalPrice, uint8 _seats, uint256 _autonomy) public {\n        AutonomousCar storage car = autonomousCars[_id];\n        require(car.owner == msg.sender, \"No tienes permisos para modificar los datos del vehiculo.\");\n\n        car.model = _model;\n        car.rentalPrice = _rentalPrice;\n        car.seats = _seats;\n        car.autonomy = _autonomy;\n\n        emit AutonomousCarUpdated(_id, car.owner, car.model, car.rentalPrice, car.seats, car.autonomy);\n    }\n\n    function setAvailability(uint _id, bool _isAvailable) external {\n        AutonomousCar storage car = autonomousCars[_id];\n        require(car.owner == msg.sender, \"No tienes permisos para modificar la disponibilidad del vehiculo.\");\n        \n        car.isAvailable = _isAvailable;\n\n        emit AutonomousCarAvailabilityChanged(_id, _isAvailable);\n    }\n\n    function setRentalDetails(uint _id, address _renter, uint256 _rentalStart, uint256 _rentalEnd) external {\n        AutonomousCar storage car = autonomousCars[_id];\n        require(car.isAvailable, \"El coche no esta disponible.\");\n\n        car.renter = _renter;\n        car.rentalStart = _rentalStart;\n        car.rentalEnd = _rentalEnd;\n        car.isAvailable = false;\n    }\n\n    function clearRentalDetails(uint _id) external {\n        AutonomousCar storage car = autonomousCars[_id];\n\n        car.renter = address(0);\n        car.rentalStart = 0;\n        car.rentalEnd = 0;\n        car.isAvailable = true;\n    }\n}\n",
  "sourcePath": "/home/tote/master/tfm/contracts/AutonomousCarManager.sol",
  "compiler": {
    "name": "solc",
    "version": "0.8.19+commit.7dd6d404.Emscripten.clang"
  },
  "schemaVersion": "3.4.16",
  "updatedAt": "2024-05-19T01:24:54.029Z",
  "networkType": "ethereum",
  "devdoc": {
    "kind": "dev",
    "methods": {},
    "version": 1
  },
  "userdoc": {
    "kind": "user",
    "methods": {},
    "version": 1
  }
}