{
  "contractName": "AutonomousCarRegistry",
  "abi": [
    {
      "inputs": [
        {
          "internalType": "string",
          "name": "_model",
          "type": "string"
        },
        {
          "internalType": "string",
          "name": "_plate",
          "type": "string"
        },
        {
          "internalType": "uint32",
          "name": "_autonomy",
          "type": "uint32"
        },
        {
          "internalType": "uint256",
          "name": "_price",
          "type": "uint256"
        }
      ],
      "name": "registerCar",
      "outputs": [],
      "stateMutability": "nonpayable",
      "type": "function"
    },
    {
      "inputs": [
        {
          "internalType": "string",
          "name": "_plate",
          "type": "string"
        }
      ],
      "name": "getCar",
      "outputs": [
        {
          "internalType": "string",
          "name": "",
          "type": "string"
        },
        {
          "internalType": "string",
          "name": "",
          "type": "string"
        },
        {
          "internalType": "uint32",
          "name": "",
          "type": "uint32"
        },
        {
          "internalType": "uint256",
          "name": "",
          "type": "uint256"
        },
        {
          "internalType": "bool",
          "name": "",
          "type": "bool"
        },
        {
          "internalType": "address",
          "name": "",
          "type": "address"
        }
      ],
      "stateMutability": "view",
      "type": "function",
      "constant": true
    },
    {
      "inputs": [],
      "name": "getAvailableCars",
      "outputs": [
        {
          "internalType": "string[]",
          "name": "",
          "type": "string[]"
        }
      ],
      "stateMutability": "view",
      "type": "function",
      "constant": true
    }
  ],
  "bytecode": "0x608060405234801561001057600080fd5b50611339806100206000396000f3fe608060405234801561001057600080fd5b50600436106100415760003560e01c8063433b804614610046578063479487e3146100645780636f4d118114610099575b600080fd5b61004e6100b5565b60405161005b9190610930565b60405180910390f35b61007e60048036038101906100799190610a9b565b61030b565b60405161009096959493929190610bc2565b60405180910390f35b6100b360048036038101906100ae9190610c89565b610603565b005b6060600060018054905067ffffffffffffffff8111156100d8576100d7610970565b5b60405190808252806020026020018201604052801561010b57816020015b60608152602001906001900390816100f65790505b5090506000805b6001805490508110156102575760006001828154811061013557610134610d28565b5b9060005260206000200160405161014c9190610e5a565b908152602001604051809103902060040160009054906101000a900460ff1615610244576001818154811061018457610183610d28565b5b90600052602060002001805461019990610d86565b80601f01602080910402602001604051908101604052809291908181526020018280546101c590610d86565b80156102125780601f106101e757610100808354040283529160200191610212565b820191906000526020600020905b8154815290600101906020018083116101f557829003601f168201915b505050505083838151811061022a57610229610d28565b5b6020026020010181905250818061024090610ea0565b9250505b808061024f90610ea0565b915050610112565b5060008167ffffffffffffffff81111561027457610273610970565b5b6040519080825280602002602001820160405280156102a757816020015b60608152602001906001900390816102925790505b50905060005b82811015610301578381815181106102c8576102c7610d28565b5b60200260200101518282815181106102e3576102e2610d28565b5b602002602001018190525080806102f990610ea0565b9150506102ad565b5080935050505090565b606080600080600080600080886040516103259190610f19565b90815260200160405180910390206040518060c001604052908160008201805461034e90610d86565b80601f016020809104026020016040519081016040528092919081815260200182805461037a90610d86565b80156103c75780601f1061039c576101008083540402835291602001916103c7565b820191906000526020600020905b8154815290600101906020018083116103aa57829003601f168201915b505050505081526020016001820180546103e090610d86565b80601f016020809104026020016040519081016040528092919081815260200182805461040c90610d86565b80156104595780601f1061042e57610100808354040283529160200191610459565b820191906000526020600020905b81548152906001019060200180831161043c57829003601f168201915b505050505081526020016002820160009054906101000a900463ffffffff1663ffffffff1663ffffffff168152602001600382015481526020016004820160009054906101000a900460ff161515151581526020016004820160019054906101000a900473ffffffffffffffffffffffffffffffffffffffff1673ffffffffffffffffffffffffffffffffffffffff1673ffffffffffffffffffffffffffffffffffffffff1681525050905060008160200151510361054d576040517f08c379a000000000000000000000000000000000000000000000000000000000815260040161054490610f7c565b60405180910390fd5b3373ffffffffffffffffffffffffffffffffffffffff168160a0015173ffffffffffffffffffffffffffffffffffffffff161415801561058f57508060800151155b156105cf576040517f08c379a00000000000000000000000000000000000000000000000000000000081526004016105c690610fe8565b60405180910390fd5b806000015181602001518260400151836060015184608001518560a001519650965096509650965096505091939550919395565b600080846040516106149190610f19565b9081526020016040518091039020600101805461063090610d86565b905014610672576040517f08c379a00000000000000000000000000000000000000000000000000000000081526004016106699061107a565b60405180910390fd5b6040518060c001604052808581526020018481526020018363ffffffff1681526020018281526020016001151581526020013373ffffffffffffffffffffffffffffffffffffffff168152506000846040516106ce9190610f19565b908152602001604051809103902060008201518160000190816106f19190611231565b5060208201518160010190816107079190611231565b5060408201518160020160006101000a81548163ffffffff021916908363ffffffff1602179055506060820151816003015560808201518160040160006101000a81548160ff02191690831515021790555060a08201518160040160016101000a81548173ffffffffffffffffffffffffffffffffffffffff021916908373ffffffffffffffffffffffffffffffffffffffff1602179055509050506001839080600181540180825580915050600190039060005260206000200160009091909190915090816107d79190611231565b5050505050565b600081519050919050565b600082825260208201905092915050565b6000819050602082019050919050565b600081519050919050565b600082825260208201905092915050565b60005b83811015610844578082015181840152602081019050610829565b60008484015250505050565b6000601f19601f8301169050919050565b600061086c8261080a565b6108768185610815565b9350610886818560208601610826565b61088f81610850565b840191505092915050565b60006108a68383610861565b905092915050565b6000602082019050919050565b60006108c6826107de565b6108d081856107e9565b9350836020820285016108e2856107fa565b8060005b8581101561091e57848403895281516108ff858261089a565b945061090a836108ae565b925060208a019950506001810190506108e6565b50829750879550505050505092915050565b6000602082019050818103600083015261094a81846108bb565b905092915050565b6000604051905090565b600080fd5b600080fd5b600080fd5b600080fd5b7f4e487b7100000000000000000000000000000000000000000000000000000000600052604160045260246000fd5b6109a882610850565b810181811067ffffffffffffffff821117156109c7576109c6610970565b5b80604052505050565b60006109da610952565b90506109e6828261099f565b919050565b600067ffffffffffffffff821115610a0657610a05610970565b5b610a0f82610850565b9050602081019050919050565b82818337600083830152505050565b6000610a3e610a39846109eb565b6109d0565b905082815260208101848484011115610a5a57610a5961096b565b5b610a65848285610a1c565b509392505050565b600082601f830112610a8257610a81610966565b5b8135610a92848260208601610a2b565b91505092915050565b600060208284031215610ab157610ab061095c565b5b600082013567ffffffffffffffff811115610acf57610ace610961565b5b610adb84828501610a6d565b91505092915050565b600082825260208201905092915050565b6000610b008261080a565b610b0a8185610ae4565b9350610b1a818560208601610826565b610b2381610850565b840191505092915050565b600063ffffffff82169050919050565b610b4781610b2e565b82525050565b6000819050919050565b610b6081610b4d565b82525050565b60008115159050919050565b610b7b81610b66565b82525050565b600073ffffffffffffffffffffffffffffffffffffffff82169050919050565b6000610bac82610b81565b9050919050565b610bbc81610ba1565b82525050565b600060c0820190508181036000830152610bdc8189610af5565b90508181036020830152610bf08188610af5565b9050610bff6040830187610b3e565b610c0c6060830186610b57565b610c196080830185610b72565b610c2660a0830184610bb3565b979650505050505050565b610c3a81610b2e565b8114610c4557600080fd5b50565b600081359050610c5781610c31565b92915050565b610c6681610b4d565b8114610c7157600080fd5b50565b600081359050610c8381610c5d565b92915050565b60008060008060808587031215610ca357610ca261095c565b5b600085013567ffffffffffffffff811115610cc157610cc0610961565b5b610ccd87828801610a6d565b945050602085013567ffffffffffffffff811115610cee57610ced610961565b5b610cfa87828801610a6d565b9350506040610d0b87828801610c48565b9250506060610d1c87828801610c74565b91505092959194509250565b7f4e487b7100000000000000000000000000000000000000000000000000000000600052603260045260246000fd5b7f4e487b7100000000000000000000000000000000000000000000000000000000600052602260045260246000fd5b60006002820490506001821680610d9e57607f821691505b602082108103610db157610db0610d57565b5b50919050565b600081905092915050565b60008190508160005260206000209050919050565b60008154610de481610d86565b610dee8186610db7565b94506001821660008114610e095760018114610e1e57610e51565b60ff1983168652811515820286019350610e51565b610e2785610dc2565b60005b83811015610e4957815481890152600182019150602081019050610e2a565b838801955050505b50505092915050565b6000610e668284610dd7565b915081905092915050565b7f4e487b7100000000000000000000000000000000000000000000000000000000600052601160045260246000fd5b6000610eab82610b4d565b91507fffffffffffffffffffffffffffffffffffffffffffffffffffffffffffffffff8203610edd57610edc610e71565b5b600182019050919050565b6000610ef38261080a565b610efd8185610db7565b9350610f0d818560208601610826565b80840191505092915050565b6000610f258284610ee8565b915081905092915050565b7f4175746f6e6f6d6f757320636172206e6f742072656769737465726564000000600082015250565b6000610f66601d83610ae4565b9150610f7182610f30565b602082019050919050565b60006020820190508181036000830152610f9581610f59565b9050919050565b7f4175746f6e6f6d6f757320636172206e6f7420617661696c61626c6500000000600082015250565b6000610fd2601c83610ae4565b9150610fdd82610f9c565b602082019050919050565b6000602082019050818103600083015261100181610fc5565b9050919050565b7f4175746f6e6f6d6f75732063617220616c72656164792072656769737465726560008201527f6400000000000000000000000000000000000000000000000000000000000000602082015250565b6000611064602183610ae4565b915061106f82611008565b604082019050919050565b6000602082019050818103600083015261109381611057565b9050919050565b60006020601f8301049050919050565b600082821b905092915050565b6000600883026110e77fffffffffffffffffffffffffffffffffffffffffffffffffffffffffffffffff826110aa565b6110f186836110aa565b95508019841693508086168417925050509392505050565b6000819050919050565b600061112e61112961112484610b4d565b611109565b610b4d565b9050919050565b6000819050919050565b61114883611113565b61115c61115482611135565b8484546110b7565b825550505050565b600090565b611171611164565b61117c81848461113f565b505050565b5b818110156111a057611195600082611169565b600181019050611182565b5050565b601f8211156111e5576111b681610dc2565b6111bf8461109a565b810160208510156111ce578190505b6111e26111da8561109a565b830182611181565b50505b505050565b600082821c905092915050565b6000611208600019846008026111ea565b1980831691505092915050565b600061122183836111f7565b9150826002028217905092915050565b61123a8261080a565b67ffffffffffffffff81111561125357611252610970565b5b61125d8254610d86565b6112688282856111a4565b600060209050601f83116001811461129b5760008415611289578287015190505b6112938582611215565b8655506112fb565b601f1984166112a986610dc2565b60005b828110156112d1578489015182556001820191506020850194506020810190506112ac565b868310156112ee57848901516112ea601f8916826111f7565b8355505b6001600288020188555050505b50505050505056fea2646970667358221220bf10b4269895c87fa9047a9fafab437ef4afbc272d02aa7fea94cc4acbdd623264736f6c63430008130033",
  "immutableReferences": {},
  "source": "// SPDX-License-Identifier: MIT \npragma solidity ^0.8.19;\n\ncontract AutonomousCarRegistry {\n\n    struct AutonomousCar {\n        string model;\n        string plate;\n        uint32 autonomy;\n        uint256 price;\n        bool available;\n        address owner;\n    }\n\n    mapping(string => AutonomousCar) private cars;\n    string[] private allPlates;\n\n    function registerCar(string memory _model, string memory _plate,  uint32 _autonomy, uint256 _price) public {\n        require(bytes(cars[_plate].plate).length == 0, \"Autonomous car already registered\");\n\n        cars[_plate] = AutonomousCar({\n            model: _model, \n            plate: _plate,\n            autonomy: _autonomy,\n            price: _price,\n            available: true,\n            owner: msg.sender\n        });\n        allPlates.push(_plate);\n    }\n\n    function getCar(string memory _plate) public view returns (string memory, string memory, uint32, uint256, bool, address) {\n        AutonomousCar memory car = cars[_plate];\n\n        require(bytes(car.plate).length != 0, \"Autonomous car not registered\");\n\n        // El nico que puede ver un coche cuando no est disponible es el dueo\n        if (car.owner != msg.sender && !car.available) {\n            revert(\"Autonomous car not available\");\n        }\n\n        return (car.model, car.plate, car.autonomy, car.price, car.available, car.owner);\n    }\n\n    function getAvailableCars() public view returns (string[] memory) {\n        string[] memory availablePlates = new string[](allPlates.length);\n        uint counter = 0;\n\n        // Filtramos las matriculas de los coches que estn disponibles\n        for (uint i = 0; i < allPlates.length; i++) {\n            if (cars[allPlates[i]].available) {\n                availablePlates[counter] = allPlates[i];\n                counter++;\n            }\n        }\n\n        // Redimensionamos el array de resultados\n        string[] memory filteredPlates = new string[](counter);\n        for (uint i = 0; i < counter; i++) {\n            filteredPlates[i] = availablePlates[i];\n        }\n\n        return filteredPlates;\n    }\n\n}\n",
  "sourcePath": "/home/tote/master/tfm/contracts/AutonomousCarRegistry.sol",
  "compiler": {
    "name": "solc",
    "version": "0.8.19+commit.7dd6d404.Emscripten.clang"
  },
  "schemaVersion": "3.4.16",
  "updatedAt": "2024-06-03T21:24:33.609Z",
  "networkType": "ethereum",
  "devdoc": {
    "kind": "dev",
    "methods": {},
    "version": 1
  },
  "userdoc": {
    "kind": "user",
    "methods": {},
    "version": 1
  }
}