{
  "contractName": "CarRentalContract",
  "abi": [
    {
      "inputs": [
        {
          "internalType": "address",
          "name": "_carRegistryAddress",
          "type": "address"
        }
      ],
      "stateMutability": "nonpayable",
      "type": "constructor"
    },
    {
      "inputs": [],
      "name": "carRegistryAddress",
      "outputs": [
        {
          "internalType": "address",
          "name": "",
          "type": "address"
        }
      ],
      "stateMutability": "view",
      "type": "function",
      "constant": true
    },
    {
      "inputs": [
        {
          "internalType": "string",
          "name": "",
          "type": "string"
        }
      ],
      "name": "rentals",
      "outputs": [
        {
          "internalType": "string",
          "name": "plate",
          "type": "string"
        },
        {
          "internalType": "uint256",
          "name": "price",
          "type": "uint256"
        },
        {
          "internalType": "uint256",
          "name": "pricePerDay",
          "type": "uint256"
        },
        {
          "internalType": "uint256",
          "name": "funds",
          "type": "uint256"
        },
        {
          "internalType": "uint256",
          "name": "charges",
          "type": "uint256"
        },
        {
          "internalType": "string",
          "name": "phone",
          "type": "string"
        },
        {
          "internalType": "address",
          "name": "owner",
          "type": "address"
        },
        {
          "internalType": "address",
          "name": "client",
          "type": "address"
        }
      ],
      "stateMutability": "view",
      "type": "function",
      "constant": true
    },
    {
      "inputs": [
        {
          "internalType": "string",
          "name": "_plate",
          "type": "string"
        },
        {
          "internalType": "uint256",
          "name": "_price",
          "type": "uint256"
        },
        {
          "internalType": "uint256",
          "name": "_pricePerDay",
          "type": "uint256"
        },
        {
          "internalType": "string",
          "name": "_phone",
          "type": "string"
        },
        {
          "internalType": "address",
          "name": "_owner",
          "type": "address"
        }
      ],
      "name": "createRental",
      "outputs": [],
      "stateMutability": "payable",
      "type": "function",
      "payable": true
    },
    {
      "inputs": [
        {
          "internalType": "string",
          "name": "_plate",
          "type": "string"
        }
      ],
      "name": "getRental",
      "outputs": [
        {
          "internalType": "string",
          "name": "",
          "type": "string"
        },
        {
          "internalType": "uint256",
          "name": "",
          "type": "uint256"
        },
        {
          "internalType": "uint256",
          "name": "",
          "type": "uint256"
        },
        {
          "internalType": "uint256",
          "name": "",
          "type": "uint256"
        },
        {
          "internalType": "uint256",
          "name": "",
          "type": "uint256"
        },
        {
          "internalType": "string",
          "name": "",
          "type": "string"
        },
        {
          "internalType": "address",
          "name": "",
          "type": "address"
        },
        {
          "internalType": "address",
          "name": "",
          "type": "address"
        }
      ],
      "stateMutability": "view",
      "type": "function",
      "constant": true
    },
    {
      "inputs": [
        {
          "internalType": "address",
          "name": "_client",
          "type": "address"
        }
      ],
      "name": "getClientRentalCarPlates",
      "outputs": [
        {
          "internalType": "string[]",
          "name": "",
          "type": "string[]"
        }
      ],
      "stateMutability": "view",
      "type": "function",
      "constant": true
    },
    {
      "inputs": [
        {
          "internalType": "string",
          "name": "_plate",
          "type": "string"
        }
      ],
      "name": "deleteRental",
      "outputs": [],
      "stateMutability": "nonpayable",
      "type": "function"
    }
  ],
  "bytecode": "0x60806040523480156200001157600080fd5b5060405162001e1c38038062001e1c8339818101604052810190620000379190620000e9565b80600260006101000a81548173ffffffffffffffffffffffffffffffffffffffff021916908373ffffffffffffffffffffffffffffffffffffffff160217905550506200011b565b600080fd5b600073ffffffffffffffffffffffffffffffffffffffff82169050919050565b6000620000b18262000084565b9050919050565b620000c381620000a4565b8114620000cf57600080fd5b50565b600081519050620000e381620000b8565b92915050565b6000602082840312156200010257620001016200007f565b5b60006200011284828501620000d2565b91505092915050565b611cf1806200012b6000396000f3fe6080604052600436106100555760003560e01c806306d05b161461005a5780632e543a9f1461009e57806331c5c6f8146100c9578063a364d90b14610106578063d3b5cf611461014a578063ee45c10f14610173575b600080fd5b34801561006657600080fd5b50610081600480360381019061007c919061108d565b61018f565b6040516100959897969594939291906111af565b60405180910390f35b3480156100aa57600080fd5b506100b361033d565b6040516100c0919061123b565b60405180910390f35b3480156100d557600080fd5b506100f060048036038101906100eb9190611282565b610363565b6040516100fd91906113bb565b60405180910390f35b34801561011257600080fd5b5061012d6004803603810190610128919061108d565b61047b565b6040516101419897969594939291906111af565b60405180910390f35b34801561015657600080fd5b50610171600480360381019061016c919061108d565b610739565b005b61018d60048036038101906101889190611409565b610b6e565b005b6000818051602081018201805184825260208301602085012081835280955050505050506000915090508060000180546101c8906114eb565b80601f01602080910402602001604051908101604052809291908181526020018280546101f4906114eb565b80156102415780601f1061021657610100808354040283529160200191610241565b820191906000526020600020905b81548152906001019060200180831161022457829003601f168201915b50505050509080600101549080600201549080600301549080600401549080600501805461026e906114eb565b80601f016020809104026020016040519081016040528092919081815260200182805461029a906114eb565b80156102e75780601f106102bc576101008083540402835291602001916102e7565b820191906000526020600020905b8154815290600101906020018083116102ca57829003601f168201915b5050505050908060060160009054906101000a900473ffffffffffffffffffffffffffffffffffffffff16908060070160009054906101000a900473ffffffffffffffffffffffffffffffffffffffff16905088565b600260009054906101000a900473ffffffffffffffffffffffffffffffffffffffff1681565b6060600160008373ffffffffffffffffffffffffffffffffffffffff1673ffffffffffffffffffffffffffffffffffffffff168152602001908152602001600020805480602002602001604051908101604052809291908181526020016000905b828210156104705783829060005260206000200180546103e3906114eb565b80601f016020809104026020016040519081016040528092919081815260200182805461040f906114eb565b801561045c5780601f106104315761010080835404028352916020019161045c565b820191906000526020600020905b81548152906001019060200180831161043f57829003601f168201915b5050505050815260200190600101906103c4565b505050509050919050565b606060008060008060606000806000808a6040516104999190611558565b9081526020016040518091039020604051806101000160405290816000820180546104c3906114eb565b80601f01602080910402602001604051908101604052809291908181526020018280546104ef906114eb565b801561053c5780601f106105115761010080835404028352916020019161053c565b820191906000526020600020905b81548152906001019060200180831161051f57829003601f168201915b505050505081526020016001820154815260200160028201548152602001600382015481526020016004820154815260200160058201805461057d906114eb565b80601f01602080910402602001604051908101604052809291908181526020018280546105a9906114eb565b80156105f65780601f106105cb576101008083540402835291602001916105f6565b820191906000526020600020905b8154815290600101906020018083116105d957829003601f168201915b505050505081526020016006820160009054906101000a900473ffffffffffffffffffffffffffffffffffffffff1673ffffffffffffffffffffffffffffffffffffffff1673ffffffffffffffffffffffffffffffffffffffff1681526020016007820160009054906101000a900473ffffffffffffffffffffffffffffffffffffffff1673ffffffffffffffffffffffffffffffffffffffff1673ffffffffffffffffffffffffffffffffffffffff168152505090506000816000015151036106f5576040517f08c379a00000000000000000000000000000000000000000000000000000000081526004016106ec906115bb565b60405180910390fd5b806000015181602001518260400151836060015184608001518560a001518660c001518760e001519850985098509850985098509850985050919395975091939597565b6000808260405161074a9190611558565b90815260200160405180910390209050600073ffffffffffffffffffffffffffffffffffffffff168160060160009054906101000a900473ffffffffffffffffffffffffffffffffffffffff1673ffffffffffffffffffffffffffffffffffffffff16036107ed576040517f08c379a00000000000000000000000000000000000000000000000000000000081526004016107e490611627565b60405180910390fd5b8060070160009054906101000a900473ffffffffffffffffffffffffffffffffffffffff1673ffffffffffffffffffffffffffffffffffffffff163373ffffffffffffffffffffffffffffffffffffffff16148061089a57508060060160009054906101000a900473ffffffffffffffffffffffffffffffffffffffff1673ffffffffffffffffffffffffffffffffffffffff163373ffffffffffffffffffffffffffffffffffffffff16145b6108d9576040517f08c379a00000000000000000000000000000000000000000000000000000000081526004016108d090611693565b60405180910390fd5b6000600160008360070160009054906101000a900473ffffffffffffffffffffffffffffffffffffffff1673ffffffffffffffffffffffffffffffffffffffff1673ffffffffffffffffffffffffffffffffffffffff168152602001908152602001600020905060005b8180549050811015610a2c57838051906020012082828154811061096a576109696116b3565b5b906000526020600020016040516109819190611785565b604051809103902003610a195781600183805490506109a091906117cb565b815481106109b1576109b06116b3565b5b906000526020600020018282815481106109ce576109cd6116b3565b5b9060005260206000200190816109e491906119d6565b50818054806109f6576109f5611abe565b5b600190038181906000526020600020016000610a129190610ed6565b9055610a2c565b8080610a2490611aed565b915050610943565b50600260009054906101000a900473ffffffffffffffffffffffffffffffffffffffff1673ffffffffffffffffffffffffffffffffffffffff16635ede7297846040518263ffffffff1660e01b8152600401610a889190611b35565b600060405180830381600087803b158015610aa257600080fd5b505af1158015610ab6573d6000803e3d6000fd5b50505050600083604051610aca9190611558565b908152602001604051809103902060008082016000610ae99190610ed6565b6001820160009055600282016000905560038201600090556004820160009055600582016000610b199190610ed6565b6006820160006101000a81549073ffffffffffffffffffffffffffffffffffffffff02191690556007820160006101000a81549073ffffffffffffffffffffffffffffffffffffffff02191690555050505050565b600073ffffffffffffffffffffffffffffffffffffffff16600086604051610b969190611558565b908152602001604051809103902060060160009054906101000a900473ffffffffffffffffffffffffffffffffffffffff1673ffffffffffffffffffffffffffffffffffffffff1614610c1e576040517f08c379a0000000000000000000000000000000000000000000000000000000008152600401610c1590611bc9565b60405180910390fd5b60405180610100016040528086815260200185815260200184815260200160008152602001600081526020018381526020018273ffffffffffffffffffffffffffffffffffffffff1681526020013373ffffffffffffffffffffffffffffffffffffffff16815250600086604051610c969190611558565b90815260200160405180910390206000820151816000019081610cb99190611be9565b506020820151816001015560408201518160020155606082015181600301556080820151816004015560a0820151816005019081610cf79190611be9565b5060c08201518160060160006101000a81548173ffffffffffffffffffffffffffffffffffffffff021916908373ffffffffffffffffffffffffffffffffffffffff16021790555060e08201518160070160006101000a81548173ffffffffffffffffffffffffffffffffffffffff021916908373ffffffffffffffffffffffffffffffffffffffff160217905550905050600160003373ffffffffffffffffffffffffffffffffffffffff1673ffffffffffffffffffffffffffffffffffffffff16815260200190815260200160002085908060018154018082558091505060019003906000526020600020016000909190919091509081610dfa9190611be9565b508073ffffffffffffffffffffffffffffffffffffffff166108fc349081150290604051600060405180830381858888f19350505050158015610e41573d6000803e3d6000fd5b50600260009054906101000a900473ffffffffffffffffffffffffffffffffffffffff1673ffffffffffffffffffffffffffffffffffffffff16635ede7297866040518263ffffffff1660e01b8152600401610e9d9190611b35565b600060405180830381600087803b158015610eb757600080fd5b505af1158015610ecb573d6000803e3d6000fd5b505050505050505050565b508054610ee2906114eb565b6000825580601f10610ef45750610f13565b601f016020900490600052602060002090810190610f129190610f16565b5b50565b5b80821115610f2f576000816000905550600101610f17565b5090565b6000604051905090565b600080fd5b600080fd5b600080fd5b600080fd5b6000601f19601f8301169050919050565b7f4e487b7100000000000000000000000000000000000000000000000000000000600052604160045260246000fd5b610f9a82610f51565b810181811067ffffffffffffffff82111715610fb957610fb8610f62565b5b80604052505050565b6000610fcc610f33565b9050610fd88282610f91565b919050565b600067ffffffffffffffff821115610ff857610ff7610f62565b5b61100182610f51565b9050602081019050919050565b82818337600083830152505050565b600061103061102b84610fdd565b610fc2565b90508281526020810184848401111561104c5761104b610f4c565b5b61105784828561100e565b509392505050565b600082601f83011261107457611073610f47565b5b813561108484826020860161101d565b91505092915050565b6000602082840312156110a3576110a2610f3d565b5b600082013567ffffffffffffffff8111156110c1576110c0610f42565b5b6110cd8482850161105f565b91505092915050565b600081519050919050565b600082825260208201905092915050565b60005b838110156111105780820151818401526020810190506110f5565b60008484015250505050565b6000611127826110d6565b61113181856110e1565b93506111418185602086016110f2565b61114a81610f51565b840191505092915050565b6000819050919050565b61116881611155565b82525050565b600073ffffffffffffffffffffffffffffffffffffffff82169050919050565b60006111998261116e565b9050919050565b6111a98161118e565b82525050565b60006101008201905081810360008301526111ca818b61111c565b90506111d9602083018a61115f565b6111e6604083018961115f565b6111f3606083018861115f565b611200608083018761115f565b81810360a0830152611212818661111c565b905061122160c08301856111a0565b61122e60e08301846111a0565b9998505050505050505050565b600060208201905061125060008301846111a0565b92915050565b61125f8161118e565b811461126a57600080fd5b50565b60008135905061127c81611256565b92915050565b60006020828403121561129857611297610f3d565b5b60006112a68482850161126d565b91505092915050565b600081519050919050565b600082825260208201905092915050565b6000819050602082019050919050565b600082825260208201905092915050565b60006112f7826110d6565b61130181856112db565b93506113118185602086016110f2565b61131a81610f51565b840191505092915050565b600061133183836112ec565b905092915050565b6000602082019050919050565b6000611351826112af565b61135b81856112ba565b93508360208202850161136d856112cb565b8060005b858110156113a9578484038952815161138a8582611325565b945061139583611339565b925060208a01995050600181019050611371565b50829750879550505050505092915050565b600060208201905081810360008301526113d58184611346565b905092915050565b6113e681611155565b81146113f157600080fd5b50565b600081359050611403816113dd565b92915050565b600080600080600060a0868803121561142557611424610f3d565b5b600086013567ffffffffffffffff81111561144357611442610f42565b5b61144f8882890161105f565b9550506020611460888289016113f4565b9450506040611471888289016113f4565b935050606086013567ffffffffffffffff81111561149257611491610f42565b5b61149e8882890161105f565b92505060806114af8882890161126d565b9150509295509295909350565b7f4e487b7100000000000000000000000000000000000000000000000000000000600052602260045260246000fd5b6000600282049050600182168061150357607f821691505b602082108103611516576115156114bc565b5b50919050565b600081905092915050565b6000611532826110d6565b61153c818561151c565b935061154c8185602086016110f2565b80840191505092915050565b60006115648284611527565b915081905092915050565b7f52656e74616c20636f6e7472616374206e6f7420726567697374657265640000600082015250565b60006115a5601e836110e1565b91506115b08261156f565b602082019050919050565b600060208201905081810360008301526115d481611598565b9050919050565b7f52656e74616c20636f6e747261637420646f6573206e6f742065786973740000600082015250565b6000611611601e836110e1565b915061161c826115db565b602082019050919050565b6000602082019050818103600083015261164081611604565b9050919050565b7f556e617574686f72697a65640000000000000000000000000000000000000000600082015250565b600061167d600c836110e1565b915061168882611647565b602082019050919050565b600060208201905081810360008301526116ac81611670565b9050919050565b7f4e487b7100000000000000000000000000000000000000000000000000000000600052603260045260246000fd5b600081905092915050565b60008190508160005260206000209050919050565b6000815461170f816114eb565b61171981866116e2565b9450600182166000811461173457600181146117495761177c565b60ff198316865281151582028601935061177c565b611752856116ed565b60005b8381101561177457815481890152600182019150602081019050611755565b838801955050505b50505092915050565b60006117918284611702565b915081905092915050565b7f4e487b7100000000000000000000000000000000000000000000000000000000600052601160045260246000fd5b60006117d682611155565b91506117e183611155565b92508282039050818111156117f9576117f861179c565b5b92915050565b60008154905061180e816114eb565b9050919050565b60008190508160005260206000209050919050565b60008190508160005260206000209050919050565b60006020601f8301049050919050565b600082821b905092915050565b60006008830261188c7fffffffffffffffffffffffffffffffffffffffffffffffffffffffffffffffff8261184f565b611896868361184f565b95508019841693508086168417925050509392505050565b6000819050919050565b60006118d36118ce6118c984611155565b6118ae565b611155565b9050919050565b6000819050919050565b6118ed836118b8565b6119016118f9826118da565b84845461185c565b825550505050565b600090565b611916611909565b6119218184846118e4565b505050565b5b818110156119455761193a60008261190e565b600181019050611927565b5050565b601f82111561198a5761195b81611815565b6119648461183f565b81016020851015611973578190505b61198761197f8561183f565b830182611926565b50505b505050565b600082821c905092915050565b60006119ad6000198460080261198f565b1980831691505092915050565b60006119c6838361199c565b9150826002028217905092915050565b8181036119e4575050611abc565b6119ed826117ff565b67ffffffffffffffff811115611a0657611a05610f62565b5b611a1082546114eb565b611a1b828285611949565b6000601f831160018114611a4a5760008415611a38578287015490505b611a4285826119ba565b865550611ab5565b601f198416611a588761182a565b9650611a6386611815565b60005b82811015611a8b57848901548255600182019150600185019450602081019050611a66565b86831015611aa85784890154611aa4601f89168261199c565b8355505b6001600288020188555050505b5050505050505b565b7f4e487b7100000000000000000000000000000000000000000000000000000000600052603160045260246000fd5b6000611af882611155565b91507fffffffffffffffffffffffffffffffffffffffffffffffffffffffffffffffff8203611b2a57611b2961179c565b5b600182019050919050565b60006020820190508181036000830152611b4f818461111c565b905092915050565b7f52656e74616c20666f7220746861742063617220616c7265616479206578697360008201527f7473000000000000000000000000000000000000000000000000000000000000602082015250565b6000611bb36022836110e1565b9150611bbe82611b57565b604082019050919050565b60006020820190508181036000830152611be281611ba6565b9050919050565b611bf2826110d6565b67ffffffffffffffff811115611c0b57611c0a610f62565b5b611c1582546114eb565b611c20828285611949565b600060209050601f831160018114611c535760008415611c41578287015190505b611c4b85826119ba565b865550611cb3565b601f198416611c6186611815565b60005b82811015611c8957848901518255600182019150602085019450602081019050611c64565b86831015611ca65784890151611ca2601f89168261199c565b8355505b6001600288020188555050505b50505050505056fea26469706673582212209275468d6d846b1189dfd26e5f675295e62d6dac76753c37bcfee36f62f2e06364736f6c63430008130033",
  "immutableReferences": {},
  "source": "// SPDX-License-Identifier: MIT \npragma solidity ^0.8.19;\n\ninterface ICarRegistry {\n    function toggleCarAvailability(string memory _plate) external;\n}\n\ncontract CarRentalContract {\n\n    struct RentalContract {\n        string plate;\n        uint price;\n        uint pricePerDay;\n        uint funds;\n        uint charges;\n        string phone;\n        address owner;\n        address client;\n    }\n\n    mapping(string => RentalContract) public rentals;\n    mapping(address => string[]) private clientRentalCarPlates;\n    address public carRegistryAddress;\n    \n    constructor(address _carRegistryAddress) {\n        carRegistryAddress = _carRegistryAddress;\n    }\n\n    function createRental(\n        string memory _plate,\n        uint _price,\n        uint _pricePerDay,\n        string memory _phone,\n        address _owner\n    ) public payable {\n        require(rentals[_plate].owner == address(0), 'Rental for that car already exists');\n\n        rentals[_plate] = RentalContract({\n            plate: _plate,\n            price: _price,\n            pricePerDay: _pricePerDay,\n            funds: 0,\n            charges: 0,\n            phone: _phone,\n            owner: _owner,\n            client: msg.sender\n        });\n        clientRentalCarPlates[msg.sender].push(_plate);\n\n        // Se transfiere el valor recibido al propietario\n        payable(_owner).transfer(msg.value);\n\n        // Invocamos la funcion toggleCarAvailability del contrato CarRegistry\n        ICarRegistry(carRegistryAddress).toggleCarAvailability(_plate);\n    }\n\n    function getRental(string memory _plate) public view returns (string memory, uint, uint, uint, uint, string memory, address, address) {\n        RentalContract memory rentalContract = rentals[_plate];\n\n        require(bytes(rentalContract.plate).length != 0, \"Rental contract not registered\");\n\n        return (rentalContract.plate, rentalContract.price, rentalContract.pricePerDay, rentalContract.funds, rentalContract.charges, rentalContract.phone, rentalContract.owner, rentalContract.client);\n    }\n\n    function getClientRentalCarPlates(address _client) public view returns (string[] memory) {\n        return clientRentalCarPlates[_client];\n    }\n\n    function deleteRental(string memory _plate) public {\n        RentalContract storage rental = rentals[_plate];\n\n        require(rental.owner != address(0), \"Rental contract does not exist\");\n        // Solo el cliente puede terminar la renta (en este caso permitimos tambien al propietario)\n        require(msg.sender == rental.client || msg.sender == rental.owner, \"Unauthorized\");\n\n        // Eliminamos la matricula del coche de la lista de matriculas rentadas por el cliente\n        string[] storage plates = clientRentalCarPlates[rental.client];\n        for (uint i = 0; i < plates.length; i++) {\n            if (keccak256(bytes(plates[i])) == keccak256(bytes(_plate))) {\n                plates[i] = plates[plates.length - 1];\n                plates.pop();\n                break;\n            }\n        }\n\n        // Actualizamos la disponibilidad del coche\n        ICarRegistry(carRegistryAddress).toggleCarAvailability(_plate);\n\n        // Eliminamos el contrato de la renta\n        delete rentals[_plate];\n    }\n}\n",
  "sourcePath": "/home/tote/master/tfm/contracts/CarRentalContract.sol",
  "compiler": {
    "name": "solc",
    "version": "0.8.19+commit.7dd6d404.Emscripten.clang"
  },
  "schemaVersion": "3.4.16",
  "updatedAt": "2024-06-26T18:18:05.253Z",
  "networkType": "ethereum",
  "devdoc": {
    "kind": "dev",
    "methods": {},
    "version": 1
  },
  "userdoc": {
    "kind": "user",
    "methods": {},
    "version": 1
  }
}