{
  "contractName": "CarRegistry",
  "abi": [
    {
      "inputs": [
        {
          "internalType": "string",
          "name": "_model",
          "type": "string"
        },
        {
          "internalType": "string",
          "name": "_plate",
          "type": "string"
        },
        {
          "internalType": "uint32",
          "name": "_autonomy",
          "type": "uint32"
        },
        {
          "internalType": "uint256",
          "name": "_price",
          "type": "uint256"
        },
        {
          "internalType": "uint256",
          "name": "_dailyCharge",
          "type": "uint256"
        }
      ],
      "name": "registerCar",
      "outputs": [],
      "stateMutability": "nonpayable",
      "type": "function"
    },
    {
      "inputs": [
        {
          "internalType": "string",
          "name": "_plate",
          "type": "string"
        }
      ],
      "name": "toggleCarAvailability",
      "outputs": [],
      "stateMutability": "nonpayable",
      "type": "function"
    },
    {
      "inputs": [
        {
          "internalType": "string",
          "name": "_plate",
          "type": "string"
        }
      ],
      "name": "getCar",
      "outputs": [
        {
          "internalType": "string",
          "name": "",
          "type": "string"
        },
        {
          "internalType": "string",
          "name": "",
          "type": "string"
        },
        {
          "internalType": "uint32",
          "name": "",
          "type": "uint32"
        },
        {
          "internalType": "uint256",
          "name": "",
          "type": "uint256"
        },
        {
          "internalType": "uint256",
          "name": "",
          "type": "uint256"
        },
        {
          "internalType": "bool",
          "name": "",
          "type": "bool"
        },
        {
          "internalType": "address",
          "name": "",
          "type": "address"
        }
      ],
      "stateMutability": "view",
      "type": "function",
      "constant": true
    },
    {
      "inputs": [
        {
          "internalType": "string",
          "name": "_plate",
          "type": "string"
        }
      ],
      "name": "isCarRegistered",
      "outputs": [
        {
          "internalType": "bool",
          "name": "",
          "type": "bool"
        }
      ],
      "stateMutability": "view",
      "type": "function",
      "constant": true
    },
    {
      "inputs": [],
      "name": "getAvailableCarPlates",
      "outputs": [
        {
          "internalType": "string[]",
          "name": "",
          "type": "string[]"
        }
      ],
      "stateMutability": "view",
      "type": "function",
      "constant": true
    },
    {
      "inputs": [
        {
          "internalType": "address",
          "name": "_owner",
          "type": "address"
        }
      ],
      "name": "getOwnerCarPlates",
      "outputs": [
        {
          "internalType": "string[]",
          "name": "",
          "type": "string[]"
        }
      ],
      "stateMutability": "view",
      "type": "function",
      "constant": true
    }
  ],
  "bytecode": "0x608060405234801561001057600080fd5b506117a9806100206000396000f3fe608060405234801561001057600080fd5b50600436106100625760003560e01c80631a6777cc14610067578063479487e3146100975780635ede7297146100cd57806383763966146100e957806397f25f3c14610105578063f3af006114610135575b600080fd5b610081600480360381019061007c9190610bbe565b610153565b60405161008e9190610d3d565b60405180910390f35b6100b160048036038101906100ac9190610e94565b61026b565b6040516100c49796959493929190610f89565b60405180910390f35b6100e760048036038101906100e29190610e94565b610578565b005b61010360048036038101906100fe919061105e565b61061e565b005b61011f600480360381019061011a9190610e94565b61087c565b60405161012c9190611111565b60405180910390f35b61013d6108f6565b60405161014a9190610d3d565b60405180910390f35b6060600160008373ffffffffffffffffffffffffffffffffffffffff1673ffffffffffffffffffffffffffffffffffffffff168152602001908152602001600020805480602002602001604051908101604052809291908181526020016000905b828210156102605783829060005260206000200180546101d39061115b565b80601f01602080910402602001604051908101604052809291908181526020018280546101ff9061115b565b801561024c5780601f106102215761010080835404028352916020019161024c565b820191906000526020600020905b81548152906001019060200180831161022f57829003601f168201915b5050505050815260200190600101906101b4565b505050509050919050565b60608060008060008060008060008960405161028791906111c8565b90815260200160405180910390206040518060e00160405290816000820180546102b09061115b565b80601f01602080910402602001604051908101604052809291908181526020018280546102dc9061115b565b80156103295780601f106102fe57610100808354040283529160200191610329565b820191906000526020600020905b81548152906001019060200180831161030c57829003601f168201915b505050505081526020016001820180546103429061115b565b80601f016020809104026020016040519081016040528092919081815260200182805461036e9061115b565b80156103bb5780601f10610390576101008083540402835291602001916103bb565b820191906000526020600020905b81548152906001019060200180831161039e57829003601f168201915b505050505081526020016002820160009054906101000a900463ffffffff1663ffffffff1663ffffffff16815260200160038201548152602001600482015481526020016005820160009054906101000a900460ff161515151581526020016005820160019054906101000a900473ffffffffffffffffffffffffffffffffffffffff1673ffffffffffffffffffffffffffffffffffffffff1673ffffffffffffffffffffffffffffffffffffffff168152505090506000816020015151036104b9576040517f08c379a00000000000000000000000000000000000000000000000000000000081526004016104b09061122b565b60405180910390fd5b3373ffffffffffffffffffffffffffffffffffffffff168160c0015173ffffffffffffffffffffffffffffffffffffffff16141580156104fb57508060a00151155b1561053b576040517f08c379a000000000000000000000000000000000000000000000000000000000815260040161053290611297565b60405180910390fd5b806000015181602001518260400151836060015184608001518560a001518660c00151975097509750975097509750975050919395979092949650565b6000808260405161058991906111c8565b9081526020016040518091039020905060008160010180546105aa9061115b565b9050036105ec576040517f08c379a00000000000000000000000000000000000000000000000000000000081526004016105e390611329565b60405180910390fd5b8060050160009054906101000a900460ff16158160050160006101000a81548160ff0219169083151502179055505050565b6000808560405161062f91906111c8565b9081526020016040518091039020600101805461064b9061115b565b90501461068d576040517f08c379a000000000000000000000000000000000000000000000000000000000815260040161068490611395565b60405180910390fd5b6040518060e001604052808681526020018581526020018463ffffffff1681526020018381526020018281526020016001151581526020013373ffffffffffffffffffffffffffffffffffffffff168152506000856040516106ef91906111c8565b908152602001604051809103902060008201518160000190816107129190611561565b5060208201518160010190816107289190611561565b5060408201518160020160006101000a81548163ffffffff021916908363ffffffff160217905550606082015181600301556080820151816004015560a08201518160050160006101000a81548160ff02191690831515021790555060c08201518160050160016101000a81548173ffffffffffffffffffffffffffffffffffffffff021916908373ffffffffffffffffffffffffffffffffffffffff1602179055509050506002849080600181540180825580915050600190039060005260206000200160009091909190915090816108029190611561565b50600160003373ffffffffffffffffffffffffffffffffffffffff1673ffffffffffffffffffffffffffffffffffffffff168152602001908152602001600020849080600181540180825580915050600190039060005260206000200160009091909190915090816108749190611561565b505050505050565b60008073ffffffffffffffffffffffffffffffffffffffff166000836040516108a591906111c8565b908152602001604051809103902060050160019054906101000a900473ffffffffffffffffffffffffffffffffffffffff1673ffffffffffffffffffffffffffffffffffffffff1614159050919050565b6060600060028054905067ffffffffffffffff81111561091957610918610d69565b5b60405190808252806020026020018201604052801561094c57816020015b60608152602001906001900390816109375790505b5090506000805b600280549050811015610a985760006002828154811061097657610975611633565b5b9060005260206000200160405161098d91906116e5565b908152602001604051809103902060050160009054906101000a900460ff1615610a8557600281815481106109c5576109c4611633565b5b9060005260206000200180546109da9061115b565b80601f0160208091040260200160405190810160405280929190818152602001828054610a069061115b565b8015610a535780601f10610a2857610100808354040283529160200191610a53565b820191906000526020600020905b815481529060010190602001808311610a3657829003601f168201915b5050505050838381518110610a6b57610a6a611633565b5b60200260200101819052508180610a819061172b565b9250505b8080610a909061172b565b915050610953565b5060008167ffffffffffffffff811115610ab557610ab4610d69565b5b604051908082528060200260200182016040528015610ae857816020015b6060815260200190600190039081610ad35790505b50905060005b82811015610b4257838181518110610b0957610b08611633565b5b6020026020010151828281518110610b2457610b23611633565b5b60200260200101819052508080610b3a9061172b565b915050610aee565b5080935050505090565b6000604051905090565b600080fd5b600080fd5b600073ffffffffffffffffffffffffffffffffffffffff82169050919050565b6000610b8b82610b60565b9050919050565b610b9b81610b80565b8114610ba657600080fd5b50565b600081359050610bb881610b92565b92915050565b600060208284031215610bd457610bd3610b56565b5b6000610be284828501610ba9565b91505092915050565b600081519050919050565b600082825260208201905092915050565b6000819050602082019050919050565b600081519050919050565b600082825260208201905092915050565b60005b83811015610c51578082015181840152602081019050610c36565b60008484015250505050565b6000601f19601f8301169050919050565b6000610c7982610c17565b610c838185610c22565b9350610c93818560208601610c33565b610c9c81610c5d565b840191505092915050565b6000610cb38383610c6e565b905092915050565b6000602082019050919050565b6000610cd382610beb565b610cdd8185610bf6565b935083602082028501610cef85610c07565b8060005b85811015610d2b5784840389528151610d0c8582610ca7565b9450610d1783610cbb565b925060208a01995050600181019050610cf3565b50829750879550505050505092915050565b60006020820190508181036000830152610d578184610cc8565b905092915050565b600080fd5b600080fd5b7f4e487b7100000000000000000000000000000000000000000000000000000000600052604160045260246000fd5b610da182610c5d565b810181811067ffffffffffffffff82111715610dc057610dbf610d69565b5b80604052505050565b6000610dd3610b4c565b9050610ddf8282610d98565b919050565b600067ffffffffffffffff821115610dff57610dfe610d69565b5b610e0882610c5d565b9050602081019050919050565b82818337600083830152505050565b6000610e37610e3284610de4565b610dc9565b905082815260208101848484011115610e5357610e52610d64565b5b610e5e848285610e15565b509392505050565b600082601f830112610e7b57610e7a610d5f565b5b8135610e8b848260208601610e24565b91505092915050565b600060208284031215610eaa57610ea9610b56565b5b600082013567ffffffffffffffff811115610ec857610ec7610b5b565b5b610ed484828501610e66565b91505092915050565b600082825260208201905092915050565b6000610ef982610c17565b610f038185610edd565b9350610f13818560208601610c33565b610f1c81610c5d565b840191505092915050565b600063ffffffff82169050919050565b610f4081610f27565b82525050565b6000819050919050565b610f5981610f46565b82525050565b60008115159050919050565b610f7481610f5f565b82525050565b610f8381610b80565b82525050565b600060e0820190508181036000830152610fa3818a610eee565b90508181036020830152610fb78189610eee565b9050610fc66040830188610f37565b610fd36060830187610f50565b610fe06080830186610f50565b610fed60a0830185610f6b565b610ffa60c0830184610f7a565b98975050505050505050565b61100f81610f27565b811461101a57600080fd5b50565b60008135905061102c81611006565b92915050565b61103b81610f46565b811461104657600080fd5b50565b60008135905061105881611032565b92915050565b600080600080600060a0868803121561107a57611079610b56565b5b600086013567ffffffffffffffff81111561109857611097610b5b565b5b6110a488828901610e66565b955050602086013567ffffffffffffffff8111156110c5576110c4610b5b565b5b6110d188828901610e66565b94505060406110e28882890161101d565b93505060606110f388828901611049565b925050608061110488828901611049565b9150509295509295909350565b60006020820190506111266000830184610f6b565b92915050565b7f4e487b7100000000000000000000000000000000000000000000000000000000600052602260045260246000fd5b6000600282049050600182168061117357607f821691505b6020821081036111865761118561112c565b5b50919050565b600081905092915050565b60006111a282610c17565b6111ac818561118c565b93506111bc818560208601610c33565b80840191505092915050565b60006111d48284611197565b915081905092915050565b7f436172206e6f7420726567697374657265640000000000000000000000000000600082015250565b6000611215601283610edd565b9150611220826111df565b602082019050919050565b6000602082019050818103600083015261124481611208565b9050919050565b7f436172206e6f7420617661696c61626c65000000000000000000000000000000600082015250565b6000611281601183610edd565b915061128c8261124b565b602082019050919050565b600060208201905081810360008301526112b081611274565b9050919050565b7f436172206d757374206265207265676973746572656420746f20746f67676c6560008201527f20617661696c6162696c6974792e000000000000000000000000000000000000602082015250565b6000611313602e83610edd565b915061131e826112b7565b604082019050919050565b6000602082019050818103600083015261134281611306565b9050919050565b7f43617220616c7265616479207265676973746572656400000000000000000000600082015250565b600061137f601683610edd565b915061138a82611349565b602082019050919050565b600060208201905081810360008301526113ae81611372565b9050919050565b60008190508160005260206000209050919050565b60006020601f8301049050919050565b600082821b905092915050565b6000600883026114177fffffffffffffffffffffffffffffffffffffffffffffffffffffffffffffffff826113da565b61142186836113da565b95508019841693508086168417925050509392505050565b6000819050919050565b600061145e61145961145484610f46565b611439565b610f46565b9050919050565b6000819050919050565b61147883611443565b61148c61148482611465565b8484546113e7565b825550505050565b600090565b6114a1611494565b6114ac81848461146f565b505050565b5b818110156114d0576114c5600082611499565b6001810190506114b2565b5050565b601f821115611515576114e6816113b5565b6114ef846113ca565b810160208510156114fe578190505b61151261150a856113ca565b8301826114b1565b50505b505050565b600082821c905092915050565b60006115386000198460080261151a565b1980831691505092915050565b60006115518383611527565b9150826002028217905092915050565b61156a82610c17565b67ffffffffffffffff81111561158357611582610d69565b5b61158d825461115b565b6115988282856114d4565b600060209050601f8311600181146115cb57600084156115b9578287015190505b6115c38582611545565b86555061162b565b601f1984166115d9866113b5565b60005b82811015611601578489015182556001820191506020850194506020810190506115dc565b8683101561161e578489015161161a601f891682611527565b8355505b6001600288020188555050505b505050505050565b7f4e487b7100000000000000000000000000000000000000000000000000000000600052603260045260246000fd5b6000815461166f8161115b565b611679818661118c565b9450600182166000811461169457600181146116a9576116dc565b60ff19831686528115158202860193506116dc565b6116b2856113b5565b60005b838110156116d4578154818901526001820191506020810190506116b5565b838801955050505b50505092915050565b60006116f18284611662565b915081905092915050565b7f4e487b7100000000000000000000000000000000000000000000000000000000600052601160045260246000fd5b600061173682610f46565b91507fffffffffffffffffffffffffffffffffffffffffffffffffffffffffffffffff8203611768576117676116fc565b5b60018201905091905056fea264697066735822122073ac2f7ced8d71c313e04795364bdeaff0332ff6a0de67306a689334d1be0aa364736f6c63430008130033",
  "immutableReferences": {},
  "source": "// SPDX-License-Identifier: MIT \npragma solidity ^0.8.19;\n\ncontract CarRegistry {\n\n    struct Car {\n        string model;\n        string plate;\n        uint32 autonomy;\n        uint256 price;\n        uint256 dailyCharge;\n        bool available;\n        address owner;\n    }\n\n    mapping(string => Car) private cars;\n    mapping(address => string[]) private ownerCarPlates;\n    string[] private allCarPlates;\n\n    function registerCar(string memory _model, string memory _plate,  uint32 _autonomy, uint256 _price, uint256 _dailyCharge) public {\n        require(bytes(cars[_plate].plate).length == 0, \"Car already registered\");\n\n        cars[_plate] = Car({\n            model: _model, \n            plate: _plate,\n            autonomy: _autonomy,\n            price: _price,\n            dailyCharge: _dailyCharge,\n            available: true,\n            owner: msg.sender\n        });\n        allCarPlates.push(_plate);\n        ownerCarPlates[msg.sender].push(_plate);\n    }\n\n    function toggleCarAvailability(string memory _plate) public {\n        Car storage car = cars[_plate];\n        require(bytes(car.plate).length != 0, \"Car must be registered to toggle availability.\");\n        car.available = !car.available;\n    }\n\n    function getCar(string memory _plate) public view returns (string memory, string memory, uint32, uint256, uint256, bool, address) {\n        Car memory car = cars[_plate];\n\n        require(bytes(car.plate).length != 0, \"Car not registered\");\n\n        // El nico que puede ver un coche cuando no est disponible es el dueo\n        if (car.owner != msg.sender && !car.available) {\n            revert(\"Car not available\");\n        }\n\n        return (car.model, car.plate, car.autonomy, car.price, car.dailyCharge, car.available, car.owner);\n    }\n    \n    function isCarRegistered(string memory _plate) public view returns (bool) {\n        return cars[_plate].owner != address(0);\n    }\n\n    function getAvailableCarPlates() public view returns (string[] memory) {\n        string[] memory availablePlates = new string[](allCarPlates.length);\n        uint counter = 0;\n\n        // Filtramos las matriculas de los coches que estn disponibles\n        for (uint i = 0; i < allCarPlates.length; i++) {\n            if (cars[allCarPlates[i]].available) {\n                availablePlates[counter] = allCarPlates[i];\n                counter++;\n            }\n        }\n\n        // Redimensionamos el array de resultados\n        string[] memory filteredPlates = new string[](counter);\n        for (uint i = 0; i < counter; i++) {\n            filteredPlates[i] = availablePlates[i];\n        }\n\n        return filteredPlates;\n    }\n\n    function getOwnerCarPlates(address _owner) public view returns (string[] memory) {\n        return ownerCarPlates[_owner];\n    }\n}\n",
  "sourcePath": "/home/tote/master/tfm/contracts/CarRegistry.sol",
  "compiler": {
    "name": "solc",
    "version": "0.8.19+commit.7dd6d404.Emscripten.clang"
  },
  "schemaVersion": "3.4.16",
  "updatedAt": "2024-06-09T17:49:16.240Z",
  "networkType": "ethereum",
  "devdoc": {
    "kind": "dev",
    "methods": {},
    "version": 1
  },
  "userdoc": {
    "kind": "user",
    "methods": {},
    "version": 1
  }
}