{
  "contractName": "CarRegistry",
  "abi": [
    {
      "inputs": [
        {
          "internalType": "string",
          "name": "_model",
          "type": "string"
        },
        {
          "internalType": "string",
          "name": "_plate",
          "type": "string"
        },
        {
          "internalType": "uint32",
          "name": "_autonomy",
          "type": "uint32"
        },
        {
          "internalType": "uint256",
          "name": "_price",
          "type": "uint256"
        },
        {
          "internalType": "uint256",
          "name": "_dailyCharge",
          "type": "uint256"
        }
      ],
      "name": "registerCar",
      "outputs": [],
      "stateMutability": "nonpayable",
      "type": "function"
    },
    {
      "inputs": [
        {
          "internalType": "string",
          "name": "_plate",
          "type": "string"
        }
      ],
      "name": "toggleCarAvailability",
      "outputs": [],
      "stateMutability": "nonpayable",
      "type": "function"
    },
    {
      "inputs": [
        {
          "internalType": "string",
          "name": "_plate",
          "type": "string"
        }
      ],
      "name": "getCar",
      "outputs": [
        {
          "internalType": "string",
          "name": "",
          "type": "string"
        },
        {
          "internalType": "string",
          "name": "",
          "type": "string"
        },
        {
          "internalType": "uint32",
          "name": "",
          "type": "uint32"
        },
        {
          "internalType": "uint256",
          "name": "",
          "type": "uint256"
        },
        {
          "internalType": "uint256",
          "name": "",
          "type": "uint256"
        },
        {
          "internalType": "bool",
          "name": "",
          "type": "bool"
        },
        {
          "internalType": "address",
          "name": "",
          "type": "address"
        }
      ],
      "stateMutability": "view",
      "type": "function",
      "constant": true
    },
    {
      "inputs": [
        {
          "internalType": "string",
          "name": "_plate",
          "type": "string"
        }
      ],
      "name": "isCarRegistered",
      "outputs": [
        {
          "internalType": "bool",
          "name": "",
          "type": "bool"
        }
      ],
      "stateMutability": "view",
      "type": "function",
      "constant": true
    },
    {
      "inputs": [],
      "name": "getAvailableCarPlates",
      "outputs": [
        {
          "internalType": "string[]",
          "name": "",
          "type": "string[]"
        }
      ],
      "stateMutability": "view",
      "type": "function",
      "constant": true
    },
    {
      "inputs": [],
      "name": "getOwnerCarPlates",
      "outputs": [
        {
          "internalType": "string[]",
          "name": "",
          "type": "string[]"
        }
      ],
      "stateMutability": "view",
      "type": "function",
      "constant": true
    },
    {
      "inputs": [
        {
          "internalType": "string",
          "name": "_plate",
          "type": "string"
        }
      ],
      "name": "deleteCar",
      "outputs": [],
      "stateMutability": "nonpayable",
      "type": "function"
    }
  ],
  "bytecode": "0x608060405234801561001057600080fd5b50611d31806100206000396000f3fe608060405234801561001057600080fd5b506004361061007d5760003560e01c806397f25f3c1161005b57806397f25f3c146100f0578063f3af006114610120578063f54464191461013e578063fd76ce041461015c5761007d565b8063479487e3146100825780635ede7297146100b857806383763966146100d4575b600080fd5b61009c600480360381019061009791906110eb565b610178565b6040516100af9796959493929190611247565b60405180910390f35b6100d260048036038101906100cd91906110eb565b610403565b005b6100ee60048036038101906100e9919061131c565b6104a9565b005b61010a600480360381019061010591906110eb565b610707565b60405161011791906113cf565b60405180910390f35b610128610781565b60405161013591906114f6565b60405180910390f35b6101466109d7565b60405161015391906114f6565b60405180910390f35b610176600480360381019061017191906110eb565b610aed565b005b6060806000806000806000806000896040516101949190611554565b90815260200160405180910390206040518060e00160405290816000820180546101bd9061159a565b80601f01602080910402602001604051908101604052809291908181526020018280546101e99061159a565b80156102365780601f1061020b57610100808354040283529160200191610236565b820191906000526020600020905b81548152906001019060200180831161021957829003601f168201915b5050505050815260200160018201805461024f9061159a565b80601f016020809104026020016040519081016040528092919081815260200182805461027b9061159a565b80156102c85780601f1061029d576101008083540402835291602001916102c8565b820191906000526020600020905b8154815290600101906020018083116102ab57829003601f168201915b505050505081526020016002820160009054906101000a900463ffffffff1663ffffffff1663ffffffff16815260200160038201548152602001600482015481526020016005820160009054906101000a900460ff161515151581526020016005820160019054906101000a900473ffffffffffffffffffffffffffffffffffffffff1673ffffffffffffffffffffffffffffffffffffffff1673ffffffffffffffffffffffffffffffffffffffff168152505090506000816020015151036103c6576040517f08c379a00000000000000000000000000000000000000000000000000000000081526004016103bd90611617565b60405180910390fd5b806000015181602001518260400151836060015184608001518560a001518660c00151975097509750975097509750975050919395979092949650565b600080826040516104149190611554565b9081526020016040518091039020905060008160010180546104359061159a565b905003610477576040517f08c379a000000000000000000000000000000000000000000000000000000000815260040161046e90611617565b60405180910390fd5b8060050160009054906101000a900460ff16158160050160006101000a81548160ff0219169083151502179055505050565b600080856040516104ba9190611554565b908152602001604051809103902060010180546104d69061159a565b905014610518576040517f08c379a000000000000000000000000000000000000000000000000000000000815260040161050f90611683565b60405180910390fd5b6040518060e001604052808681526020018581526020018463ffffffff1681526020018381526020018281526020016001151581526020013373ffffffffffffffffffffffffffffffffffffffff1681525060008560405161057a9190611554565b9081526020016040518091039020600082015181600001908161059d919061184f565b5060208201518160010190816105b3919061184f565b5060408201518160020160006101000a81548163ffffffff021916908363ffffffff160217905550606082015181600301556080820151816004015560a08201518160050160006101000a81548160ff02191690831515021790555060c08201518160050160016101000a81548173ffffffffffffffffffffffffffffffffffffffff021916908373ffffffffffffffffffffffffffffffffffffffff16021790555090505060028490806001815401808255809150506001900390600052602060002001600090919091909150908161068d919061184f565b50600160003373ffffffffffffffffffffffffffffffffffffffff1673ffffffffffffffffffffffffffffffffffffffff168152602001908152602001600020849080600181540180825580915050600190039060005260206000200160009091909190915090816106ff919061184f565b505050505050565b60008073ffffffffffffffffffffffffffffffffffffffff166000836040516107309190611554565b908152602001604051809103902060050160019054906101000a900473ffffffffffffffffffffffffffffffffffffffff1673ffffffffffffffffffffffffffffffffffffffff1614159050919050565b6060600060028054905067ffffffffffffffff8111156107a4576107a3610fc0565b5b6040519080825280602002602001820160405280156107d757816020015b60608152602001906001900390816107c25790505b5090506000805b6002805490508110156109235760006002828154811061080157610800611921565b5b9060005260206000200160405161081891906119d3565b908152602001604051809103902060050160009054906101000a900460ff161561091057600281815481106108505761084f611921565b5b9060005260206000200180546108659061159a565b80601f01602080910402602001604051908101604052809291908181526020018280546108919061159a565b80156108de5780601f106108b3576101008083540402835291602001916108de565b820191906000526020600020905b8154815290600101906020018083116108c157829003601f168201915b50505050508383815181106108f6576108f5611921565b5b6020026020010181905250818061090c90611a19565b9250505b808061091b90611a19565b9150506107de565b5060008167ffffffffffffffff8111156109405761093f610fc0565b5b60405190808252806020026020018201604052801561097357816020015b606081526020019060019003908161095e5790505b50905060005b828110156109cd5783818151811061099457610993611921565b5b60200260200101518282815181106109af576109ae611921565b5b602002602001018190525080806109c590611a19565b915050610979565b5080935050505090565b6060600160003373ffffffffffffffffffffffffffffffffffffffff1673ffffffffffffffffffffffffffffffffffffffff168152602001908152602001600020805480602002602001604051908101604052809291908181526020016000905b82821015610ae4578382906000526020600020018054610a579061159a565b80601f0160208091040260200160405190810160405280929190818152602001828054610a839061159a565b8015610ad05780601f10610aa557610100808354040283529160200191610ad0565b820191906000526020600020905b815481529060010190602001808311610ab357829003601f168201915b505050505081526020019060010190610a38565b50505050905090565b600081604051610afd9190611554565b908152602001604051809103902060050160009054906101000a900460ff16610b5b576040517f08c379a0000000000000000000000000000000000000000000000000000000008152600401610b5290611ad3565b60405180910390fd5b3373ffffffffffffffffffffffffffffffffffffffff16600082604051610b829190611554565b908152602001604051809103902060050160019054906101000a900473ffffffffffffffffffffffffffffffffffffffff1673ffffffffffffffffffffffffffffffffffffffff1614610c0a576040517f08c379a0000000000000000000000000000000000000000000000000000000008152600401610c0190611b65565b60405180910390fd5b6000600160003373ffffffffffffffffffffffffffffffffffffffff1673ffffffffffffffffffffffffffffffffffffffff168152602001908152602001600020905060005b8180549050811015610d695782604051602001610c6d9190611554565b60405160208183030381529060405280519060200120828281548110610c9657610c95611921565b5b90600052602060002001604051602001610cb091906119d3565b6040516020818303038152906040528051906020012003610d56578160018380549050610cdd9190611b85565b81548110610cee57610ced611921565b5b90600052602060002001828281548110610d0b57610d0a611921565b5b906000526020600020019081610d219190611be4565b5081805480610d3357610d32611ccc565b5b600190038181906000526020600020016000610d4f9190610f34565b9055610d69565b8080610d6190611a19565b915050610c50565b5060005b600280549050811015610e8c5782604051602001610d8b9190611554565b6040516020818303038152906040528051906020012060028281548110610db557610db4611921565b5b90600052602060002001604051602001610dcf91906119d3565b6040516020818303038152906040528051906020012003610e795760026001600280549050610dfe9190611b85565b81548110610e0f57610e0e611921565b5b9060005260206000200160028281548110610e2d57610e2c611921565b5b906000526020600020019081610e439190611be4565b506002805480610e5657610e55611ccc565b5b600190038181906000526020600020016000610e729190610f34565b9055610e8c565b8080610e8490611a19565b915050610d6d565b50600082604051610e9d9190611554565b908152602001604051809103902060008082016000610ebc9190610f34565b600182016000610ecc9190610f34565b6002820160006101000a81549063ffffffff0219169055600382016000905560048201600090556005820160006101000a81549060ff02191690556005820160016101000a81549073ffffffffffffffffffffffffffffffffffffffff021916905550505050565b508054610f409061159a565b6000825580601f10610f525750610f71565b601f016020900490600052602060002090810190610f709190610f74565b5b50565b5b80821115610f8d576000816000905550600101610f75565b5090565b6000604051905090565b600080fd5b600080fd5b600080fd5b600080fd5b6000601f19601f8301169050919050565b7f4e487b7100000000000000000000000000000000000000000000000000000000600052604160045260246000fd5b610ff882610faf565b810181811067ffffffffffffffff8211171561101757611016610fc0565b5b80604052505050565b600061102a610f91565b90506110368282610fef565b919050565b600067ffffffffffffffff82111561105657611055610fc0565b5b61105f82610faf565b9050602081019050919050565b82818337600083830152505050565b600061108e6110898461103b565b611020565b9050828152602081018484840111156110aa576110a9610faa565b5b6110b584828561106c565b509392505050565b600082601f8301126110d2576110d1610fa5565b5b81356110e284826020860161107b565b91505092915050565b60006020828403121561110157611100610f9b565b5b600082013567ffffffffffffffff81111561111f5761111e610fa0565b5b61112b848285016110bd565b91505092915050565b600081519050919050565b600082825260208201905092915050565b60005b8381101561116e578082015181840152602081019050611153565b60008484015250505050565b600061118582611134565b61118f818561113f565b935061119f818560208601611150565b6111a881610faf565b840191505092915050565b600063ffffffff82169050919050565b6111cc816111b3565b82525050565b6000819050919050565b6111e5816111d2565b82525050565b60008115159050919050565b611200816111eb565b82525050565b600073ffffffffffffffffffffffffffffffffffffffff82169050919050565b600061123182611206565b9050919050565b61124181611226565b82525050565b600060e0820190508181036000830152611261818a61117a565b90508181036020830152611275818961117a565b905061128460408301886111c3565b61129160608301876111dc565b61129e60808301866111dc565b6112ab60a08301856111f7565b6112b860c0830184611238565b98975050505050505050565b6112cd816111b3565b81146112d857600080fd5b50565b6000813590506112ea816112c4565b92915050565b6112f9816111d2565b811461130457600080fd5b50565b600081359050611316816112f0565b92915050565b600080600080600060a0868803121561133857611337610f9b565b5b600086013567ffffffffffffffff81111561135657611355610fa0565b5b611362888289016110bd565b955050602086013567ffffffffffffffff81111561138357611382610fa0565b5b61138f888289016110bd565b94505060406113a0888289016112db565b93505060606113b188828901611307565b92505060806113c288828901611307565b9150509295509295909350565b60006020820190506113e460008301846111f7565b92915050565b600081519050919050565b600082825260208201905092915050565b6000819050602082019050919050565b600082825260208201905092915050565b600061143282611134565b61143c8185611416565b935061144c818560208601611150565b61145581610faf565b840191505092915050565b600061146c8383611427565b905092915050565b6000602082019050919050565b600061148c826113ea565b61149681856113f5565b9350836020820285016114a885611406565b8060005b858110156114e457848403895281516114c58582611460565b94506114d083611474565b925060208a019950506001810190506114ac565b50829750879550505050505092915050565b600060208201905081810360008301526115108184611481565b905092915050565b600081905092915050565b600061152e82611134565b6115388185611518565b9350611548818560208601611150565b80840191505092915050565b60006115608284611523565b915081905092915050565b7f4e487b7100000000000000000000000000000000000000000000000000000000600052602260045260246000fd5b600060028204905060018216806115b257607f821691505b6020821081036115c5576115c461156b565b5b50919050565b7f436172206e6f7420726567697374657265640000000000000000000000000000600082015250565b600061160160128361113f565b915061160c826115cb565b602082019050919050565b60006020820190508181036000830152611630816115f4565b9050919050565b7f43617220616c7265616479207265676973746572656400000000000000000000600082015250565b600061166d60168361113f565b915061167882611637565b602082019050919050565b6000602082019050818103600083015261169c81611660565b9050919050565b60008190508160005260206000209050919050565b60006020601f8301049050919050565b600082821b905092915050565b6000600883026117057fffffffffffffffffffffffffffffffffffffffffffffffffffffffffffffffff826116c8565b61170f86836116c8565b95508019841693508086168417925050509392505050565b6000819050919050565b600061174c611747611742846111d2565b611727565b6111d2565b9050919050565b6000819050919050565b61176683611731565b61177a61177282611753565b8484546116d5565b825550505050565b600090565b61178f611782565b61179a81848461175d565b505050565b5b818110156117be576117b3600082611787565b6001810190506117a0565b5050565b601f821115611803576117d4816116a3565b6117dd846116b8565b810160208510156117ec578190505b6118006117f8856116b8565b83018261179f565b50505b505050565b600082821c905092915050565b600061182660001984600802611808565b1980831691505092915050565b600061183f8383611815565b9150826002028217905092915050565b61185882611134565b67ffffffffffffffff81111561187157611870610fc0565b5b61187b825461159a565b6118868282856117c2565b600060209050601f8311600181146118b957600084156118a7578287015190505b6118b18582611833565b865550611919565b601f1984166118c7866116a3565b60005b828110156118ef578489015182556001820191506020850194506020810190506118ca565b8683101561190c5784890151611908601f891682611815565b8355505b6001600288020188555050505b505050505050565b7f4e487b7100000000000000000000000000000000000000000000000000000000600052603260045260246000fd5b6000815461195d8161159a565b6119678186611518565b945060018216600081146119825760018114611997576119ca565b60ff19831686528115158202860193506119ca565b6119a0856116a3565b60005b838110156119c2578154818901526001820191506020810190506119a3565b838801955050505b50505092915050565b60006119df8284611950565b915081905092915050565b7f4e487b7100000000000000000000000000000000000000000000000000000000600052601160045260246000fd5b6000611a24826111d2565b91507fffffffffffffffffffffffffffffffffffffffffffffffffffffffffffffffff8203611a5657611a556119ea565b5b600182019050919050565b7f436172206973206e6f7420617661696c61626c65206f7220646f6573206e6f7460008201527f2065786973740000000000000000000000000000000000000000000000000000602082015250565b6000611abd60268361113f565b9150611ac882611a61565b604082019050919050565b60006020820190508181036000830152611aec81611ab0565b9050919050565b7f596f7520617265206e6f7420746865206f776e6572206f66207468697320636160008201527f7200000000000000000000000000000000000000000000000000000000000000602082015250565b6000611b4f60218361113f565b9150611b5a82611af3565b604082019050919050565b60006020820190508181036000830152611b7e81611b42565b9050919050565b6000611b90826111d2565b9150611b9b836111d2565b9250828203905081811115611bb357611bb26119ea565b5b92915050565b600081549050611bc88161159a565b9050919050565b60008190508160005260206000209050919050565b818103611bf2575050611cca565b611bfb82611bb9565b67ffffffffffffffff811115611c1457611c13610fc0565b5b611c1e825461159a565b611c298282856117c2565b6000601f831160018114611c585760008415611c46578287015490505b611c508582611833565b865550611cc3565b601f198416611c6687611bcf565b9650611c71866116a3565b60005b82811015611c9957848901548255600182019150600185019450602081019050611c74565b86831015611cb65784890154611cb2601f891682611815565b8355505b6001600288020188555050505b5050505050505b565b7f4e487b7100000000000000000000000000000000000000000000000000000000600052603160045260246000fdfea264697066735822122062eb6364edd40976c204693c972f6603fbac33e3f824468e0f0e8e818622c25e64736f6c63430008130033",
  "immutableReferences": {},
  "source": "// SPDX-License-Identifier: MIT \npragma solidity ^0.8.19;\n\ncontract CarRegistry {\n\n    struct Car {\n        string model;\n        string plate;\n        uint32 autonomy;\n        uint256 price;\n        uint256 dailyCharge;\n        bool available;\n        address owner;\n    }\n\n    mapping(string => Car) private cars;\n    mapping(address => string[]) private ownerCarPlates;\n    string[] private allCarPlates;\n\n    function registerCar(string memory _model, string memory _plate,  uint32 _autonomy, uint256 _price, uint256 _dailyCharge) public {\n        require(bytes(cars[_plate].plate).length == 0, \"Car already registered\");\n\n        cars[_plate] = Car({\n            model: _model, \n            plate: _plate,\n            autonomy: _autonomy,\n            price: _price,\n            dailyCharge: _dailyCharge,\n            available: true,\n            owner: msg.sender\n        });\n        allCarPlates.push(_plate);\n        ownerCarPlates[msg.sender].push(_plate);\n    }\n\n    function toggleCarAvailability(string memory _plate) public {\n        Car storage car = cars[_plate];\n        require(bytes(car.plate).length != 0, \"Car not registered\");\n        car.available = !car.available;\n    }\n\n    function getCar(string memory _plate) public view returns (string memory, string memory, uint32, uint256, uint256, bool, address) {\n        Car memory car = cars[_plate];\n\n        require(bytes(car.plate).length != 0, \"Car not registered\");\n\n        return (car.model, car.plate, car.autonomy, car.price, car.dailyCharge, car.available, car.owner);\n    }\n    \n    function isCarRegistered(string memory _plate) public view returns (bool) {\n        return cars[_plate].owner != address(0);\n    }\n\n    function getAvailableCarPlates() public view returns (string[] memory) {\n        string[] memory availablePlates = new string[](allCarPlates.length);\n        uint counter = 0;\n\n        // Filtramos las matriculas de los coches que estn disponibles\n        for (uint i = 0; i < allCarPlates.length; i++) {\n            if (cars[allCarPlates[i]].available) {\n                availablePlates[counter] = allCarPlates[i];\n                counter++;\n            }\n        }\n\n        // Redimensionamos el array de resultados\n        string[] memory filteredPlates = new string[](counter);\n        for (uint i = 0; i < counter; i++) {\n            filteredPlates[i] = availablePlates[i];\n        }\n\n        return filteredPlates;\n    }\n\n    function getOwnerCarPlates() public view returns (string[] memory) {\n        return ownerCarPlates[msg.sender];\n    }\n\n    function deleteCar(string memory _plate) public {\n        // Comprobamos que exista y que esta disponible\n        require(cars[_plate].available, \"Car is not available or does not exist\");\n        // Comprobamos que quien trata de borrar el coche, es el propietario\n        require(cars[_plate].owner == msg.sender, \"You are not the owner of this car\");\n\n        // Lo eliminamos de la lista de matriculas del propietario\n        string[] storage ownerPlates = ownerCarPlates[msg.sender];\n        for (uint256 i = 0; i < ownerPlates.length; i++) {\n            if (keccak256(abi.encodePacked(ownerPlates[i])) == keccak256(abi.encodePacked(_plate))) {\n                ownerPlates[i] = ownerPlates[ownerPlates.length - 1];\n                ownerPlates.pop();\n                break;\n            }\n        }\n\n        // Lo eliminamos de la lista de todas las matriculas\n        for (uint256 i = 0; i < allCarPlates.length; i++) {\n            if (keccak256(abi.encodePacked(allCarPlates[i])) == keccak256(abi.encodePacked(_plate))) {\n                allCarPlates[i] = allCarPlates[allCarPlates.length - 1];\n                allCarPlates.pop();\n                break;\n            }\n        }\n\n        // Eliminamos los datos del coche\n        delete cars[_plate];\n    }\n}\n",
  "sourcePath": "/home/tote/master/tfm/contracts/CarRegistry.sol",
  "compiler": {
    "name": "solc",
    "version": "0.8.19+commit.7dd6d404.Emscripten.clang"
  },
  "schemaVersion": "3.4.16",
  "updatedAt": "2024-06-26T18:18:05.240Z",
  "networkType": "ethereum",
  "devdoc": {
    "kind": "dev",
    "methods": {},
    "version": 1
  },
  "userdoc": {
    "kind": "user",
    "methods": {},
    "version": 1
  }
}