{
  "contractName": "CarRental",
  "abi": [
    {
      "inputs": [
        {
          "internalType": "string",
          "name": "_plate",
          "type": "string"
        },
        {
          "internalType": "uint256",
          "name": "_price",
          "type": "uint256"
        },
        {
          "internalType": "string",
          "name": "_contactPhone",
          "type": "string"
        },
        {
          "internalType": "address",
          "name": "_owner",
          "type": "address"
        }
      ],
      "name": "rentCar",
      "outputs": [],
      "stateMutability": "payable",
      "type": "function",
      "payable": true
    },
    {
      "inputs": [
        {
          "internalType": "string",
          "name": "_plate",
          "type": "string"
        }
      ],
      "name": "returnCar",
      "outputs": [],
      "stateMutability": "nonpayable",
      "type": "function"
    },
    {
      "inputs": [
        {
          "internalType": "address",
          "name": "_client",
          "type": "address"
        }
      ],
      "name": "getActiveRentalsByClient",
      "outputs": [
        {
          "components": [
            {
              "internalType": "string",
              "name": "plate",
              "type": "string"
            },
            {
              "internalType": "uint256",
              "name": "price",
              "type": "uint256"
            },
            {
              "internalType": "string",
              "name": "contactPhone",
              "type": "string"
            },
            {
              "internalType": "address",
              "name": "client",
              "type": "address"
            },
            {
              "internalType": "address",
              "name": "owner",
              "type": "address"
            },
            {
              "internalType": "bool",
              "name": "active",
              "type": "bool"
            }
          ],
          "internalType": "struct CarRental.Rental[]",
          "name": "",
          "type": "tuple[]"
        }
      ],
      "stateMutability": "view",
      "type": "function",
      "constant": true
    }
  ],
  "bytecode": "0x608060405234801561001057600080fd5b50611bfa806100206000396000f3fe6080604052600436106100345760003560e01c80639773b41114610039578063e8c9fb9414610076578063eeb2ac0c1461009f575b600080fd5b34801561004557600080fd5b50610060600480360381019061005b9190610fa5565b6100bb565b60405161006d91906111f7565b60405180910390f35b34801561008257600080fd5b5061009d6004803603810190610098919061134e565b610503565b005b6100b960048036038101906100b491906113c3565b610ac7565b005b60606000805b600180549050811015610181578373ffffffffffffffffffffffffffffffffffffffff166000600183815481106100fb576100fa611462565b5b906000526020600020016040516101129190611594565b908152602001604051809103902060030160009054906101000a900473ffffffffffffffffffffffffffffffffffffffff1673ffffffffffffffffffffffffffffffffffffffff160361016e57818061016a906115da565b9250505b8080610179906115da565b9150506100c1565b5060008167ffffffffffffffff81111561019e5761019d611223565b5b6040519080825280602002602001820160405280156101d757816020015b6101c4610e72565b8152602001906001900390816101bc5790505b5090506000805b6001805490508110156104f7578573ffffffffffffffffffffffffffffffffffffffff1660006001838154811061021857610217611462565b5b9060005260206000200160405161022f9190611594565b908152602001604051809103902060030160009054906101000a900473ffffffffffffffffffffffffffffffffffffffff1673ffffffffffffffffffffffffffffffffffffffff16036104e45760006001828154811061029257610291611462565b5b906000526020600020016040516102a99190611594565b90815260200160405180910390206040518060c00160405290816000820180546102d2906114c0565b80601f01602080910402602001604051908101604052809291908181526020018280546102fe906114c0565b801561034b5780601f106103205761010080835404028352916020019161034b565b820191906000526020600020905b81548152906001019060200180831161032e57829003601f168201915b505050505081526020016001820154815260200160028201805461036e906114c0565b80601f016020809104026020016040519081016040528092919081815260200182805461039a906114c0565b80156103e75780601f106103bc576101008083540402835291602001916103e7565b820191906000526020600020905b8154815290600101906020018083116103ca57829003601f168201915b505050505081526020016003820160009054906101000a900473ffffffffffffffffffffffffffffffffffffffff1673ffffffffffffffffffffffffffffffffffffffff1673ffffffffffffffffffffffffffffffffffffffff1681526020016004820160009054906101000a900473ffffffffffffffffffffffffffffffffffffffff1673ffffffffffffffffffffffffffffffffffffffff1673ffffffffffffffffffffffffffffffffffffffff1681526020016004820160149054906101000a900460ff1615151515815250508383815181106104ca576104c9611462565b5b602002602001018190525081806104e0906115da565b9250505b80806104ef906115da565b9150506101de565b50819350505050919050565b803373ffffffffffffffffffffffffffffffffffffffff1660008260405161052b9190611653565b908152602001604051809103902060030160009054906101000a900473ffffffffffffffffffffffffffffffffffffffff1673ffffffffffffffffffffffffffffffffffffffff16146105b3576040517f08c379a00000000000000000000000000000000000000000000000000000000081526004016105aa906116ed565b60405180910390fd5b600080836040516105c49190611653565b908152602001604051809103902090508060040160149054906101000a900460ff16610625576040517f08c379a000000000000000000000000000000000000000000000000000000000815260040161061c90611759565b60405180910390fd5b60026040518060c00160405280836000018054610641906114c0565b80601f016020809104026020016040519081016040528092919081815260200182805461066d906114c0565b80156106ba5780601f1061068f576101008083540402835291602001916106ba565b820191906000526020600020905b81548152906001019060200180831161069d57829003601f168201915b50505050508152602001836001015481526020018360020180546106dd906114c0565b80601f0160208091040260200160405190810160405280929190818152602001828054610709906114c0565b80156107565780601f1061072b57610100808354040283529160200191610756565b820191906000526020600020905b81548152906001019060200180831161073957829003601f168201915b505050505081526020018360030160009054906101000a900473ffffffffffffffffffffffffffffffffffffffff1673ffffffffffffffffffffffffffffffffffffffff1681526020018360040160009054906101000a900473ffffffffffffffffffffffffffffffffffffffff1673ffffffffffffffffffffffffffffffffffffffff16815260200160001515815250908060018154018082558091505060019003906000526020600020906005020160009091909190915060008201518160000190816108259190611910565b506020820151816001015560408201518160020190816108459190611910565b5060608201518160030160006101000a81548173ffffffffffffffffffffffffffffffffffffffff021916908373ffffffffffffffffffffffffffffffffffffffff16021790555060808201518160040160006101000a81548173ffffffffffffffffffffffffffffffffffffffff021916908373ffffffffffffffffffffffffffffffffffffffff16021790555060a08201518160040160146101000a81548160ff021916908315150217905550505060005b600180549050811015610a1657836040516020016109179190611653565b604051602081830303815290604052805190602001206001828154811061094157610940611462565b5b9060005260206000200160405160200161095b9190611594565b6040516020818303038152906040528051906020012003610a0357600180808054905061098891906119e2565b8154811061099957610998611462565b5b90600052602060002001600182815481106109b7576109b6611462565b5b9060005260206000200190816109cd9190611a41565b5060018054806109e0576109df611b29565b5b6001900381819060005260206000200160006109fc9190610ed6565b9055610a16565b8080610a0e906115da565b9150506108f9565b50600083604051610a279190611653565b908152602001604051809103902060008082016000610a469190610ed6565b6001820160009055600282016000610a5e9190610ed6565b6003820160006101000a81549073ffffffffffffffffffffffffffffffffffffffff02191690556004820160006101000a81549073ffffffffffffffffffffffffffffffffffffffff02191690556004820160146101000a81549060ff02191690555050505050565b600073ffffffffffffffffffffffffffffffffffffffff16600085604051610aef9190611653565b908152602001604051809103902060030160009054906101000a900473ffffffffffffffffffffffffffffffffffffffff1673ffffffffffffffffffffffffffffffffffffffff1614610b77576040517f08c379a0000000000000000000000000000000000000000000000000000000008152600401610b6e90611ba4565b60405180910390fd5b60006040518060c001604052808681526020018581526020018481526020013373ffffffffffffffffffffffffffffffffffffffff1681526020018373ffffffffffffffffffffffffffffffffffffffff16815260200160011515815250905080600086604051610be89190611653565b90815260200160405180910390206000820151816000019081610c0b9190611910565b50602082015181600101556040820151816002019081610c2b9190611910565b5060608201518160030160006101000a81548173ffffffffffffffffffffffffffffffffffffffff021916908373ffffffffffffffffffffffffffffffffffffffff16021790555060808201518160040160006101000a81548173ffffffffffffffffffffffffffffffffffffffff021916908373ffffffffffffffffffffffffffffffffffffffff16021790555060a08201518160040160146101000a81548160ff021916908315150217905550905050600185908060018154018082558091505060019003906000526020600020016000909190919091509081610d119190611910565b5060028190806001815401808255809150506001900390600052602060002090600502016000909190919091506000820151816000019081610d539190611910565b50602082015181600101556040820151816002019081610d739190611910565b5060608201518160030160006101000a81548173ffffffffffffffffffffffffffffffffffffffff021916908373ffffffffffffffffffffffffffffffffffffffff16021790555060808201518160040160006101000a81548173ffffffffffffffffffffffffffffffffffffffff021916908373ffffffffffffffffffffffffffffffffffffffff16021790555060a08201518160040160146101000a81548160ff02191690831515021790555050508173ffffffffffffffffffffffffffffffffffffffff166108fc349081150290604051600060405180830381858888f19350505050158015610e6a573d6000803e3d6000fd5b505050505050565b6040518060c00160405280606081526020016000815260200160608152602001600073ffffffffffffffffffffffffffffffffffffffff168152602001600073ffffffffffffffffffffffffffffffffffffffff1681526020016000151581525090565b508054610ee2906114c0565b6000825580601f10610ef45750610f13565b601f016020900490600052602060002090810190610f129190610f16565b5b50565b5b80821115610f2f576000816000905550600101610f17565b5090565b6000604051905090565b600080fd5b600080fd5b600073ffffffffffffffffffffffffffffffffffffffff82169050919050565b6000610f7282610f47565b9050919050565b610f8281610f67565b8114610f8d57600080fd5b50565b600081359050610f9f81610f79565b92915050565b600060208284031215610fbb57610fba610f3d565b5b6000610fc984828501610f90565b91505092915050565b600081519050919050565b600082825260208201905092915050565b6000819050602082019050919050565b600081519050919050565b600082825260208201905092915050565b60005b8381101561103857808201518184015260208101905061101d565b60008484015250505050565b6000601f19601f8301169050919050565b600061106082610ffe565b61106a8185611009565b935061107a81856020860161101a565b61108381611044565b840191505092915050565b6000819050919050565b6110a18161108e565b82525050565b6110b081610f67565b82525050565b60008115159050919050565b6110cb816110b6565b82525050565b600060c08301600083015184820360008601526110ee8282611055565b91505060208301516111036020860182611098565b506040830151848203604086015261111b8282611055565b915050606083015161113060608601826110a7565b50608083015161114360808601826110a7565b5060a083015161115660a08601826110c2565b508091505092915050565b600061116d83836110d1565b905092915050565b6000602082019050919050565b600061118d82610fd2565b6111978185610fdd565b9350836020820285016111a985610fee565b8060005b858110156111e557848403895281516111c68582611161565b94506111d183611175565b925060208a019950506001810190506111ad565b50829750879550505050505092915050565b600060208201905081810360008301526112118184611182565b905092915050565b600080fd5b600080fd5b7f4e487b7100000000000000000000000000000000000000000000000000000000600052604160045260246000fd5b61125b82611044565b810181811067ffffffffffffffff8211171561127a57611279611223565b5b80604052505050565b600061128d610f33565b90506112998282611252565b919050565b600067ffffffffffffffff8211156112b9576112b8611223565b5b6112c282611044565b9050602081019050919050565b82818337600083830152505050565b60006112f16112ec8461129e565b611283565b90508281526020810184848401111561130d5761130c61121e565b5b6113188482856112cf565b509392505050565b600082601f83011261133557611334611219565b5b81356113458482602086016112de565b91505092915050565b60006020828403121561136457611363610f3d565b5b600082013567ffffffffffffffff81111561138257611381610f42565b5b61138e84828501611320565b91505092915050565b6113a08161108e565b81146113ab57600080fd5b50565b6000813590506113bd81611397565b92915050565b600080600080608085870312156113dd576113dc610f3d565b5b600085013567ffffffffffffffff8111156113fb576113fa610f42565b5b61140787828801611320565b9450506020611418878288016113ae565b935050604085013567ffffffffffffffff81111561143957611438610f42565b5b61144587828801611320565b925050606061145687828801610f90565b91505092959194509250565b7f4e487b7100000000000000000000000000000000000000000000000000000000600052603260045260246000fd5b7f4e487b7100000000000000000000000000000000000000000000000000000000600052602260045260246000fd5b600060028204905060018216806114d857607f821691505b6020821081036114eb576114ea611491565b5b50919050565b600081905092915050565b60008190508160005260206000209050919050565b6000815461151e816114c0565b61152881866114f1565b9450600182166000811461154357600181146115585761158b565b60ff198316865281151582028601935061158b565b611561856114fc565b60005b8381101561158357815481890152600182019150602081019050611564565b838801955050505b50505092915050565b60006115a08284611511565b915081905092915050565b7f4e487b7100000000000000000000000000000000000000000000000000000000600052601160045260246000fd5b60006115e58261108e565b91507fffffffffffffffffffffffffffffffffffffffffffffffffffffffffffffffff8203611617576116166115ab565b5b600182019050919050565b600061162d82610ffe565b61163781856114f1565b935061164781856020860161101a565b80840191505092915050565b600061165f8284611622565b915081905092915050565b600082825260208201905092915050565b7f596f7520617265206e6f742074686520636c69656e74206f662074686973207260008201527f656e74616c000000000000000000000000000000000000000000000000000000602082015250565b60006116d760258361166a565b91506116e28261167b565b604082019050919050565b60006020820190508181036000830152611706816116ca565b9050919050565b7f436172206973206e6f742063757272656e746c792072656e7465640000000000600082015250565b6000611743601b8361166a565b915061174e8261170d565b602082019050919050565b6000602082019050818103600083015261177281611736565b9050919050565b60006020601f8301049050919050565b600082821b905092915050565b6000600883026117c67fffffffffffffffffffffffffffffffffffffffffffffffffffffffffffffffff82611789565b6117d08683611789565b95508019841693508086168417925050509392505050565b6000819050919050565b600061180d6118086118038461108e565b6117e8565b61108e565b9050919050565b6000819050919050565b611827836117f2565b61183b61183382611814565b848454611796565b825550505050565b600090565b611850611843565b61185b81848461181e565b505050565b5b8181101561187f57611874600082611848565b600181019050611861565b5050565b601f8211156118c457611895816114fc565b61189e84611779565b810160208510156118ad578190505b6118c16118b985611779565b830182611860565b50505b505050565b600082821c905092915050565b60006118e7600019846008026118c9565b1980831691505092915050565b600061190083836118d6565b9150826002028217905092915050565b61191982610ffe565b67ffffffffffffffff81111561193257611931611223565b5b61193c82546114c0565b611947828285611883565b600060209050601f83116001811461197a5760008415611968578287015190505b61197285826118f4565b8655506119da565b601f198416611988866114fc565b60005b828110156119b05784890151825560018201915060208501945060208101905061198b565b868310156119cd57848901516119c9601f8916826118d6565b8355505b6001600288020188555050505b505050505050565b60006119ed8261108e565b91506119f88361108e565b9250828203905081811115611a1057611a0f6115ab565b5b92915050565b600081549050611a25816114c0565b9050919050565b60008190508160005260206000209050919050565b818103611a4f575050611b27565b611a5882611a16565b67ffffffffffffffff811115611a7157611a70611223565b5b611a7b82546114c0565b611a86828285611883565b6000601f831160018114611ab55760008415611aa3578287015490505b611aad85826118f4565b865550611b20565b601f198416611ac387611a2c565b9650611ace866114fc565b60005b82811015611af657848901548255600182019150600185019450602081019050611ad1565b86831015611b135784890154611b0f601f8916826118d6565b8355505b6001600288020188555050505b5050505050505b565b7f4e487b7100000000000000000000000000000000000000000000000000000000600052603160045260246000fd5b7f43617220697320616c72656164792072656e7465640000000000000000000000600082015250565b6000611b8e60158361166a565b9150611b9982611b58565b602082019050919050565b60006020820190508181036000830152611bbd81611b81565b905091905056fea264697066735822122035578a5c0fe65e8429e669a0f08c0a1194b853fadd779ac633a8fd29a06cabb764736f6c63430008130033",
  "immutableReferences": {},
  "source": "// SPDX-License-Identifier: MIT \npragma solidity ^0.8.19;\n\ncontract CarRental {\n\n    struct Rental {\n        string plate;\n        uint price;\n        string contactPhone;\n        address client;\n        address owner;\n        bool active;\n    }\n\n    mapping(string => Rental) private activeRentals;\n    string[] private activePlates;\n    Rental[] private rentalHistory;\n\n    modifier onlyClient(string memory _plate) {\n        require(activeRentals[_plate].client == msg.sender, \"You are not the client of this rental\");\n        _;\n    }\n\n    function rentCar(string memory _plate, uint _price, string memory _contactPhone, address _owner) public payable {\n        require(activeRentals[_plate].client == address(0), \"Car is already rented\");\n\n        Rental memory newRental = Rental({\n            plate: _plate,\n            price: _price,\n            contactPhone: _contactPhone,\n            client: msg.sender,\n            owner: _owner,\n            active: true\n        });\n\n        activeRentals[_plate] = newRental;\n        activePlates.push(_plate);\n        rentalHistory.push(newRental);\n\n        // Transferimos pago al propietario\n        payable(_owner).transfer(msg.value);\n    }\n\n    function returnCar(string memory _plate) public onlyClient(_plate) {\n        Rental storage rental = activeRentals[_plate];\n        require(rental.active, \"Car is not currently rented\");\n\n        rentalHistory.push(Rental({\n            plate: rental.plate,\n            price: rental.price,\n            contactPhone: rental.contactPhone,\n            client: rental.client,\n            owner: rental.owner,\n            active: false\n        }));\n\n        // Eliminamos la matrcula del array de matrculas activas\n        for (uint i = 0; i < activePlates.length; i++) {\n            if (keccak256(abi.encodePacked(activePlates[i])) == keccak256(abi.encodePacked(_plate))) {\n                activePlates[i] = activePlates[activePlates.length - 1];\n                activePlates.pop();\n                break;\n            }\n        }\n\n        // Eliminamos la renta (por lo que no hace falta actualizar su estado)\n        delete activeRentals[_plate];\n    }\n\n    function getActiveRentalsByClient(address _client) public view returns (Rental[] memory) {\n        uint count = 0;\n        // Contamos la cantidad de rentas activas del cliente\n        for (uint i = 0; i < activePlates.length; i++) {\n            if (activeRentals[activePlates[i]].client == _client) {\n                count++;\n            }\n        }\n\n        Rental[] memory activeRentalsByClient = new Rental[](count);\n        uint index = 0;\n        // LLenamos el array con las rentas activas del cliente\n        for (uint i = 0; i < activePlates.length; i++) {\n            if (activeRentals[activePlates[i]].client == _client) {\n                activeRentalsByClient[index] = activeRentals[activePlates[i]];\n                index++;\n            }\n        }\n\n        return activeRentalsByClient;\n    }\n}\n",
  "sourcePath": "/home/tote/master/tfm/contracts/CarRental.sol",
  "compiler": {
    "name": "solc",
    "version": "0.8.19+commit.7dd6d404.Emscripten.clang"
  },
  "schemaVersion": "3.4.16",
  "updatedAt": "2024-06-28T15:34:18.992Z",
  "networkType": "ethereum",
  "devdoc": {
    "kind": "dev",
    "methods": {},
    "version": 1
  },
  "userdoc": {
    "kind": "user",
    "methods": {},
    "version": 1
  }
}