{
  "contractName": "CarRentalContract",
  "abi": [
    {
      "inputs": [
        {
          "internalType": "address",
          "name": "_carRegistryAddress",
          "type": "address"
        }
      ],
      "stateMutability": "nonpayable",
      "type": "constructor"
    },
    {
      "inputs": [],
      "name": "carRegistryAddress",
      "outputs": [
        {
          "internalType": "address",
          "name": "",
          "type": "address"
        }
      ],
      "stateMutability": "view",
      "type": "function",
      "constant": true
    },
    {
      "inputs": [
        {
          "internalType": "string",
          "name": "",
          "type": "string"
        }
      ],
      "name": "rentals",
      "outputs": [
        {
          "internalType": "string",
          "name": "plate",
          "type": "string"
        },
        {
          "internalType": "uint256",
          "name": "price",
          "type": "uint256"
        },
        {
          "internalType": "uint256",
          "name": "pricePerDay",
          "type": "uint256"
        },
        {
          "internalType": "uint256",
          "name": "funds",
          "type": "uint256"
        },
        {
          "internalType": "uint256",
          "name": "charges",
          "type": "uint256"
        },
        {
          "internalType": "string",
          "name": "phone",
          "type": "string"
        },
        {
          "internalType": "address",
          "name": "owner",
          "type": "address"
        },
        {
          "internalType": "address",
          "name": "client",
          "type": "address"
        }
      ],
      "stateMutability": "view",
      "type": "function",
      "constant": true
    },
    {
      "inputs": [
        {
          "internalType": "string",
          "name": "_plate",
          "type": "string"
        },
        {
          "internalType": "uint256",
          "name": "_price",
          "type": "uint256"
        },
        {
          "internalType": "uint256",
          "name": "_pricePerDay",
          "type": "uint256"
        },
        {
          "internalType": "string",
          "name": "_phone",
          "type": "string"
        },
        {
          "internalType": "address",
          "name": "_owner",
          "type": "address"
        }
      ],
      "name": "createRental",
      "outputs": [],
      "stateMutability": "payable",
      "type": "function",
      "payable": true
    },
    {
      "inputs": [
        {
          "internalType": "string",
          "name": "_plate",
          "type": "string"
        }
      ],
      "name": "getRental",
      "outputs": [
        {
          "internalType": "string",
          "name": "",
          "type": "string"
        },
        {
          "internalType": "uint256",
          "name": "",
          "type": "uint256"
        },
        {
          "internalType": "uint256",
          "name": "",
          "type": "uint256"
        },
        {
          "internalType": "uint256",
          "name": "",
          "type": "uint256"
        },
        {
          "internalType": "uint256",
          "name": "",
          "type": "uint256"
        },
        {
          "internalType": "string",
          "name": "",
          "type": "string"
        },
        {
          "internalType": "address",
          "name": "",
          "type": "address"
        },
        {
          "internalType": "address",
          "name": "",
          "type": "address"
        }
      ],
      "stateMutability": "view",
      "type": "function",
      "constant": true
    },
    {
      "inputs": [
        {
          "internalType": "address",
          "name": "_client",
          "type": "address"
        }
      ],
      "name": "getClientRentalCarPlates",
      "outputs": [
        {
          "internalType": "string[]",
          "name": "",
          "type": "string[]"
        }
      ],
      "stateMutability": "view",
      "type": "function",
      "constant": true
    }
  ],
  "bytecode": "0x60806040523480156200001157600080fd5b50604051620015a8380380620015a88339818101604052810190620000379190620000e9565b80600260006101000a81548173ffffffffffffffffffffffffffffffffffffffff021916908373ffffffffffffffffffffffffffffffffffffffff160217905550506200011b565b600080fd5b600073ffffffffffffffffffffffffffffffffffffffff82169050919050565b6000620000b18262000084565b9050919050565b620000c381620000a4565b8114620000cf57600080fd5b50565b600081519050620000e381620000b8565b92915050565b6000602082840312156200010257620001016200007f565b5b60006200011284828501620000d2565b91505092915050565b61147d806200012b6000396000f3fe60806040526004361061004a5760003560e01c806306d05b161461004f5780632e543a9f1461009357806331c5c6f8146100be578063a364d90b146100fb578063ee45c10f1461013f575b600080fd5b34801561005b57600080fd5b5061007660048036038101906100719190610bc7565b61015b565b60405161008a989796959493929190610ce9565b60405180910390f35b34801561009f57600080fd5b506100a8610309565b6040516100b59190610d75565b60405180910390f35b3480156100ca57600080fd5b506100e560048036038101906100e09190610dbc565b61032f565b6040516100f29190610ef5565b60405180910390f35b34801561010757600080fd5b50610122600480360381019061011d9190610bc7565b610447565b604051610136989796959493929190610ce9565b60405180910390f35b61015960048036038101906101549190610f43565b610705565b005b60008180516020810182018051848252602083016020850120818352809550505050505060009150905080600001805461019490611025565b80601f01602080910402602001604051908101604052809291908181526020018280546101c090611025565b801561020d5780601f106101e25761010080835404028352916020019161020d565b820191906000526020600020905b8154815290600101906020018083116101f057829003601f168201915b50505050509080600101549080600201549080600301549080600401549080600501805461023a90611025565b80601f016020809104026020016040519081016040528092919081815260200182805461026690611025565b80156102b35780601f10610288576101008083540402835291602001916102b3565b820191906000526020600020905b81548152906001019060200180831161029657829003601f168201915b5050505050908060060160009054906101000a900473ffffffffffffffffffffffffffffffffffffffff16908060070160009054906101000a900473ffffffffffffffffffffffffffffffffffffffff16905088565b600260009054906101000a900473ffffffffffffffffffffffffffffffffffffffff1681565b6060600160008373ffffffffffffffffffffffffffffffffffffffff1673ffffffffffffffffffffffffffffffffffffffff168152602001908152602001600020805480602002602001604051908101604052809291908181526020016000905b8282101561043c5783829060005260206000200180546103af90611025565b80601f01602080910402602001604051908101604052809291908181526020018280546103db90611025565b80156104285780601f106103fd57610100808354040283529160200191610428565b820191906000526020600020905b81548152906001019060200180831161040b57829003601f168201915b505050505081526020019060010190610390565b505050509050919050565b606060008060008060606000806000808a6040516104659190611092565b90815260200160405180910390206040518061010001604052908160008201805461048f90611025565b80601f01602080910402602001604051908101604052809291908181526020018280546104bb90611025565b80156105085780601f106104dd57610100808354040283529160200191610508565b820191906000526020600020905b8154815290600101906020018083116104eb57829003601f168201915b505050505081526020016001820154815260200160028201548152602001600382015481526020016004820154815260200160058201805461054990611025565b80601f016020809104026020016040519081016040528092919081815260200182805461057590611025565b80156105c25780601f10610597576101008083540402835291602001916105c2565b820191906000526020600020905b8154815290600101906020018083116105a557829003601f168201915b505050505081526020016006820160009054906101000a900473ffffffffffffffffffffffffffffffffffffffff1673ffffffffffffffffffffffffffffffffffffffff1673ffffffffffffffffffffffffffffffffffffffff1681526020016007820160009054906101000a900473ffffffffffffffffffffffffffffffffffffffff1673ffffffffffffffffffffffffffffffffffffffff1673ffffffffffffffffffffffffffffffffffffffff168152505090506000816000015151036106c1576040517f08c379a00000000000000000000000000000000000000000000000000000000081526004016106b8906110f5565b60405180910390fd5b806000015181602001518260400151836060015184608001518560a001518660c001518760e001519850985098509850985098509850985050919395975091939597565b600073ffffffffffffffffffffffffffffffffffffffff1660008660405161072d9190611092565b908152602001604051809103902060060160009054906101000a900473ffffffffffffffffffffffffffffffffffffffff1673ffffffffffffffffffffffffffffffffffffffff16146107b5576040517f08c379a00000000000000000000000000000000000000000000000000000000081526004016107ac90611187565b60405180910390fd5b60405180610100016040528086815260200185815260200184815260200160008152602001600081526020018381526020018273ffffffffffffffffffffffffffffffffffffffff1681526020013373ffffffffffffffffffffffffffffffffffffffff1681525060008660405161082d9190611092565b908152602001604051809103902060008201518160000190816108509190611353565b506020820151816001015560408201518160020155606082015181600301556080820151816004015560a082015181600501908161088e9190611353565b5060c08201518160060160006101000a81548173ffffffffffffffffffffffffffffffffffffffff021916908373ffffffffffffffffffffffffffffffffffffffff16021790555060e08201518160070160006101000a81548173ffffffffffffffffffffffffffffffffffffffff021916908373ffffffffffffffffffffffffffffffffffffffff160217905550905050600160003373ffffffffffffffffffffffffffffffffffffffff1673ffffffffffffffffffffffffffffffffffffffff168152602001908152602001600020859080600181540180825580915050600190039060005260206000200160009091909190915090816109919190611353565b508073ffffffffffffffffffffffffffffffffffffffff166108fc349081150290604051600060405180830381858888f193505050501580156109d8573d6000803e3d6000fd5b50600260009054906101000a900473ffffffffffffffffffffffffffffffffffffffff1673ffffffffffffffffffffffffffffffffffffffff16635ede7297866040518263ffffffff1660e01b8152600401610a349190611425565b600060405180830381600087803b158015610a4e57600080fd5b505af1158015610a62573d6000803e3d6000fd5b505050505050505050565b6000604051905090565b600080fd5b600080fd5b600080fd5b600080fd5b6000601f19601f8301169050919050565b7f4e487b7100000000000000000000000000000000000000000000000000000000600052604160045260246000fd5b610ad482610a8b565b810181811067ffffffffffffffff82111715610af357610af2610a9c565b5b80604052505050565b6000610b06610a6d565b9050610b128282610acb565b919050565b600067ffffffffffffffff821115610b3257610b31610a9c565b5b610b3b82610a8b565b9050602081019050919050565b82818337600083830152505050565b6000610b6a610b6584610b17565b610afc565b905082815260208101848484011115610b8657610b85610a86565b5b610b91848285610b48565b509392505050565b600082601f830112610bae57610bad610a81565b5b8135610bbe848260208601610b57565b91505092915050565b600060208284031215610bdd57610bdc610a77565b5b600082013567ffffffffffffffff811115610bfb57610bfa610a7c565b5b610c0784828501610b99565b91505092915050565b600081519050919050565b600082825260208201905092915050565b60005b83811015610c4a578082015181840152602081019050610c2f565b60008484015250505050565b6000610c6182610c10565b610c6b8185610c1b565b9350610c7b818560208601610c2c565b610c8481610a8b565b840191505092915050565b6000819050919050565b610ca281610c8f565b82525050565b600073ffffffffffffffffffffffffffffffffffffffff82169050919050565b6000610cd382610ca8565b9050919050565b610ce381610cc8565b82525050565b6000610100820190508181036000830152610d04818b610c56565b9050610d13602083018a610c99565b610d206040830189610c99565b610d2d6060830188610c99565b610d3a6080830187610c99565b81810360a0830152610d4c8186610c56565b9050610d5b60c0830185610cda565b610d6860e0830184610cda565b9998505050505050505050565b6000602082019050610d8a6000830184610cda565b92915050565b610d9981610cc8565b8114610da457600080fd5b50565b600081359050610db681610d90565b92915050565b600060208284031215610dd257610dd1610a77565b5b6000610de084828501610da7565b91505092915050565b600081519050919050565b600082825260208201905092915050565b6000819050602082019050919050565b600082825260208201905092915050565b6000610e3182610c10565b610e3b8185610e15565b9350610e4b818560208601610c2c565b610e5481610a8b565b840191505092915050565b6000610e6b8383610e26565b905092915050565b6000602082019050919050565b6000610e8b82610de9565b610e958185610df4565b935083602082028501610ea785610e05565b8060005b85811015610ee35784840389528151610ec48582610e5f565b9450610ecf83610e73565b925060208a01995050600181019050610eab565b50829750879550505050505092915050565b60006020820190508181036000830152610f0f8184610e80565b905092915050565b610f2081610c8f565b8114610f2b57600080fd5b50565b600081359050610f3d81610f17565b92915050565b600080600080600060a08688031215610f5f57610f5e610a77565b5b600086013567ffffffffffffffff811115610f7d57610f7c610a7c565b5b610f8988828901610b99565b9550506020610f9a88828901610f2e565b9450506040610fab88828901610f2e565b935050606086013567ffffffffffffffff811115610fcc57610fcb610a7c565b5b610fd888828901610b99565b9250506080610fe988828901610da7565b9150509295509295909350565b7f4e487b7100000000000000000000000000000000000000000000000000000000600052602260045260246000fd5b6000600282049050600182168061103d57607f821691505b6020821081036110505761104f610ff6565b5b50919050565b600081905092915050565b600061106c82610c10565b6110768185611056565b9350611086818560208601610c2c565b80840191505092915050565b600061109e8284611061565b915081905092915050565b7f52656e74616c20636f6e7472616374206e6f7420726567697374657265640000600082015250565b60006110df601e83610c1b565b91506110ea826110a9565b602082019050919050565b6000602082019050818103600083015261110e816110d2565b9050919050565b7f52656e74616c20666f7220746861742063617220616c7265616479206578697360008201527f7473000000000000000000000000000000000000000000000000000000000000602082015250565b6000611171602283610c1b565b915061117c82611115565b604082019050919050565b600060208201905081810360008301526111a081611164565b9050919050565b60008190508160005260206000209050919050565b60006020601f8301049050919050565b600082821b905092915050565b6000600883026112097fffffffffffffffffffffffffffffffffffffffffffffffffffffffffffffffff826111cc565b61121386836111cc565b95508019841693508086168417925050509392505050565b6000819050919050565b600061125061124b61124684610c8f565b61122b565b610c8f565b9050919050565b6000819050919050565b61126a83611235565b61127e61127682611257565b8484546111d9565b825550505050565b600090565b611293611286565b61129e818484611261565b505050565b5b818110156112c2576112b760008261128b565b6001810190506112a4565b5050565b601f821115611307576112d8816111a7565b6112e1846111bc565b810160208510156112f0578190505b6113046112fc856111bc565b8301826112a3565b50505b505050565b600082821c905092915050565b600061132a6000198460080261130c565b1980831691505092915050565b60006113438383611319565b9150826002028217905092915050565b61135c82610c10565b67ffffffffffffffff81111561137557611374610a9c565b5b61137f8254611025565b61138a8282856112c6565b600060209050601f8311600181146113bd57600084156113ab578287015190505b6113b58582611337565b86555061141d565b601f1984166113cb866111a7565b60005b828110156113f3578489015182556001820191506020850194506020810190506113ce565b86831015611410578489015161140c601f891682611319565b8355505b6001600288020188555050505b505050505050565b6000602082019050818103600083015261143f8184610c56565b90509291505056fea2646970667358221220fef3533c619cff859ae7263f9358d3a14f50a4a3c1ebaf27462974f6bcf4ddb264736f6c63430008130033",
  "immutableReferences": {},
  "source": "// SPDX-License-Identifier: MIT \npragma solidity ^0.8.19;\n\ninterface ICarRegistry {\n    function toggleCarAvailability(string memory _plate) external;\n}\n\ncontract CarRentalContract {\n\n    struct RentalContract {\n        string plate;\n        uint price;\n        uint pricePerDay;\n        uint funds;\n        uint charges;\n        string phone;\n        address owner;\n        address client;\n    }\n\n    mapping(string => RentalContract) public rentals;\n    mapping(address => string[]) private clientRentalCarPlates;\n    address public carRegistryAddress;\n    \n    constructor(address _carRegistryAddress) {\n        carRegistryAddress = _carRegistryAddress;\n    }\n\n    function createRental(\n        string memory _plate,\n        uint _price,\n        uint _pricePerDay,\n        string memory _phone,\n        address _owner\n    ) public payable {\n        require(rentals[_plate].owner == address(0), 'Rental for that car already exists');\n\n        rentals[_plate] = RentalContract({\n            plate: _plate,\n            price: _price,\n            pricePerDay: _pricePerDay,\n            funds: 0,\n            charges: 0,\n            phone: _phone,\n            owner: _owner,\n            client: msg.sender\n        });\n        clientRentalCarPlates[msg.sender].push(_plate);\n\n        // Se transfiere el valor recibido al propietario\n        payable(_owner).transfer(msg.value);\n\n        // Invocamos la funcion toggleCarAvailability del contrato CarRegistry\n        ICarRegistry(carRegistryAddress).toggleCarAvailability(_plate);\n    }\n\n    function getRental(string memory _plate) public view returns (string memory, uint, uint, uint, uint, string memory, address, address) {\n        RentalContract memory rentalContract = rentals[_plate];\n\n        require(bytes(rentalContract.plate).length != 0, \"Rental contract not registered\");\n\n        return (rentalContract.plate, rentalContract.price, rentalContract.pricePerDay, rentalContract.funds, rentalContract.charges, rentalContract.phone, rentalContract.owner, rentalContract.client);\n    }\n\n    function getClientRentalCarPlates(address _client) public view returns (string[] memory) {\n        return clientRentalCarPlates[_client];\n    }\n}\n",
  "sourcePath": "/home/tote/master/tfm/contracts/CarRentalContract.sol",
  "compiler": {
    "name": "solc",
    "version": "0.8.19+commit.7dd6d404.Emscripten.clang"
  },
  "schemaVersion": "3.4.16",
  "updatedAt": "2024-06-25T12:35:33.388Z",
  "networkType": "ethereum",
  "devdoc": {
    "kind": "dev",
    "methods": {},
    "version": 1
  },
  "userdoc": {
    "kind": "user",
    "methods": {},
    "version": 1
  }
}