{
  "contractName": "RegisterUser",
  "abi": [
    {
      "anonymous": false,
      "inputs": [
        {
          "indexed": false,
          "internalType": "string",
          "name": "dni",
          "type": "string"
        },
        {
          "indexed": false,
          "internalType": "string",
          "name": "name",
          "type": "string"
        }
      ],
      "name": "UserRegistered",
      "type": "event"
    },
    {
      "inputs": [
        {
          "internalType": "string",
          "name": "",
          "type": "string"
        }
      ],
      "name": "users",
      "outputs": [
        {
          "internalType": "string",
          "name": "dni",
          "type": "string"
        },
        {
          "internalType": "string",
          "name": "name",
          "type": "string"
        }
      ],
      "stateMutability": "view",
      "type": "function",
      "constant": true
    },
    {
      "inputs": [
        {
          "internalType": "string",
          "name": "_dni",
          "type": "string"
        },
        {
          "internalType": "string",
          "name": "_name",
          "type": "string"
        }
      ],
      "name": "registerUser",
      "outputs": [],
      "stateMutability": "nonpayable",
      "type": "function"
    },
    {
      "inputs": [
        {
          "internalType": "string",
          "name": "_dni",
          "type": "string"
        }
      ],
      "name": "getUser",
      "outputs": [
        {
          "components": [
            {
              "internalType": "string",
              "name": "dni",
              "type": "string"
            },
            {
              "internalType": "string",
              "name": "name",
              "type": "string"
            }
          ],
          "internalType": "struct RegisterUser.User",
          "name": "",
          "type": "tuple"
        }
      ],
      "stateMutability": "view",
      "type": "function",
      "constant": true
    }
  ],
  "bytecode": "0x6080604052348015600e575f80fd5b50610df98061001c5f395ff3fe608060405234801561000f575f80fd5b506004361061003f575f3560e01c80631d2e4afd1461004357806331feb6711461005f578063689e1c031461008f575b5f80fd5b61005d600480360381019061005891906105f0565b6100c0565b005b6100796004803603810190610074919061066e565b610259565b604051610086919061076a565b60405180910390f35b6100a960048036038101906100a491906108b2565b610421565b6040516100b7929190610941565b60405180910390f35b5f8085856040516100d29291906109a4565b90815260200160405180910390205f0180546100ed906109e9565b90501461012f576040517f08c379a000000000000000000000000000000000000000000000000000000000815260040161012690610a63565b60405180910390fd5b604051806040016040528085858080601f0160208091040260200160405190810160405280939291908181526020018383808284375f81840152601f19601f82011690508083019250505050505050815260200183838080601f0160208091040260200160405190810160405280939291908181526020018383808284375f81840152601f19601f820116905080830192505050505050508152505f85856040516101db9291906109a4565b90815260200160405180910390205f820151815f0190816101fc9190610c27565b5060208201518160010190816102129190610c27565b509050507f996d7324173609959370942b1ee1b743dc623b3d50459e66c1d55df55e5a9f378484848460405161024b9493929190610d22565b60405180910390a150505050565b610261610564565b5f8084846040516102739291906109a4565b90815260200160405180910390205f01805461028e906109e9565b9050036102d0576040517f08c379a00000000000000000000000000000000000000000000000000000000081526004016102c790610da5565b60405180910390fd5b5f83836040516102e19291906109a4565b90815260200160405180910390206040518060400160405290815f82018054610309906109e9565b80601f0160208091040260200160405190810160405280929190818152602001828054610335906109e9565b80156103805780601f1061035757610100808354040283529160200191610380565b820191905f5260205f20905b81548152906001019060200180831161036357829003601f168201915b50505050508152602001600182018054610399906109e9565b80601f01602080910402602001604051908101604052809291908181526020018280546103c5906109e9565b80156104105780601f106103e757610100808354040283529160200191610410565b820191905f5260205f20905b8154815290600101906020018083116103f357829003601f168201915b505050505081525050905092915050565b5f818051602081018201805184825260208301602085012081835280955050505050505f91509050805f018054610457906109e9565b80601f0160208091040260200160405190810160405280929190818152602001828054610483906109e9565b80156104ce5780601f106104a5576101008083540402835291602001916104ce565b820191905f5260205f20905b8154815290600101906020018083116104b157829003601f168201915b5050505050908060010180546104e3906109e9565b80601f016020809104026020016040519081016040528092919081815260200182805461050f906109e9565b801561055a5780601f106105315761010080835404028352916020019161055a565b820191905f5260205f20905b81548152906001019060200180831161053d57829003601f168201915b5050505050905082565b604051806040016040528060608152602001606081525090565b5f604051905090565b5f80fd5b5f80fd5b5f80fd5b5f80fd5b5f80fd5b5f8083601f8401126105b0576105af61058f565b5b8235905067ffffffffffffffff8111156105cd576105cc610593565b5b6020830191508360018202830111156105e9576105e8610597565b5b9250929050565b5f805f806040858703121561060857610607610587565b5b5f85013567ffffffffffffffff8111156106255761062461058b565b5b6106318782880161059b565b9450945050602085013567ffffffffffffffff8111156106545761065361058b565b5b6106608782880161059b565b925092505092959194509250565b5f806020838503121561068457610683610587565b5b5f83013567ffffffffffffffff8111156106a1576106a061058b565b5b6106ad8582860161059b565b92509250509250929050565b5f81519050919050565b5f82825260208201905092915050565b8281835e5f83830152505050565b5f601f19601f8301169050919050565b5f6106fb826106b9565b61070581856106c3565b93506107158185602086016106d3565b61071e816106e1565b840191505092915050565b5f604083015f8301518482035f86015261074382826106f1565b9150506020830151848203602086015261075d82826106f1565b9150508091505092915050565b5f6020820190508181035f8301526107828184610729565b905092915050565b5f80fd5b7f4e487b71000000000000000000000000000000000000000000000000000000005f52604160045260245ffd5b6107c4826106e1565b810181811067ffffffffffffffff821117156107e3576107e261078e565b5b80604052505050565b5f6107f561057e565b905061080182826107bb565b919050565b5f67ffffffffffffffff8211156108205761081f61078e565b5b610829826106e1565b9050602081019050919050565b828183375f83830152505050565b5f61085661085184610806565b6107ec565b9050828152602081018484840111156108725761087161078a565b5b61087d848285610836565b509392505050565b5f82601f8301126108995761089861058f565b5b81356108a9848260208601610844565b91505092915050565b5f602082840312156108c7576108c6610587565b5b5f82013567ffffffffffffffff8111156108e4576108e361058b565b5b6108f084828501610885565b91505092915050565b5f82825260208201905092915050565b5f610913826106b9565b61091d81856108f9565b935061092d8185602086016106d3565b610936816106e1565b840191505092915050565b5f6040820190508181035f8301526109598185610909565b9050818103602083015261096d8184610909565b90509392505050565b5f81905092915050565b5f61098b8385610976565b9350610998838584610836565b82840190509392505050565b5f6109b0828486610980565b91508190509392505050565b7f4e487b71000000000000000000000000000000000000000000000000000000005f52602260045260245ffd5b5f6002820490506001821680610a0057607f821691505b602082108103610a1357610a126109bc565b5b50919050565b7f5573657220616c726561647920726567697374657265642e00000000000000005f82015250565b5f610a4d6018836108f9565b9150610a5882610a19565b602082019050919050565b5f6020820190508181035f830152610a7a81610a41565b9050919050565b5f819050815f5260205f209050919050565b5f6020601f8301049050919050565b5f82821b905092915050565b5f60088302610add7fffffffffffffffffffffffffffffffffffffffffffffffffffffffffffffffff82610aa2565b610ae78683610aa2565b95508019841693508086168417925050509392505050565b5f819050919050565b5f819050919050565b5f610b2b610b26610b2184610aff565b610b08565b610aff565b9050919050565b5f819050919050565b610b4483610b11565b610b58610b5082610b32565b848454610aae565b825550505050565b5f90565b610b6c610b60565b610b77818484610b3b565b505050565b5b81811015610b9a57610b8f5f82610b64565b600181019050610b7d565b5050565b601f821115610bdf57610bb081610a81565b610bb984610a93565b81016020851015610bc8578190505b610bdc610bd485610a93565b830182610b7c565b50505b505050565b5f82821c905092915050565b5f610bff5f1984600802610be4565b1980831691505092915050565b5f610c178383610bf0565b9150826002028217905092915050565b610c30826106b9565b67ffffffffffffffff811115610c4957610c4861078e565b5b610c5382546109e9565b610c5e828285610b9e565b5f60209050601f831160018114610c8f575f8415610c7d578287015190505b610c878582610c0c565b865550610cee565b601f198416610c9d86610a81565b5f5b82811015610cc457848901518255600182019150602085019450602081019050610c9f565b86831015610ce15784890151610cdd601f891682610bf0565b8355505b6001600288020188555050505b505050505050565b5f610d0183856108f9565b9350610d0e838584610836565b610d17836106e1565b840190509392505050565b5f6040820190508181035f830152610d3b818688610cf6565b90508181036020830152610d50818486610cf6565b905095945050505050565b7f55736572206e6f7420666f756e642e00000000000000000000000000000000005f82015250565b5f610d8f600f836108f9565b9150610d9a82610d5b565b602082019050919050565b5f6020820190508181035f830152610dbc81610d83565b905091905056fea2646970667358221220a6284eb05b59fe13a9b7071a01491ed3ba2d84de4ba447a96bace8ca70fa7fa764736f6c63430008190033",
  "immutableReferences": {},
  "source": "// SPDX-License-Identifier: MIT\n// Tells the Solidity compiler to compile only from v0.8.13 to v0.9.0\npragma solidity ^0.8.13;\n\ncontract RegisterUser {\n    struct User {\n        string dni;\n        string name;\n    }\n\n    mapping(string => User) public users;\n\n    event UserRegistered(string dni, string name);\n\n    function registerUser(string calldata _dni, string calldata _name) external {\n        require(bytes(users[_dni].dni).length == 0, \"User already registered.\");\n        users[_dni] = User(_dni, _name);\n        emit UserRegistered(_dni, _name);\n    }\n\n    function getUser(string calldata _dni) external view returns (User memory) {\n        require(bytes(users[_dni].dni).length != 0, \"User not found.\");\n        return users[_dni];\n    }\n}\n",
  "sourcePath": "/home/tote/master/tfm/contracts/RegisterUser.sol",
  "compiler": {
    "name": "solc",
    "version": "0.8.25+commit.b61c2a91.Emscripten.clang"
  },
  "schemaVersion": "3.4.16",
  "updatedAt": "2024-05-16T11:13:39.609Z",
  "networkType": "ethereum",
  "devdoc": {
    "kind": "dev",
    "methods": {},
    "version": 1
  },
  "userdoc": {
    "kind": "user",
    "methods": {},
    "version": 1
  }
}