{
  "contractName": "RegisterUser",
  "abi": [
    {
      "anonymous": false,
      "inputs": [
        {
          "indexed": false,
          "internalType": "string",
          "name": "dni",
          "type": "string"
        },
        {
          "indexed": false,
          "internalType": "string",
          "name": "name",
          "type": "string"
        }
      ],
      "name": "UserRegistered",
      "type": "event"
    },
    {
      "inputs": [
        {
          "internalType": "string",
          "name": "",
          "type": "string"
        }
      ],
      "name": "users",
      "outputs": [
        {
          "internalType": "string",
          "name": "dni",
          "type": "string"
        },
        {
          "internalType": "string",
          "name": "name",
          "type": "string"
        }
      ],
      "stateMutability": "view",
      "type": "function",
      "constant": true
    },
    {
      "inputs": [
        {
          "internalType": "string",
          "name": "_dni",
          "type": "string"
        },
        {
          "internalType": "string",
          "name": "_name",
          "type": "string"
        }
      ],
      "name": "registerUser",
      "outputs": [],
      "stateMutability": "nonpayable",
      "type": "function"
    },
    {
      "inputs": [
        {
          "internalType": "string",
          "name": "_dni",
          "type": "string"
        }
      ],
      "name": "getUser",
      "outputs": [
        {
          "components": [
            {
              "internalType": "string",
              "name": "dni",
              "type": "string"
            },
            {
              "internalType": "string",
              "name": "name",
              "type": "string"
            }
          ],
          "internalType": "struct RegisterUser.User",
          "name": "",
          "type": "tuple"
        }
      ],
      "stateMutability": "view",
      "type": "function",
      "constant": true
    }
  ],
  "bytecode": "0x608060405234801561001057600080fd5b50610e75806100206000396000f3fe608060405234801561001057600080fd5b50600436106100415760003560e01c80631d2e4afd1461004657806331feb67114610062578063689e1c0314610092575b600080fd5b610060600480360381019061005b9190610610565b6100c3565b005b61007c60048036038101906100779190610691565b610263565b60405161008991906107b2565b60405180910390f35b6100ac60048036038101906100a79190610904565b610433565b6040516100ba929190610997565b60405180910390f35b60008085856040516100d69291906109fe565b908152602001604051809103902060000180546100f290610a46565b905014610134576040517f08c379a000000000000000000000000000000000000000000000000000000000815260040161012b90610ac3565b60405180910390fd5b604051806040016040528085858080601f016020809104026020016040519081016040528093929190818152602001838380828437600081840152601f19601f82011690508083019250505050505050815260200183838080601f016020809104026020016040519081016040528093929190818152602001838380828437600081840152601f19601f82011690508083019250505050505050815250600085856040516101e39291906109fe565b908152602001604051809103902060008201518160000190816102069190610c99565b50602082015181600101908161021c9190610c99565b509050507f996d7324173609959370942b1ee1b743dc623b3d50459e66c1d55df55e5a9f37848484846040516102559493929190610d98565b60405180910390a150505050565b61026b61057d565b600080848460405161027e9291906109fe565b9081526020016040518091039020600001805461029a90610a46565b9050036102dc576040517f08c379a00000000000000000000000000000000000000000000000000000000081526004016102d390610e1f565b60405180910390fd5b600083836040516102ee9291906109fe565b908152602001604051809103902060405180604001604052908160008201805461031790610a46565b80601f016020809104026020016040519081016040528092919081815260200182805461034390610a46565b80156103905780601f1061036557610100808354040283529160200191610390565b820191906000526020600020905b81548152906001019060200180831161037357829003601f168201915b505050505081526020016001820180546103a990610a46565b80601f01602080910402602001604051908101604052809291908181526020018280546103d590610a46565b80156104225780601f106103f757610100808354040283529160200191610422565b820191906000526020600020905b81548152906001019060200180831161040557829003601f168201915b505050505081525050905092915050565b60008180516020810182018051848252602083016020850120818352809550505050505060009150905080600001805461046c90610a46565b80601f016020809104026020016040519081016040528092919081815260200182805461049890610a46565b80156104e55780601f106104ba576101008083540402835291602001916104e5565b820191906000526020600020905b8154815290600101906020018083116104c857829003601f168201915b5050505050908060010180546104fa90610a46565b80601f016020809104026020016040519081016040528092919081815260200182805461052690610a46565b80156105735780601f1061054857610100808354040283529160200191610573565b820191906000526020600020905b81548152906001019060200180831161055657829003601f168201915b5050505050905082565b604051806040016040528060608152602001606081525090565b6000604051905090565b600080fd5b600080fd5b600080fd5b600080fd5b600080fd5b60008083601f8401126105d0576105cf6105ab565b5b8235905067ffffffffffffffff8111156105ed576105ec6105b0565b5b602083019150836001820283011115610609576106086105b5565b5b9250929050565b6000806000806040858703121561062a576106296105a1565b5b600085013567ffffffffffffffff811115610648576106476105a6565b5b610654878288016105ba565b9450945050602085013567ffffffffffffffff811115610677576106766105a6565b5b610683878288016105ba565b925092505092959194509250565b600080602083850312156106a8576106a76105a1565b5b600083013567ffffffffffffffff8111156106c6576106c56105a6565b5b6106d2858286016105ba565b92509250509250929050565b600081519050919050565b600082825260208201905092915050565b60005b838110156107185780820151818401526020810190506106fd565b60008484015250505050565b6000601f19601f8301169050919050565b6000610740826106de565b61074a81856106e9565b935061075a8185602086016106fa565b61076381610724565b840191505092915050565b6000604083016000830151848203600086015261078b8282610735565b915050602083015184820360208601526107a58282610735565b9150508091505092915050565b600060208201905081810360008301526107cc818461076e565b905092915050565b600080fd5b7f4e487b7100000000000000000000000000000000000000000000000000000000600052604160045260246000fd5b61081182610724565b810181811067ffffffffffffffff821117156108305761082f6107d9565b5b80604052505050565b6000610843610597565b905061084f8282610808565b919050565b600067ffffffffffffffff82111561086f5761086e6107d9565b5b61087882610724565b9050602081019050919050565b82818337600083830152505050565b60006108a76108a284610854565b610839565b9050828152602081018484840111156108c3576108c26107d4565b5b6108ce848285610885565b509392505050565b600082601f8301126108eb576108ea6105ab565b5b81356108fb848260208601610894565b91505092915050565b60006020828403121561091a576109196105a1565b5b600082013567ffffffffffffffff811115610938576109376105a6565b5b610944848285016108d6565b91505092915050565b600082825260208201905092915050565b6000610969826106de565b610973818561094d565b93506109838185602086016106fa565b61098c81610724565b840191505092915050565b600060408201905081810360008301526109b1818561095e565b905081810360208301526109c5818461095e565b90509392505050565b600081905092915050565b60006109e583856109ce565b93506109f2838584610885565b82840190509392505050565b6000610a0b8284866109d9565b91508190509392505050565b7f4e487b7100000000000000000000000000000000000000000000000000000000600052602260045260246000fd5b60006002820490506001821680610a5e57607f821691505b602082108103610a7157610a70610a17565b5b50919050565b7f5573657220616c726561647920726567697374657265642e0000000000000000600082015250565b6000610aad60188361094d565b9150610ab882610a77565b602082019050919050565b60006020820190508181036000830152610adc81610aa0565b9050919050565b60008190508160005260206000209050919050565b60006020601f8301049050919050565b600082821b905092915050565b600060088302610b457fffffffffffffffffffffffffffffffffffffffffffffffffffffffffffffffff82610b08565b610b4f8683610b08565b95508019841693508086168417925050509392505050565b6000819050919050565b6000819050919050565b6000610b96610b91610b8c84610b67565b610b71565b610b67565b9050919050565b6000819050919050565b610bb083610b7b565b610bc4610bbc82610b9d565b848454610b15565b825550505050565b600090565b610bd9610bcc565b610be4818484610ba7565b505050565b5b81811015610c0857610bfd600082610bd1565b600181019050610bea565b5050565b601f821115610c4d57610c1e81610ae3565b610c2784610af8565b81016020851015610c36578190505b610c4a610c4285610af8565b830182610be9565b50505b505050565b600082821c905092915050565b6000610c7060001984600802610c52565b1980831691505092915050565b6000610c898383610c5f565b9150826002028217905092915050565b610ca2826106de565b67ffffffffffffffff811115610cbb57610cba6107d9565b5b610cc58254610a46565b610cd0828285610c0c565b600060209050601f831160018114610d035760008415610cf1578287015190505b610cfb8582610c7d565b865550610d63565b601f198416610d1186610ae3565b60005b82811015610d3957848901518255600182019150602085019450602081019050610d14565b86831015610d565784890151610d52601f891682610c5f565b8355505b6001600288020188555050505b505050505050565b6000610d77838561094d565b9350610d84838584610885565b610d8d83610724565b840190509392505050565b60006040820190508181036000830152610db3818688610d6b565b90508181036020830152610dc8818486610d6b565b905095945050505050565b7f55736572206e6f7420666f756e642e0000000000000000000000000000000000600082015250565b6000610e09600f8361094d565b9150610e1482610dd3565b602082019050919050565b60006020820190508181036000830152610e3881610dfc565b905091905056fea264697066735822122087b1b0e5dd27e4951496c0f77e13fd6ec23a667c4cf5c182df41a3a27ea5e59964736f6c63430008130033",
  "immutableReferences": {},
  "source": "// SPDX-License-Identifier: MIT\n// Tells the Solidity compiler to compile only from v0.8.13 to v0.9.0\npragma solidity ^0.8.13;\n\ncontract RegisterUser {\n    struct User {\n        string dni;\n        string name;\n    }\n\n    mapping(string => User) public users;\n\n    event UserRegistered(string dni, string name);\n\n    function registerUser(string calldata _dni, string calldata _name) external {\n        require(bytes(users[_dni].dni).length == 0, \"User already registered.\");\n        users[_dni] = User(_dni, _name);\n        emit UserRegistered(_dni, _name);\n    }\n\n    function getUser(string calldata _dni) external view returns (User memory) {\n        require(bytes(users[_dni].dni).length != 0, \"User not found.\");\n        return users[_dni];\n    }\n}\n",
  "sourcePath": "/home/tote/master/tfm/contracts/RegisterUser.sol",
  "compiler": {
    "name": "solc",
    "version": "0.8.19+commit.7dd6d404.Emscripten.clang"
  },
  "schemaVersion": "3.4.16",
  "updatedAt": "2024-05-16T11:35:27.618Z",
  "networkType": "ethereum",
  "devdoc": {
    "kind": "dev",
    "methods": {},
    "version": 1
  },
  "userdoc": {
    "kind": "user",
    "methods": {},
    "version": 1
  }
}