{
  "contractName": "Registration",
  "abi": [
    {
      "inputs": [],
      "stateMutability": "nonpayable",
      "type": "constructor"
    },
    {
      "anonymous": false,
      "inputs": [
        {
          "indexed": true,
          "internalType": "address",
          "name": "user",
          "type": "address"
        }
      ],
      "name": "UserRegistered",
      "type": "event"
    },
    {
      "inputs": [
        {
          "internalType": "address",
          "name": "",
          "type": "address"
        }
      ],
      "name": "registeredUsers",
      "outputs": [
        {
          "internalType": "bool",
          "name": "",
          "type": "bool"
        }
      ],
      "stateMutability": "view",
      "type": "function",
      "constant": true
    },
    {
      "inputs": [],
      "name": "totalRegisteredUsers",
      "outputs": [
        {
          "internalType": "uint256",
          "name": "",
          "type": "uint256"
        }
      ],
      "stateMutability": "view",
      "type": "function",
      "constant": true
    },
    {
      "inputs": [],
      "name": "register",
      "outputs": [],
      "stateMutability": "nonpayable",
      "type": "function"
    }
  ],
  "bytecode": "0x6080604052348015600e575f80fd5b505f600181905550610405806100235f395ff3fe608060405234801561000f575f80fd5b506004361061003f575f3560e01c80630e50cee5146100435780631aa3a008146100735780633c7afca51461007d575b5f80fd5b61005d60048036038101906100589190610254565b61009b565b60405161006a9190610299565b60405180910390f35b61007b6100b7565b005b6100856101f0565b60405161009291906102ca565b60405180910390f35b5f602052805f5260405f205f915054906101000a900460ff1681565b5f803373ffffffffffffffffffffffffffffffffffffffff1673ffffffffffffffffffffffffffffffffffffffff1681526020019081526020015f205f9054906101000a900460ff1615610140576040517f08c379a00000000000000000000000000000000000000000000000000000000081526004016101379061033d565b60405180910390fd5b60015f803373ffffffffffffffffffffffffffffffffffffffff1673ffffffffffffffffffffffffffffffffffffffff1681526020019081526020015f205f6101000a81548160ff02191690831515021790555060015f8154809291906101a690610388565b91905055503373ffffffffffffffffffffffffffffffffffffffff167f54db7a5cb4735e1aac1f53db512d3390390bb6637bd30ad4bf9fc98667d9b9b960405160405180910390a2565b60015481565b5f80fd5b5f73ffffffffffffffffffffffffffffffffffffffff82169050919050565b5f610223826101fa565b9050919050565b61023381610219565b811461023d575f80fd5b50565b5f8135905061024e8161022a565b92915050565b5f60208284031215610269576102686101f6565b5b5f61027684828501610240565b91505092915050565b5f8115159050919050565b6102938161027f565b82525050565b5f6020820190506102ac5f83018461028a565b92915050565b5f819050919050565b6102c4816102b2565b82525050565b5f6020820190506102dd5f8301846102bb565b92915050565b5f82825260208201905092915050565b7f416c7265616479207265676973746572656400000000000000000000000000005f82015250565b5f6103276012836102e3565b9150610332826102f3565b602082019050919050565b5f6020820190508181035f8301526103548161031b565b9050919050565b7f4e487b71000000000000000000000000000000000000000000000000000000005f52601160045260245ffd5b5f610392826102b2565b91507fffffffffffffffffffffffffffffffffffffffffffffffffffffffffffffffff82036103c4576103c361035b565b5b60018201905091905056fea26469706673582212202ef998f601b230bdf5b1f295526399f1e6e9fceb316e31b49bca6bde2d10190064736f6c63430008190033",
  "immutableReferences": {},
  "source": "// SPDX-License-Identifier: MIT\n// Tells the Solidity compiler to compile only from v0.8.13 to v0.9.0\npragma solidity ^0.8.13;\n\ncontract Registration {\n    mapping(address => bool) public registeredUsers;\n    uint256 public totalRegisteredUsers;\n\n    constructor() {\n        totalRegisteredUsers = 0;\n    }\n\n    event UserRegistered(address indexed user);\n\n    function register() public {\n        require(!registeredUsers[msg.sender], \"Already registered\");\n\n        registeredUsers[msg.sender] = true;\n        totalRegisteredUsers++;\n\n        emit UserRegistered(msg.sender);\n    }\n\n}\n",
  "sourcePath": "/home/tote/master/tfm/contracts/Register.sol",
  "compiler": {
    "name": "solc",
    "version": "0.8.25+commit.b61c2a91.Emscripten.clang"
  },
  "schemaVersion": "3.4.16",
  "updatedAt": "2024-05-16T11:13:39.612Z",
  "networkType": "ethereum",
  "devdoc": {
    "kind": "dev",
    "methods": {},
    "version": 1
  },
  "userdoc": {
    "kind": "user",
    "methods": {},
    "version": 1
  }
}