{
  "contractName": "StudentRegister",
  "abi": [
    {
      "inputs": [],
      "stateMutability": "nonpayable",
      "type": "constructor"
    },
    {
      "inputs": [],
      "name": "owner",
      "outputs": [
        {
          "internalType": "address",
          "name": "",
          "type": "address"
        }
      ],
      "stateMutability": "view",
      "type": "function",
      "constant": true
    },
    {
      "inputs": [
        {
          "internalType": "address",
          "name": "id",
          "type": "address"
        },
        {
          "internalType": "string",
          "name": "name",
          "type": "string"
        },
        {
          "internalType": "uint256",
          "name": "mark1",
          "type": "uint256"
        },
        {
          "internalType": "uint256",
          "name": "mark2",
          "type": "uint256"
        }
      ],
      "name": "register",
      "outputs": [],
      "stateMutability": "nonpayable",
      "type": "function"
    },
    {
      "inputs": [
        {
          "internalType": "address",
          "name": "id",
          "type": "address"
        }
      ],
      "name": "getDetails",
      "outputs": [
        {
          "internalType": "address",
          "name": "",
          "type": "address"
        },
        {
          "internalType": "string",
          "name": "",
          "type": "string"
        },
        {
          "internalType": "uint256",
          "name": "",
          "type": "uint256"
        },
        {
          "internalType": "uint256",
          "name": "",
          "type": "uint256"
        }
      ],
      "stateMutability": "view",
      "type": "function",
      "constant": true
    }
  ],
  "bytecode": "0x608060405234801561001057600080fd5b50336000806101000a81548173ffffffffffffffffffffffffffffffffffffffff021916908373ffffffffffffffffffffffffffffffffffffffff160217905550610f30806100606000396000f3fe608060405234801561001057600080fd5b50600436106100415760003560e01c806330289c61146100465780638da5cb5b146100795780639d45ee4714610097575b600080fd5b610060600480360381019061005b9190610631565b6100b3565b6040516100709493929190610716565b60405180910390f35b61008161030f565b60405161008e9190610762565b60405180910390f35b6100b160048036038101906100ac91906108de565b610333565b005b60006060600080600160008673ffffffffffffffffffffffffffffffffffffffff1673ffffffffffffffffffffffffffffffffffffffff16815260200190815260200160002060060160009054906101000a900460ff16610149576040517f08c379a0000000000000000000000000000000000000000000000000000000008152600401610140906109ad565b60405180910390fd5b600160008673ffffffffffffffffffffffffffffffffffffffff1673ffffffffffffffffffffffffffffffffffffffff16815260200190815260200160002060000160009054906101000a900473ffffffffffffffffffffffffffffffffffffffff16600160008773ffffffffffffffffffffffffffffffffffffffff1673ffffffffffffffffffffffffffffffffffffffff168152602001908152602001600020600101600160008873ffffffffffffffffffffffffffffffffffffffff1673ffffffffffffffffffffffffffffffffffffffff16815260200190815260200160002060040154600160008973ffffffffffffffffffffffffffffffffffffffff1673ffffffffffffffffffffffffffffffffffffffff16815260200190815260200160002060050154828054610280906109fc565b80601f01602080910402602001604051908101604052809291908181526020018280546102ac906109fc565b80156102f95780601f106102ce576101008083540402835291602001916102f9565b820191906000526020600020905b8154815290600101906020018083116102dc57829003601f168201915b5050505050925093509350935093509193509193565b60008054906101000a900473ffffffffffffffffffffffffffffffffffffffff1681565b60008054906101000a900473ffffffffffffffffffffffffffffffffffffffff1673ffffffffffffffffffffffffffffffffffffffff163373ffffffffffffffffffffffffffffffffffffffff16146103c1576040517f08c379a00000000000000000000000000000000000000000000000000000000081526004016103b890610a79565b60405180910390fd5b60001515600160008673ffffffffffffffffffffffffffffffffffffffff1673ffffffffffffffffffffffffffffffffffffffff16815260200190815260200160002060060160009054906101000a900460ff16151514610457576040517f08c379a000000000000000000000000000000000000000000000000000000000815260040161044e90610b57565b60405180910390fd5b600081836104659190610ba6565b9050600060c86064836104789190610bda565b6104829190610c4b565b90506040518060e001604052808773ffffffffffffffffffffffffffffffffffffffff16815260200186815260200185815260200184815260200183815260200182815260200160011515815250600160008873ffffffffffffffffffffffffffffffffffffffff1673ffffffffffffffffffffffffffffffffffffffff16815260200190815260200160002060008201518160000160006101000a81548173ffffffffffffffffffffffffffffffffffffffff021916908373ffffffffffffffffffffffffffffffffffffffff160217905550602082015181600101908161056b9190610e28565b5060408201518160020155606082015181600301556080820151816004015560a0820151816005015560c08201518160060160006101000a81548160ff021916908315150217905550905050505050505050565b6000604051905090565b600080fd5b600080fd5b600073ffffffffffffffffffffffffffffffffffffffff82169050919050565b60006105fe826105d3565b9050919050565b61060e816105f3565b811461061957600080fd5b50565b60008135905061062b81610605565b92915050565b600060208284031215610647576106466105c9565b5b60006106558482850161061c565b91505092915050565b610667816105f3565b82525050565b600081519050919050565b600082825260208201905092915050565b60005b838110156106a757808201518184015260208101905061068c565b60008484015250505050565b6000601f19601f8301169050919050565b60006106cf8261066d565b6106d98185610678565b93506106e9818560208601610689565b6106f2816106b3565b840191505092915050565b6000819050919050565b610710816106fd565b82525050565b600060808201905061072b600083018761065e565b818103602083015261073d81866106c4565b905061074c6040830185610707565b6107596060830184610707565b95945050505050565b6000602082019050610777600083018461065e565b92915050565b600080fd5b600080fd5b7f4e487b7100000000000000000000000000000000000000000000000000000000600052604160045260246000fd5b6107bf826106b3565b810181811067ffffffffffffffff821117156107de576107dd610787565b5b80604052505050565b60006107f16105bf565b90506107fd82826107b6565b919050565b600067ffffffffffffffff82111561081d5761081c610787565b5b610826826106b3565b9050602081019050919050565b82818337600083830152505050565b600061085561085084610802565b6107e7565b90508281526020810184848401111561087157610870610782565b5b61087c848285610833565b509392505050565b600082601f8301126108995761089861077d565b5b81356108a9848260208601610842565b91505092915050565b6108bb816106fd565b81146108c657600080fd5b50565b6000813590506108d8816108b2565b92915050565b600080600080608085870312156108f8576108f76105c9565b5b60006109068782880161061c565b945050602085013567ffffffffffffffff811115610927576109266105ce565b5b61093387828801610884565b9350506040610944878288016108c9565b9250506060610955878288016108c9565b91505092959194509250565b7f53747564656e7420646f6573206e6f7420657869737400000000000000000000600082015250565b6000610997601683610678565b91506109a282610961565b602082019050919050565b600060208201905081810360008301526109c68161098a565b9050919050565b7f4e487b7100000000000000000000000000000000000000000000000000000000600052602260045260246000fd5b60006002820490506001821680610a1457607f821691505b602082108103610a2757610a266109cd565b5b50919050565b7f43616c6c6572206973206e6f7420746865206f776e6572000000000000000000600082015250565b6000610a63601783610678565b9150610a6e82610a2d565b602082019050919050565b60006020820190508181036000830152610a9281610a56565b9050919050565b7f4e6f20657320706f7369626c65207265616c697a6172206672617564652c206c60008201527f6f7320646574616c6c6573206465206573746520616c756d6e6f20796120686160208201527f6e207369646f207265676973747261646f732079206e6f2070756564656e207360408201527f657220616c74657261646f732e2e2e0000000000000000000000000000000000606082015250565b6000610b41606f83610678565b9150610b4c82610a99565b608082019050919050565b60006020820190508181036000830152610b7081610b34565b9050919050565b7f4e487b7100000000000000000000000000000000000000000000000000000000600052601160045260246000fd5b6000610bb1826106fd565b9150610bbc836106fd565b9250828201905080821115610bd457610bd3610b77565b5b92915050565b6000610be5826106fd565b9150610bf0836106fd565b9250828202610bfe816106fd565b91508282048414831517610c1557610c14610b77565b5b5092915050565b7f4e487b7100000000000000000000000000000000000000000000000000000000600052601260045260246000fd5b6000610c56826106fd565b9150610c61836106fd565b925082610c7157610c70610c1c565b5b828204905092915050565b60008190508160005260206000209050919050565b60006020601f8301049050919050565b600082821b905092915050565b600060088302610cde7fffffffffffffffffffffffffffffffffffffffffffffffffffffffffffffffff82610ca1565b610ce88683610ca1565b95508019841693508086168417925050509392505050565b6000819050919050565b6000610d25610d20610d1b846106fd565b610d00565b6106fd565b9050919050565b6000819050919050565b610d3f83610d0a565b610d53610d4b82610d2c565b848454610cae565b825550505050565b600090565b610d68610d5b565b610d73818484610d36565b505050565b5b81811015610d9757610d8c600082610d60565b600181019050610d79565b5050565b601f821115610ddc57610dad81610c7c565b610db684610c91565b81016020851015610dc5578190505b610dd9610dd185610c91565b830182610d78565b50505b505050565b600082821c905092915050565b6000610dff60001984600802610de1565b1980831691505092915050565b6000610e188383610dee565b9150826002028217905092915050565b610e318261066d565b67ffffffffffffffff811115610e4a57610e49610787565b5b610e5482546109fc565b610e5f828285610d9b565b600060209050601f831160018114610e925760008415610e80578287015190505b610e8a8582610e0c565b865550610ef2565b601f198416610ea086610c7c565b60005b82811015610ec857848901518255600182019150602085019450602081019050610ea3565b86831015610ee55784890151610ee1601f891682610dee565b8355505b6001600288020188555050505b50505050505056fea2646970667358221220044f3f96eb1f9b547a0cba4c58632f0d601e39608810c97e813dfb45395dee1864736f6c63430008130033",
  "immutableReferences": {},
  "source": "// SPDX-License-Identifier: MIT\n// Tells the Solidity compiler to compile only from v0.8.13 to v0.9.0\npragma solidity 0.8.19;\n\ncontract StudentRegister {\n    address public owner;\n    mapping(address => Student) students;\n\n    struct Student {\n        address id;\n        string name;\n        uint mark1;\n        uint mark2;\n        uint totalMarks;\n        uint percentage;\n        bool exists;\n    }\n\n    constructor() {\n        owner = msg.sender;\n    }\n\n    modifier onlyOwner {\n        require(msg.sender == owner, \"Caller is not the owner\");\n        _;\n    }\n\n    function register(address id, string memory name, uint mark1, uint mark2) public onlyOwner {\n        require(students[id].exists == false, \"No es posible realizar fraude, los detalles de este alumno ya han sido registrados y no pueden ser alterados...\");\n\n        uint totalMarks = mark1 + mark2;\n        uint percentage = (totalMarks* 100) / 200;\n\n        students[id] = Student(id, name, mark1, mark2, totalMarks, percentage, true);\n    }\n\n    function getDetails(address id) public view returns (address, string memory, uint, uint) {\n        require(students[id].exists, \"Student does not exist\");\n        return (students[id].id, students[id].name, students[id].totalMarks, students[id].percentage);\n    }\n}",
  "sourcePath": "/home/tote/master/tfm/contracts/StudentRegister.sol",
  "compiler": {
    "name": "solc",
    "version": "0.8.19+commit.7dd6d404.Emscripten.clang"
  },
  "schemaVersion": "3.4.16",
  "updatedAt": "2024-05-16T11:35:27.624Z",
  "networkType": "ethereum",
  "devdoc": {
    "kind": "dev",
    "methods": {},
    "version": 1
  },
  "userdoc": {
    "kind": "user",
    "methods": {},
    "version": 1
  }
}