{
  "contractName": "UserRegistry",
  "abi": [
    {
      "inputs": [
        {
          "internalType": "string",
          "name": "_name",
          "type": "string"
        },
        {
          "internalType": "string",
          "name": "_dni",
          "type": "string"
        }
      ],
      "name": "registerUser",
      "outputs": [],
      "stateMutability": "nonpayable",
      "type": "function"
    },
    {
      "inputs": [
        {
          "internalType": "string",
          "name": "_dni",
          "type": "string"
        }
      ],
      "name": "getUser",
      "outputs": [
        {
          "internalType": "string",
          "name": "",
          "type": "string"
        },
        {
          "internalType": "string",
          "name": "",
          "type": "string"
        },
        {
          "internalType": "address",
          "name": "",
          "type": "address"
        }
      ],
      "stateMutability": "view",
      "type": "function",
      "constant": true
    }
  ],
  "bytecode": "0x608060405234801561001057600080fd5b50610b3a806100206000396000f3fe608060405234801561001057600080fd5b50600436106100365760003560e01c80631d2e4afd1461003b57806331feb67114610057575b600080fd5b6100556004803603810190610050919061052b565b610089565b005b610071600480360381019061006c91906105a3565b6101c1565b604051610080939291906106ac565b60405180910390f35b6000808260405161009a919061072d565b908152602001604051809103902060010180546100b690610773565b9050146100f8576040517f08c379a00000000000000000000000000000000000000000000000000000000081526004016100ef906107f0565b60405180910390fd5b60405180606001604052808381526020018281526020013373ffffffffffffffffffffffffffffffffffffffff16815250600082604051610139919061072d565b9081526020016040518091039020600082015181600001908161015c91906109c6565b50602082015181600101908161017291906109c6565b5060408201518160020160006101000a81548173ffffffffffffffffffffffffffffffffffffffff021916908373ffffffffffffffffffffffffffffffffffffffff1602179055509050505050565b6060806000806000856040516101d7919061072d565b908152602001604051809103902060405180606001604052908160008201805461020090610773565b80601f016020809104026020016040519081016040528092919081815260200182805461022c90610773565b80156102795780601f1061024e57610100808354040283529160200191610279565b820191906000526020600020905b81548152906001019060200180831161025c57829003601f168201915b5050505050815260200160018201805461029290610773565b80601f01602080910402602001604051908101604052809291908181526020018280546102be90610773565b801561030b5780601f106102e05761010080835404028352916020019161030b565b820191906000526020600020905b8154815290600101906020018083116102ee57829003601f168201915b505050505081526020016002820160009054906101000a900473ffffffffffffffffffffffffffffffffffffffff1673ffffffffffffffffffffffffffffffffffffffff1673ffffffffffffffffffffffffffffffffffffffff168152505090506000816020015151036103b4576040517f08c379a00000000000000000000000000000000000000000000000000000000081526004016103ab90610ae4565b60405180910390fd5b806000015181602001518260400151935093509350509193909250565b6000604051905090565b600080fd5b600080fd5b600080fd5b600080fd5b6000601f19601f8301169050919050565b7f4e487b7100000000000000000000000000000000000000000000000000000000600052604160045260246000fd5b610438826103ef565b810181811067ffffffffffffffff8211171561045757610456610400565b5b80604052505050565b600061046a6103d1565b9050610476828261042f565b919050565b600067ffffffffffffffff82111561049657610495610400565b5b61049f826103ef565b9050602081019050919050565b82818337600083830152505050565b60006104ce6104c98461047b565b610460565b9050828152602081018484840111156104ea576104e96103ea565b5b6104f58482856104ac565b509392505050565b600082601f830112610512576105116103e5565b5b81356105228482602086016104bb565b91505092915050565b60008060408385031215610542576105416103db565b5b600083013567ffffffffffffffff8111156105605761055f6103e0565b5b61056c858286016104fd565b925050602083013567ffffffffffffffff81111561058d5761058c6103e0565b5b610599858286016104fd565b9150509250929050565b6000602082840312156105b9576105b86103db565b5b600082013567ffffffffffffffff8111156105d7576105d66103e0565b5b6105e3848285016104fd565b91505092915050565b600081519050919050565b600082825260208201905092915050565b60005b8381101561062657808201518184015260208101905061060b565b60008484015250505050565b600061063d826105ec565b61064781856105f7565b9350610657818560208601610608565b610660816103ef565b840191505092915050565b600073ffffffffffffffffffffffffffffffffffffffff82169050919050565b60006106968261066b565b9050919050565b6106a68161068b565b82525050565b600060608201905081810360008301526106c68186610632565b905081810360208301526106da8185610632565b90506106e9604083018461069d565b949350505050565b600081905092915050565b6000610707826105ec565b61071181856106f1565b9350610721818560208601610608565b80840191505092915050565b600061073982846106fc565b915081905092915050565b7f4e487b7100000000000000000000000000000000000000000000000000000000600052602260045260246000fd5b6000600282049050600182168061078b57607f821691505b60208210810361079e5761079d610744565b5b50919050565b7f5573657220616c72656164792072656769737465726564000000000000000000600082015250565b60006107da6017836105f7565b91506107e5826107a4565b602082019050919050565b60006020820190508181036000830152610809816107cd565b9050919050565b60008190508160005260206000209050919050565b60006020601f8301049050919050565b600082821b905092915050565b6000600883026108727fffffffffffffffffffffffffffffffffffffffffffffffffffffffffffffffff82610835565b61087c8683610835565b95508019841693508086168417925050509392505050565b6000819050919050565b6000819050919050565b60006108c36108be6108b984610894565b61089e565b610894565b9050919050565b6000819050919050565b6108dd836108a8565b6108f16108e9826108ca565b848454610842565b825550505050565b600090565b6109066108f9565b6109118184846108d4565b505050565b5b818110156109355761092a6000826108fe565b600181019050610917565b5050565b601f82111561097a5761094b81610810565b61095484610825565b81016020851015610963578190505b61097761096f85610825565b830182610916565b50505b505050565b600082821c905092915050565b600061099d6000198460080261097f565b1980831691505092915050565b60006109b6838361098c565b9150826002028217905092915050565b6109cf826105ec565b67ffffffffffffffff8111156109e8576109e7610400565b5b6109f28254610773565b6109fd828285610939565b600060209050601f831160018114610a305760008415610a1e578287015190505b610a2885826109aa565b865550610a90565b601f198416610a3e86610810565b60005b82811015610a6657848901518255600182019150602085019450602081019050610a41565b86831015610a835784890151610a7f601f89168261098c565b8355505b6001600288020188555050505b505050505050565b7f55736572206e6f74207265676973746572656400000000000000000000000000600082015250565b6000610ace6013836105f7565b9150610ad982610a98565b602082019050919050565b60006020820190508181036000830152610afd81610ac1565b905091905056fea26469706673582212203f7c6ed095ed132421fdb9dd62bf42bfc501506425ae9e4fbf309569c184f20264736f6c63430008130033",
  "immutableReferences": {},
  "source": "// SPDX-License-Identifier: MIT \npragma solidity ^0.8.19;\n\ncontract UserRegistry {\n\n    struct User {\n        string name;\n        string dni;\n        address wallet;\n    }\n\n    mapping(string => User) private users;\n    // mapping(address => bool) private addressUsed;\n\n    function registerUser(string memory _name, string memory _dni) public {\n        // require(!addressUsed[msg.sender], \"Address already used\");\n        require(bytes(users[_dni].dni).length == 0, \"User already registered\");\n\n        users[_dni] = User({\n            name: _name, \n            dni: _dni,\n            wallet: msg.sender\n        });\n\n        // addressUsed[msg.sender] = true;\n    }\n\n    function getUser(string memory _dni) public view returns (string memory, string memory, address) {\n        User memory user = users[_dni];\n\n        require(bytes(user.dni).length != 0, \"User not registered\");\n\n        return (user.name, user.dni, user.wallet);\n    }\n\n}",
  "sourcePath": "/home/tote/master/tfm/contracts/UserRegistry.sol",
  "compiler": {
    "name": "solc",
    "version": "0.8.19+commit.7dd6d404.Emscripten.clang"
  },
  "schemaVersion": "3.4.16",
  "updatedAt": "2024-06-03T21:24:33.601Z",
  "networkType": "ethereum",
  "devdoc": {
    "kind": "dev",
    "methods": {},
    "version": 1
  },
  "userdoc": {
    "kind": "user",
    "methods": {},
    "version": 1
  }
}