{
  "contractName": "UserRegistry",
  "abi": [
    {
      "inputs": [
        {
          "internalType": "string",
          "name": "_username",
          "type": "string"
        },
        {
          "internalType": "string",
          "name": "_dni",
          "type": "string"
        }
      ],
      "name": "registerUser",
      "outputs": [],
      "stateMutability": "nonpayable",
      "type": "function"
    },
    {
      "inputs": [
        {
          "internalType": "string",
          "name": "_dni",
          "type": "string"
        }
      ],
      "name": "getUser",
      "outputs": [
        {
          "internalType": "string",
          "name": "",
          "type": "string"
        },
        {
          "internalType": "string",
          "name": "",
          "type": "string"
        },
        {
          "internalType": "address",
          "name": "",
          "type": "address"
        }
      ],
      "stateMutability": "view",
      "type": "function",
      "constant": true
    },
    {
      "inputs": [
        {
          "internalType": "string",
          "name": "_dni",
          "type": "string"
        }
      ],
      "name": "isUserRegistered",
      "outputs": [
        {
          "internalType": "bool",
          "name": "",
          "type": "bool"
        }
      ],
      "stateMutability": "view",
      "type": "function",
      "constant": true
    }
  ],
  "bytecode": "0x608060405234801561001057600080fd5b50610c16806100206000396000f3fe608060405234801561001057600080fd5b50600436106100415760003560e01c80631d2e4afd1461004657806331feb67114610062578063a8cc778414610094575b600080fd5b610060600480360381019061005b91906105d1565b6100c4565b005b61007c60048036038101906100779190610649565b610232565b60405161008b93929190610752565b60405180910390f35b6100ae60048036038101906100a99190610649565b610442565b6040516100bb91906107b2565b60405180910390f35b600080826040516100d59190610809565b908152602001604051809103902060010180546100f19061084f565b905014610133576040517f08c379a000000000000000000000000000000000000000000000000000000000815260040161012a906108cc565b60405180910390fd5b60405180606001604052808381526020018281526020013373ffffffffffffffffffffffffffffffffffffffff168152506000826040516101749190610809565b908152602001604051809103902060008201518160000190816101979190610aa2565b5060208201518160010190816101ad9190610aa2565b5060408201518160020160006101000a81548173ffffffffffffffffffffffffffffffffffffffff021916908373ffffffffffffffffffffffffffffffffffffffff160217905550905050600180826040516102099190610809565b908152602001604051809103902060006101000a81548160ff0219169083151502179055505050565b6060806000806000856040516102489190610809565b90815260200160405180910390206040518060600160405290816000820180546102719061084f565b80601f016020809104026020016040519081016040528092919081815260200182805461029d9061084f565b80156102ea5780601f106102bf576101008083540402835291602001916102ea565b820191906000526020600020905b8154815290600101906020018083116102cd57829003601f168201915b505050505081526020016001820180546103039061084f565b80601f016020809104026020016040519081016040528092919081815260200182805461032f9061084f565b801561037c5780601f106103515761010080835404028352916020019161037c565b820191906000526020600020905b81548152906001019060200180831161035f57829003601f168201915b505050505081526020016002820160009054906101000a900473ffffffffffffffffffffffffffffffffffffffff1673ffffffffffffffffffffffffffffffffffffffff1673ffffffffffffffffffffffffffffffffffffffff16815250509050600081602001515103610425576040517f08c379a000000000000000000000000000000000000000000000000000000000815260040161041c90610bc0565b60405180910390fd5b806000015181602001518260400151935093509350509193909250565b60006001826040516104549190610809565b908152602001604051809103902060009054906101000a900460ff169050919050565b6000604051905090565b600080fd5b600080fd5b600080fd5b600080fd5b6000601f19601f8301169050919050565b7f4e487b7100000000000000000000000000000000000000000000000000000000600052604160045260246000fd5b6104de82610495565b810181811067ffffffffffffffff821117156104fd576104fc6104a6565b5b80604052505050565b6000610510610477565b905061051c82826104d5565b919050565b600067ffffffffffffffff82111561053c5761053b6104a6565b5b61054582610495565b9050602081019050919050565b82818337600083830152505050565b600061057461056f84610521565b610506565b9050828152602081018484840111156105905761058f610490565b5b61059b848285610552565b509392505050565b600082601f8301126105b8576105b761048b565b5b81356105c8848260208601610561565b91505092915050565b600080604083850312156105e8576105e7610481565b5b600083013567ffffffffffffffff81111561060657610605610486565b5b610612858286016105a3565b925050602083013567ffffffffffffffff81111561063357610632610486565b5b61063f858286016105a3565b9150509250929050565b60006020828403121561065f5761065e610481565b5b600082013567ffffffffffffffff81111561067d5761067c610486565b5b610689848285016105a3565b91505092915050565b600081519050919050565b600082825260208201905092915050565b60005b838110156106cc5780820151818401526020810190506106b1565b60008484015250505050565b60006106e382610692565b6106ed818561069d565b93506106fd8185602086016106ae565b61070681610495565b840191505092915050565b600073ffffffffffffffffffffffffffffffffffffffff82169050919050565b600061073c82610711565b9050919050565b61074c81610731565b82525050565b6000606082019050818103600083015261076c81866106d8565b9050818103602083015261078081856106d8565b905061078f6040830184610743565b949350505050565b60008115159050919050565b6107ac81610797565b82525050565b60006020820190506107c760008301846107a3565b92915050565b600081905092915050565b60006107e382610692565b6107ed81856107cd565b93506107fd8185602086016106ae565b80840191505092915050565b600061081582846107d8565b915081905092915050565b7f4e487b7100000000000000000000000000000000000000000000000000000000600052602260045260246000fd5b6000600282049050600182168061086757607f821691505b60208210810361087a57610879610820565b5b50919050565b7f5573657220616c72656164792072656769737465726564000000000000000000600082015250565b60006108b660178361069d565b91506108c182610880565b602082019050919050565b600060208201905081810360008301526108e5816108a9565b9050919050565b60008190508160005260206000209050919050565b60006020601f8301049050919050565b600082821b905092915050565b60006008830261094e7fffffffffffffffffffffffffffffffffffffffffffffffffffffffffffffffff82610911565b6109588683610911565b95508019841693508086168417925050509392505050565b6000819050919050565b6000819050919050565b600061099f61099a61099584610970565b61097a565b610970565b9050919050565b6000819050919050565b6109b983610984565b6109cd6109c5826109a6565b84845461091e565b825550505050565b600090565b6109e26109d5565b6109ed8184846109b0565b505050565b5b81811015610a1157610a066000826109da565b6001810190506109f3565b5050565b601f821115610a5657610a27816108ec565b610a3084610901565b81016020851015610a3f578190505b610a53610a4b85610901565b8301826109f2565b50505b505050565b600082821c905092915050565b6000610a7960001984600802610a5b565b1980831691505092915050565b6000610a928383610a68565b9150826002028217905092915050565b610aab82610692565b67ffffffffffffffff811115610ac457610ac36104a6565b5b610ace825461084f565b610ad9828285610a15565b600060209050601f831160018114610b0c5760008415610afa578287015190505b610b048582610a86565b865550610b6c565b601f198416610b1a866108ec565b60005b82811015610b4257848901518255600182019150602085019450602081019050610b1d565b86831015610b5f5784890151610b5b601f891682610a68565b8355505b6001600288020188555050505b505050505050565b7f55736572206e6f74207265676973746572656400000000000000000000000000600082015250565b6000610baa60138361069d565b9150610bb582610b74565b602082019050919050565b60006020820190508181036000830152610bd981610b9d565b905091905056fea2646970667358221220f2064c05e154618cdcc5a6f6d4f4715e32469bf71999ba6bfefe9344ed3ea32964736f6c63430008130033",
  "immutableReferences": {},
  "source": "// SPDX-License-Identifier: MIT \npragma solidity ^0.8.19;\n\ncontract UserRegistry {\n\n    struct User {\n        string username;\n        string dni;\n        address wallet;\n    }\n\n    mapping(string => User) private users;\n    mapping(string => bool) private registeredDNIs;\n\n    function registerUser(string memory _username, string memory _dni) public {\n        require(bytes(users[_dni].dni).length == 0, \"User already registered\");\n\n        users[_dni] = User({\n            username: _username, \n            dni: _dni,\n            wallet: msg.sender\n        });\n        registeredDNIs[_dni] = true;\n    }\n\n    function getUser(string memory _dni) public view returns (string memory, string memory, address) {\n        User memory user = users[_dni];\n\n        require(bytes(user.dni).length != 0, \"User not registered\");\n\n        return (user.username, user.dni, user.wallet);\n    }\n\n    function isUserRegistered(string memory _dni) public view returns (bool) {\n        return registeredDNIs[_dni];\n    }\n\n}",
  "sourcePath": "/home/tote/master/tfm/contracts/UserRegistry.sol",
  "compiler": {
    "name": "solc",
    "version": "0.8.19+commit.7dd6d404.Emscripten.clang"
  },
  "schemaVersion": "3.4.16",
  "updatedAt": "2024-06-06T16:01:18.596Z",
  "networkType": "ethereum",
  "devdoc": {
    "kind": "dev",
    "methods": {},
    "version": 1
  },
  "userdoc": {
    "kind": "user",
    "methods": {},
    "version": 1
  }
}